{
  "contractName": "League",
  "abi": [
    {
      "anonymous": false,
      "inputs": [
        {
          "indexed": false,
          "internalType": "uint256",
          "name": "golferID",
          "type": "uint256"
        },
        {
          "indexed": false,
          "internalType": "uint256",
          "name": "newCost",
          "type": "uint256"
        }
      ],
      "name": "GolferCostUpdated",
      "type": "event"
    },
    {
      "anonymous": false,
      "inputs": [
        {
          "indexed": false,
          "internalType": "uint256",
          "name": "betID",
          "type": "uint256"
        }
      ],
      "name": "NewBet",
      "type": "event"
    },
    {
      "anonymous": false,
      "inputs": [
        {
          "indexed": false,
          "internalType": "uint256",
          "name": "golferID",
          "type": "uint256"
        },
        {
          "indexed": false,
          "internalType": "string",
          "name": "name",
          "type": "string"
        },
        {
          "indexed": false,
          "internalType": "uint256",
          "name": "cost",
          "type": "uint256"
        }
      ],
      "name": "NewGolfer",
      "type": "event"
    },
    {
      "anonymous": false,
      "inputs": [
        {
          "indexed": false,
          "internalType": "uint256",
          "name": "leagueID",
          "type": "uint256"
        },
        {
          "indexed": false,
          "internalType": "string",
          "name": "leagueName",
          "type": "string"
        },
        {
          "indexed": false,
          "internalType": "uint256",
          "name": "tournamentID",
          "type": "uint256"
        }
      ],
      "name": "NewLeague",
      "type": "event"
    },
    {
      "anonymous": false,
      "inputs": [
        {
          "indexed": true,
          "internalType": "address",
          "name": "previousOwner",
          "type": "address"
        },
        {
          "indexed": true,
          "internalType": "address",
          "name": "newOwner",
          "type": "address"
        }
      ],
      "name": "OwnershipTransferred",
      "type": "event"
    },
    {
      "anonymous": false,
      "inputs": [
        {
          "indexed": false,
          "internalType": "uint256",
          "name": "tournamentID",
          "type": "uint256"
        },
        {
          "indexed": false,
          "internalType": "string",
          "name": "name",
          "type": "string"
        },
        {
          "indexed": false,
          "internalType": "uint256",
          "name": "startTime",
          "type": "uint256"
        },
        {
          "indexed": false,
          "internalType": "uint256",
          "name": "endTime",
          "type": "uint256"
        }
      ],
      "name": "TournamentCreated",
      "type": "event"
    },
    {
      "constant": true,
      "inputs": [
        {
          "internalType": "uint256",
          "name": "",
          "type": "uint256"
        }
      ],
      "name": "bets",
      "outputs": [
        {
          "internalType": "uint32",
          "name": "leagueID",
          "type": "uint32"
        },
        {
          "internalType": "int256",
          "name": "totalScore",
          "type": "int256"
        },
        {
          "internalType": "address",
          "name": "user",
          "type": "address"
        }
      ],
      "payable": false,
      "stateMutability": "view",
      "type": "function"
    },
    {
      "constant": false,
      "inputs": [
        {
          "internalType": "string",
          "name": "_name",
          "type": "string"
        },
        {
          "internalType": "uint256",
          "name": "_id",
          "type": "uint256"
        },
        {
          "internalType": "uint256",
          "name": "_cost",
          "type": "uint256"
        }
      ],
      "name": "createGolfer",
      "outputs": [],
      "payable": false,
      "stateMutability": "nonpayable",
      "type": "function"
    },
    {
      "constant": false,
      "inputs": [
        {
          "internalType": "bytes32[]",
          "name": "_names",
          "type": "bytes32[]"
        },
        {
          "internalType": "uint256[]",
          "name": "_ids",
          "type": "uint256[]"
        },
        {
          "internalType": "uint256[]",
          "name": "_costs",
          "type": "uint256[]"
        }
      ],
      "name": "createGolfers",
      "outputs": [],
      "payable": false,
      "stateMutability": "nonpayable",
      "type": "function"
    },
    {
      "constant": false,
      "inputs": [
        {
          "internalType": "uint256",
          "name": "_tournamentID",
          "type": "uint256"
        },
        {
          "internalType": "string",
          "name": "_leagueName",
          "type": "string"
        },
        {
          "internalType": "address[6]",
          "name": "userAddresses",
          "type": "address[6]"
        }
      ],
      "name": "createLeague",
      "outputs": [],
      "payable": false,
      "stateMutability": "nonpayable",
      "type": "function"
    },
    {
      "constant": false,
      "inputs": [
        {
          "internalType": "uint256",
          "name": "_tournamentID",
          "type": "uint256"
        },
        {
          "internalType": "string",
          "name": "_name",
          "type": "string"
        },
        {
          "internalType": "uint32",
          "name": "_startTime",
          "type": "uint32"
        },
        {
          "internalType": "uint32",
          "name": "_endTime",
          "type": "uint32"
        }
      ],
      "name": "createTournament",
      "outputs": [],
      "payable": false,
      "stateMutability": "nonpayable",
      "type": "function"
    },
    {
      "constant": true,
      "inputs": [
        {
          "internalType": "uint256",
          "name": "_id",
          "type": "uint256"
        }
      ],
      "name": "getGolfer",
      "outputs": [
        {
          "internalType": "string",
          "name": "",
          "type": "string"
        },
        {
          "internalType": "uint256",
          "name": "",
          "type": "uint256"
        }
      ],
      "payable": false,
      "stateMutability": "view",
      "type": "function"
    },
    {
      "constant": true,
      "inputs": [
        {
          "internalType": "uint256",
          "name": "_golferID",
          "type": "uint256"
        }
      ],
      "name": "getGolferCost",
      "outputs": [
        {
          "internalType": "uint256",
          "name": "",
          "type": "uint256"
        }
      ],
      "payable": false,
      "stateMutability": "view",
      "type": "function"
    },
    {
      "constant": true,
      "inputs": [
        {
          "internalType": "uint256",
          "name": "_golferID",
          "type": "uint256"
        }
      ],
      "name": "getGolferName",
      "outputs": [
        {
          "internalType": "string",
          "name": "",
          "type": "string"
        }
      ],
      "payable": false,
      "stateMutability": "view",
      "type": "function"
    },
    {
      "constant": true,
      "inputs": [
        {
          "internalType": "uint256",
          "name": "_golferID",
          "type": "uint256"
        },
        {
          "internalType": "uint256",
          "name": "_tournamentID",
          "type": "uint256"
        }
      ],
      "name": "getGolferScore",
      "outputs": [
        {
          "internalType": "int256",
          "name": "",
          "type": "int256"
        }
      ],
      "payable": false,
      "stateMutability": "view",
      "type": "function"
    },
    {
      "constant": true,
      "inputs": [],
      "name": "getLeagueID",
      "outputs": [
        {
          "internalType": "uint256",
          "name": "",
          "type": "uint256"
        }
      ],
      "payable": false,
      "stateMutability": "view",
      "type": "function"
    },
    {
      "constant": true,
      "inputs": [
        {
          "internalType": "uint256",
          "name": "_leagueID",
          "type": "uint256"
        }
      ],
      "name": "getLeagueLeader",
      "outputs": [
        {
          "internalType": "address",
          "name": "",
          "type": "address"
        }
      ],
      "payable": false,
      "stateMutability": "view",
      "type": "function"
    },
    {
      "constant": true,
      "inputs": [],
      "name": "isOwner",
      "outputs": [
        {
          "internalType": "bool",
          "name": "",
          "type": "bool"
        }
      ],
      "payable": false,
      "stateMutability": "view",
      "type": "function"
    },
    {
      "constant": true,
      "inputs": [
        {
          "internalType": "uint256",
          "name": "",
          "type": "uint256"
        }
      ],
      "name": "leagues",
      "outputs": [
        {
          "internalType": "uint256",
          "name": "tournamentID",
          "type": "uint256"
        },
        {
          "internalType": "uint256",
          "name": "moneyPot",
          "type": "uint256"
        },
        {
          "internalType": "string",
          "name": "leagueName",
          "type": "string"
        }
      ],
      "payable": false,
      "stateMutability": "view",
      "type": "function"
    },
    {
      "constant": false,
      "inputs": [
        {
          "internalType": "uint256",
          "name": "_golferID",
          "type": "uint256"
        },
        {
          "internalType": "uint256",
          "name": "_newCost",
          "type": "uint256"
        }
      ],
      "name": "modifyGolferCost",
      "outputs": [],
      "payable": false,
      "stateMutability": "nonpayable",
      "type": "function"
    },
    {
      "constant": true,
      "inputs": [],
      "name": "owner",
      "outputs": [
        {
          "internalType": "address",
          "name": "",
          "type": "address"
        }
      ],
      "payable": false,
      "stateMutability": "view",
      "type": "function"
    },
    {
      "constant": false,
      "inputs": [],
      "name": "renounceOwnership",
      "outputs": [],
      "payable": false,
      "stateMutability": "nonpayable",
      "type": "function"
    },
    {
      "constant": false,
      "inputs": [
        {
          "internalType": "address",
          "name": "newOwner",
          "type": "address"
        }
      ],
      "name": "transferOwnership",
      "outputs": [],
      "payable": false,
      "stateMutability": "nonpayable",
      "type": "function"
    },
    {
      "constant": false,
      "inputs": [
        {
          "internalType": "uint256",
          "name": "_golferID",
          "type": "uint256"
        },
        {
          "internalType": "uint256",
          "name": "_tournamentID",
          "type": "uint256"
        },
        {
          "internalType": "int256",
          "name": "_score",
          "type": "int256"
        }
      ],
      "name": "updateGolferTournamentScore",
      "outputs": [],
      "payable": false,
      "stateMutability": "nonpayable",
      "type": "function"
    },
    {
      "constant": false,
      "inputs": [
        {
          "internalType": "uint256",
          "name": "_leagueID",
          "type": "uint256"
        }
      ],
      "name": "updateLeagueLeader",
      "outputs": [],
      "payable": false,
      "stateMutability": "nonpayable",
      "type": "function"
    },
    {
      "constant": false,
      "inputs": [
        {
          "internalType": "uint256",
          "name": "_tournamentID",
          "type": "uint256"
        },
        {
          "internalType": "uint32",
          "name": "_newEndTime",
          "type": "uint32"
        }
      ],
      "name": "updateTournamentEndTime",
      "outputs": [],
      "payable": false,
      "stateMutability": "nonpayable",
      "type": "function"
    },
    {
      "constant": false,
      "inputs": [
        {
          "internalType": "uint256",
          "name": "_tournamentID",
          "type": "uint256"
        },
        {
          "internalType": "uint32",
          "name": "_newStartTime",
          "type": "uint32"
        }
      ],
      "name": "updateTournamentStartTime",
      "outputs": [],
      "payable": false,
      "stateMutability": "nonpayable",
      "type": "function"
    },
    {
      "constant": false,
      "inputs": [
        {
          "internalType": "uint256",
          "name": "_tournamentID",
          "type": "uint256"
        }
      ],
      "name": "updateUserScores",
      "outputs": [],
      "payable": false,
      "stateMutability": "nonpayable",
      "type": "function"
    },
    {
      "constant": true,
      "inputs": [
        {
          "internalType": "uint256",
          "name": "_leagueID",
          "type": "uint256"
        }
      ],
      "name": "getLeagueMoneyPot",
      "outputs": [
        {
          "internalType": "uint256",
          "name": "",
          "type": "uint256"
        }
      ],
      "payable": false,
      "stateMutability": "view",
      "type": "function"
    },
    {
      "constant": false,
      "inputs": [
        {
          "internalType": "uint16[6]",
          "name": "_golferIDs",
          "type": "uint16[6]"
        },
        {
          "internalType": "uint32",
          "name": "_leagueID",
          "type": "uint32"
        }
      ],
      "name": "placeBet",
      "outputs": [],
      "payable": true,
      "stateMutability": "payable",
      "type": "function"
    },
    {
      "constant": false,
      "inputs": [
        {
          "internalType": "uint16",
          "name": "_golferID0",
          "type": "uint16"
        },
        {
          "internalType": "uint16",
          "name": "_golferID1",
          "type": "uint16"
        },
        {
          "internalType": "uint16",
          "name": "_golferID2",
          "type": "uint16"
        },
        {
          "internalType": "uint16",
          "name": "_golferID3",
          "type": "uint16"
        },
        {
          "internalType": "uint16",
          "name": "_golferID4",
          "type": "uint16"
        },
        {
          "internalType": "uint16",
          "name": "_golferID5",
          "type": "uint16"
        },
        {
          "internalType": "uint32",
          "name": "_leagueID",
          "type": "uint32"
        }
      ],
      "name": "placeBetNonArray",
      "outputs": [],
      "payable": true,
      "stateMutability": "payable",
      "type": "function"
    },
    {
      "constant": true,
      "inputs": [],
      "name": "getUserGolferIds",
      "outputs": [
        {
          "internalType": "uint16[6]",
          "name": "",
          "type": "uint16[6]"
        }
      ],
      "payable": false,
      "stateMutability": "view",
      "type": "function"
    },
    {
      "constant": false,
      "inputs": [
        {
          "internalType": "uint256",
          "name": "_leagueID",
          "type": "uint256"
        }
      ],
      "name": "withdrawEther",
      "outputs": [],
      "payable": false,
      "stateMutability": "nonpayable",
      "type": "function"
    },
    {
      "constant": true,
      "inputs": [],
      "name": "getBet",
      "outputs": [
        {
          "internalType": "uint16[6]",
          "name": "",
          "type": "uint16[6]"
        },
        {
          "internalType": "uint32",
          "name": "",
          "type": "uint32"
        },
        {
          "internalType": "int256",
          "name": "",
          "type": "int256"
        }
      ],
      "payable": false,
      "stateMutability": "view",
      "type": "function"
    }
  ],
  "bytecode": "0x6080604052735b0c9dc0afe417858dcc8db5269e47abc572aa77600160006101000a81548173ffffffffffffffffffffffffffffffffffffffff021916908373ffffffffffffffffffffffffffffffffffffffff160217905550600160009054906101000a900473ffffffffffffffffffffffffffffffffffffffff16600260006101000a81548173ffffffffffffffffffffffffffffffffffffffff021916908373ffffffffffffffffffffffffffffffffffffffff160217905550336000806101000a81548173ffffffffffffffffffffffffffffffffffffffff021916908373ffffffffffffffffffffffffffffffffffffffff1602179055506000809054906101000a900473ffffffffffffffffffffffffffffffffffffffff1673ffffffffffffffffffffffffffffffffffffffff16600073ffffffffffffffffffffffffffffffffffffffff167f8be0079c531659141344cd1fd0a4f28419497f9722a3daafe3b4186f6b6457e060405160405180910390a3613239806101876000396000f3fe6080604052600436106101b75760003560e01c8063755dda2d116100ec578063d5f21b8f1161008a578063eeea5c7e11610064578063eeea5c7e14610db1578063effd16be14610dfc578063f2fde38b14610e47578063fddb0aaa14610e98576101b7565b8063d5f21b8f14610aba578063e7650c8f14610ca7578063e8b0552e14610d62576101b7565b80638f32d59b116100c65780638f32d59b146108f55780638ff6e34914610924578063b399042b1461097d578063c648fefe146109f8576101b7565b8063755dda2d1461077157806381bbb705146108635780638da5cb5b1461089e576101b7565b806347212e6f116101595780634e959408116101335780634e9594081461067557806352dcdc0e146106a05780635abde83514610715578063715018a61461075a576101b7565b806347212e6f1461045e5780634850c3cc146105125780634a0b496714610561576101b7565b8063248690f611610195578063248690f6146102f957806325b0b5a91461034c5780633bed33ce146103d45780633c5ed33a1461040f576101b7565b806311d24a79146101bc57806320835e8c146101f757806322af00fa14610264575b600080fd5b3480156101c857600080fd5b506101f5600480360360208110156101df57600080fd5b8101908080359060200190929190505050610f74565b005b34801561020357600080fd5b5061020c610ff8565b6040518084600660200280838360005b8381101561023757808201518184015260208101905061021c565b505050509050018363ffffffff1663ffffffff168152602001828152602001935050505060405180910390f35b34801561027057600080fd5b5061029d6004803603602081101561028757600080fd5b8101908080359060200190929190505050611183565b604051808463ffffffff1663ffffffff1681526020018381526020018273ffffffffffffffffffffffffffffffffffffffff1673ffffffffffffffffffffffffffffffffffffffff168152602001935050505060405180910390f35b34801561030557600080fd5b5061030e6111ea565b6040518082600660200280838360005b8381101561033957808201518184015260208101905061031e565b5050505090500191505060405180910390f35b6103d2600480360360e081101561036257600080fd5b81019080803561ffff169060200190929190803561ffff169060200190929190803561ffff169060200190929190803561ffff169060200190929190803561ffff169060200190929190803561ffff169060200190929190803563ffffffff16906020019092919050505061135f565b005b3480156103e057600080fd5b5061040d600480360360208110156103f757600080fd5b8101908080359060200190929190505050611441565b005b34801561041b57600080fd5b5061045c6004803603606081101561043257600080fd5b8101908080359060200190929190803590602001909291908035906020019092919050505061159f565b005b34801561046a57600080fd5b506104976004803603602081101561048157600080fd5b81019080803590602001909291905050506116b0565b6040518080602001828103825283818151815260200191508051906020019080838360005b838110156104d75780820151818401526020810190506104bc565b50505050905090810190601f1680156105045780820380516001836020036101000a031916815260200191505b509250505060405180910390f35b34801561051e57600080fd5b5061054b6004803603602081101561053557600080fd5b810190808035906020019092919050505061178c565b6040518082815260200191505060405180910390f35b34801561056d57600080fd5b50610673600480360361010081101561058557600080fd5b8101908080359060200190929190803590602001906401000000008111156105ac57600080fd5b8201836020820111156105be57600080fd5b803590602001918460018302840111640100000000831117156105e057600080fd5b91908080601f016020809104026020016040519081016040528093929190818152602001838380828437600081840152601f19601f8201169050808301925050505050505091929192908060c001906006806020026040519081016040528092919082600660200280828437600081840152601f19601f82011690508083019250505050505091929192905050506117d0565b005b34801561068157600080fd5b5061068a611b69565b6040518082815260200191505060405180910390f35b610713600480360360e08110156106b657600080fd5b810190808060c001906006806020026040519081016040528092919082600660200280828437600081840152601f19601f8201169050808301925050505050509192919290803563ffffffff169060200190929190505050611bb0565b005b34801561072157600080fd5b506107586004803603604081101561073857600080fd5b810190808035906020019092919080359060200190929190505050611e0c565b005b34801561076657600080fd5b5061076f611e9f565b005b34801561077d57600080fd5b506108616004803603608081101561079457600080fd5b8101908080359060200190929190803590602001906401000000008111156107bb57600080fd5b8201836020820111156107cd57600080fd5b803590602001918460018302840111640100000000831117156107ef57600080fd5b91908080601f016020809104026020016040519081016040528093929190818152602001838380828437600081840152601f19601f820116905080830192505050505050509192919290803563ffffffff169060200190929190803563ffffffff169060200190929190505050611f6f565b005b34801561086f57600080fd5b5061089c6004803603602081101561088657600080fd5b8101908080359060200190929190505050612197565b005b3480156108aa57600080fd5b506108b3612453565b604051808273ffffffffffffffffffffffffffffffffffffffff1673ffffffffffffffffffffffffffffffffffffffff16815260200191505060405180910390f35b34801561090157600080fd5b5061090a61247c565b604051808215151515815260200191505060405180910390f35b34801561093057600080fd5b506109676004803603604081101561094757600080fd5b8101908080359060200190929190803590602001909291905050506124d3565b6040518082815260200191505060405180910390f35b34801561098957600080fd5b506109b6600480360360208110156109a057600080fd5b8101908080359060200190929190505050612505565b604051808273ffffffffffffffffffffffffffffffffffffffff1673ffffffffffffffffffffffffffffffffffffffff16815260200191505060405180910390f35b348015610a0457600080fd5b50610a3160048036036020811015610a1b57600080fd5b8101908080359060200190929190505050612542565b6040518084815260200183815260200180602001828103825283818151815260200191508051906020019080838360005b83811015610a7d578082015181840152602081019050610a62565b50505050905090810190601f168015610aaa5780820380516001836020036101000a031916815260200191505b5094505050505060405180910390f35b348015610ac657600080fd5b50610ca560048036036060811015610add57600080fd5b8101908080359060200190640100000000811115610afa57600080fd5b820183602082011115610b0c57600080fd5b80359060200191846020830284011164010000000083111715610b2e57600080fd5b919080806020026020016040519081016040528093929190818152602001838360200280828437600081840152601f19601f82011690508083019250505050505050919291929080359060200190640100000000811115610b8e57600080fd5b820183602082011115610ba057600080fd5b80359060200191846020830284011164010000000083111715610bc257600080fd5b919080806020026020016040519081016040528093929190818152602001838360200280828437600081840152601f19601f82011690508083019250505050505050919291929080359060200190640100000000811115610c2257600080fd5b820183602082011115610c3457600080fd5b80359060200191846020830284011164010000000083111715610c5657600080fd5b919080806020026020016040519081016040528093929190818152602001838360200280828437600081840152601f19601f820116905080830192505050505050509192919290505050612611565b005b348015610cb357600080fd5b50610ce060048036036020811015610cca57600080fd5b81019080803590602001909291905050506126ac565b6040518080602001838152602001828103825284818151815260200191508051906020019080838360005b83811015610d26578082015181840152602081019050610d0b565b50505050905090810190601f168015610d535780820380516001836020036101000a031916815260200191505b50935050505060405180910390f35b348015610d6e57600080fd5b50610d9b60048036036020811015610d8557600080fd5b8101908080359060200190929190505050612782565b6040518082815260200191505060405180910390f35b348015610dbd57600080fd5b50610dfa60048036036040811015610dd457600080fd5b8101908080359060200190929190803563ffffffff1690602001909291905050506127aa565b005b348015610e0857600080fd5b50610e4560048036036040811015610e1f57600080fd5b8101908080359060200190929190803563ffffffff16906020019092919050505061289f565b005b348015610e5357600080fd5b50610e9660048036036020811015610e6a57600080fd5b81019080803573ffffffffffffffffffffffffffffffffffffffff1690602001909291905050506129d2565b005b348015610ea457600080fd5b50610f7260048036036060811015610ebb57600080fd5b8101908080359060200190640100000000811115610ed857600080fd5b820183602082011115610eea57600080fd5b80359060200191846001830284011164010000000083111715610f0c57600080fd5b91908080601f016020809104026020016040519081016040528093929190818152602001838380828437600081840152601f19601f82011690508083019250505050505050919291929080359060200190929190803590602001909291905050506129ef565b005b610f9b60058281548110610f8457fe5b906000526020600020906003020160000154612197565b610fa481612bc4565b600b600083815260200190815260200160002060006101000a81548173ffffffffffffffffffffffffffffffffffffffff021916908373ffffffffffffffffffffffffffffffffffffffff16021790555050565b611000612fe2565b60008061100b613004565b6006600760003373ffffffffffffffffffffffffffffffffffffffff1673ffffffffffffffffffffffffffffffffffffffff168152602001908152602001600020548154811061105757fe5b9060005260206000209060040201604051806080016040529081600082016006806020026040519081016040528092919082600680156110d4576020028201916000905b82829054906101000a900461ffff1661ffff168152602001906002019060208260010104928301926001038202915080841161109b5790505b505050505081526020016001820160009054906101000a900463ffffffff1663ffffffff1663ffffffff168152602001600282015481526020016003820160009054906101000a900473ffffffffffffffffffffffffffffffffffffffff1673ffffffffffffffffffffffffffffffffffffffff1673ffffffffffffffffffffffffffffffffffffffff1681525050905080600001518160200151826040015182925093509350935050909192565b6006818154811061119057fe5b90600052602060002090600402016000915090508060010160009054906101000a900463ffffffff16908060020154908060030160009054906101000a900473ffffffffffffffffffffffffffffffffffffffff16905083565b6111f2612fe2565b6111fa613004565b6006600760003373ffffffffffffffffffffffffffffffffffffffff1673ffffffffffffffffffffffffffffffffffffffff168152602001908152602001600020548154811061124657fe5b9060005260206000209060040201604051806080016040529081600082016006806020026040519081016040528092919082600680156112c3576020028201916000905b82829054906101000a900461ffff1661ffff168152602001906002019060208260010104928301926001038202915080841161128a5790505b505050505081526020016001820160009054906101000a900463ffffffff1663ffffffff1663ffffffff168152602001600282015481526020016003820160009054906101000a900473ffffffffffffffffffffffffffffffffffffffff1673ffffffffffffffffffffffffffffffffffffffff1673ffffffffffffffffffffffffffffffffffffffff16815250509050806000015191505090565b611367612fe2565b878160006006811061137557fe5b602002019061ffff16908161ffff1681525050868160016006811061139657fe5b602002019061ffff16908161ffff168152505085816002600681106113b757fe5b602002019061ffff16908161ffff168152505084816003600681106113d857fe5b602002019061ffff16908161ffff168152505083816004600681106113f957fe5b602002019061ffff16908161ffff1681525050828160056006811061141a57fe5b602002019061ffff16908161ffff16815250506114378183611bb0565b5050505050505050565b6005818154811061144e57fe5b9060005260206000209060030201600001546003600082815260200190815260200160002060000160049054906101000a900463ffffffff1663ffffffff16421161149857600080fd5b6114a182610f74565b3373ffffffffffffffffffffffffffffffffffffffff16600b600084815260200190815260200160002060009054906101000a900473ffffffffffffffffffffffffffffffffffffffff1673ffffffffffffffffffffffffffffffffffffffff161461150c57600080fd5b60006005838154811061151b57fe5b906000526020600020906003020160010154905060006005848154811061153e57fe5b9060005260206000209060030201600101819055503373ffffffffffffffffffffffffffffffffffffffff166108fc829081150290604051600060405180830381858888f19350505050158015611599573d6000803e3d6000fd5b50505050565b6115a761247c565b6115b057600080fd5b82806004600083815260200190815260200160002060010154146115d357600080fd5b8260006003600083815260200190815260200160002060000160009054906101000a900463ffffffff1663ffffffff161161160d57600080fd5b60006003600083815260200190815260200160002060000160049054906101000a900463ffffffff1663ffffffff161161164657600080fd5b6000600360008381526020019081526020016000206002018054600181600116156101000203166002900490501161167d57600080fd5b82600460008781526020019081526020016000206002016000868152602001908152602001600020819055505050505050565b606081806004600083815260200190815260200160002060010154146116d557600080fd5b600460008481526020019081526020016000206000018054600181600116156101000203166002900480601f01602080910402602001604051908101604052809291908181526020018280546001816001161561010002031660029004801561177f5780601f106117545761010080835404028352916020019161177f565b820191906000526020600020905b81548152906001019060200180831161176257829003601f168201915b5050505050915050919050565b600081806004600083815260200190815260200160002060010154146117b157600080fd5b6004600084815260200190815260200160002060030154915050919050565b6000600c60003373ffffffffffffffffffffffffffffffffffffffff1673ffffffffffffffffffffffffffffffffffffffff168152602001908152602001600020541461181c57600080fd5b8260006003600083815260200190815260200160002060000160009054906101000a900463ffffffff1663ffffffff161161185657600080fd5b60006003600083815260200190815260200160002060000160049054906101000a900463ffffffff1663ffffffff161161188f57600080fd5b600060036000838152602001908152602001600020600201805460018160011615610100020316600290049050116118c657600080fd5b60006001600560405180606001604052808881526020016000815260200187815250908060018154018082558091505090600182039060005260206000209060030201600090919290919091506000820151816000015560208201518160010155604082015181600201908051906020019061194392919061304e565b50505003905080600860003373ffffffffffffffffffffffffffffffffffffffff1673ffffffffffffffffffffffffffffffffffffffff168152602001908152602001600020819055506001600c60003373ffffffffffffffffffffffffffffffffffffffff1673ffffffffffffffffffffffffffffffffffffffff16815260200190815260200160002060008282540192505081905550336009600083815260200190815260200160002060006101000a81548173ffffffffffffffffffffffffffffffffffffffff021916908373ffffffffffffffffffffffffffffffffffffffff16021790555084600a60008381526020019081526020016000208190555060008090505b6006811015611ab55781600d6000868460068110611a6557fe5b602002015173ffffffffffffffffffffffffffffffffffffffff1673ffffffffffffffffffffffffffffffffffffffff168152602001908152602001600020819055508080600101915050611a4b565b507fe7b7bffb910588abb6e9a5c1a8c4b9a1544cd5050d71d14b57f3b468ca0245e28185876040518084815260200180602001838152602001828103825284818151815260200191508051906020019080838360005b83811015611b26578082015181840152602081019050611b0b565b50505050905090810190601f168015611b535780820380516001836020036101000a031916815260200191505b5094505050505060405180910390a15050505050565b6000600d60003373ffffffffffffffffffffffffffffffffffffffff1673ffffffffffffffffffffffffffffffffffffffff16815260200190815260200160002054905090565b6000600760003373ffffffffffffffffffffffffffffffffffffffff1673ffffffffffffffffffffffffffffffffffffffff1681526020019081526020016000205414611bfc57600080fd5b81600080905060008090505b6006811015611c3f57611c2e838260068110611c2057fe5b602002015161ffff1661178c565b820191508080600101915050611c08565b50803414611c4c57600080fd5b8263ffffffff1660006001600660405180608001604052808981526020018863ffffffff168152602001600081526020013373ffffffffffffffffffffffffffffffffffffffff1681525090806001815401808255809150509060018203906000526020600020906004020160009091929091909150600082015181600001906006611cd99291906130ce565b5060208201518160010160006101000a81548163ffffffff021916908363ffffffff1602179055506040820151816002015560608201518160030160006101000a81548173ffffffffffffffffffffffffffffffffffffffff021916908373ffffffffffffffffffffffffffffffffffffffff160217905550505003905080600760003373ffffffffffffffffffffffffffffffffffffffff1673ffffffffffffffffffffffffffffffffffffffff168152602001908152602001600020819055503460058663ffffffff1681548110611daf57fe5b9060005260206000209060030201600101600082825401925050819055507fb4c55452b3a0fcd370281067a5378b1d6b0adb1584de15f43fbe8dd04021610b816040518082815260200191505060405180910390a1505050505050565b611e1461247c565b611e1d57600080fd5b8180600460008381526020019081526020016000206001015414611e4057600080fd5b8160046000858152602001908152602001600020600301819055507fc93f30e5608cb7d10da279088d68019a15a03744a41741842cfcaf68ad4511b58383604051808381526020018281526020019250505060405180910390a1505050565b611ea761247c565b611eb057600080fd5b600073ffffffffffffffffffffffffffffffffffffffff166000809054906101000a900473ffffffffffffffffffffffffffffffffffffffff1673ffffffffffffffffffffffffffffffffffffffff167f8be0079c531659141344cd1fd0a4f28419497f9722a3daafe3b4186f6b6457e060405160405180910390a360008060006101000a81548173ffffffffffffffffffffffffffffffffffffffff021916908373ffffffffffffffffffffffffffffffffffffffff160217905550565b611f7761247c565b611f8057600080fd5b8360006003600083815260200190815260200160002060020180546001816001161561010002031660029004905014611fb857600080fd5b60006003600083815260200190815260200160002060000160009054906101000a900463ffffffff1663ffffffff1614611ff157600080fd5b8263ffffffff16421061200357600080fd5b8263ffffffff168263ffffffff161161201b57600080fd5b6000851161202857600080fd5b60405180606001604052808463ffffffff1681526020018363ffffffff168152602001858152506003600087815260200190815260200160002060008201518160000160006101000a81548163ffffffff021916908363ffffffff16021790555060208201518160000160046101000a81548163ffffffff021916908363ffffffff16021790555060408201518160020190805190602001906120cc92919061304e565b509050507ff921e1476612bff3a21b96b63ae8a3ac03579129aad3ed13624285327365837c8585858560405180858152602001806020018463ffffffff1681526020018363ffffffff168152602001828103825285818151815260200191508051906020019080838360005b83811015612153578082015181840152602081019050612138565b50505050905090810190601f1680156121805780820380516001836020036101000a031916815260200191505b509550505050505060405180910390a15050505050565b60008090505b60068054905081101561244f576121b2613004565b600682815481106121bf57fe5b90600052602060002090600402016040518060800160405290816000820160068060200260405190810160405280929190826006801561223c576020028201916000905b82829054906101000a900461ffff1661ffff16815260200190600201906020826001010492830192600103820291508084116122035790505b505050505081526020016001820160009054906101000a900463ffffffff1663ffffffff1663ffffffff168152602001600282015481526020016003820160009054906101000a900473ffffffffffffffffffffffffffffffffffffffff1673ffffffffffffffffffffffffffffffffffffffff1673ffffffffffffffffffffffffffffffffffffffff168152505090506122d561316b565b6005826020015163ffffffff16815481106122ec57fe5b90600052602060002090600302016040518060600160405290816000820154815260200160018201548152602001600282018054600181600116156101000203166002900480601f0160208091040260200160405190810160405280929190818152602001828054600181600116156101000203166002900480156123b25780601f10612387576101008083540402835291602001916123b2565b820191906000526020600020905b81548152906001019060200180831161239557829003601f168201915b5050505050815250509050600082604001519050848260000151141561241c5760008090505b836000015150600681101561241a57612409846000015182600681106123fa57fe5b602002015161ffff16876124d3565b8201915080806001019150506123d8565b505b806006858154811061242a57fe5b906000526020600020906004020160020181905550505050808060010191505061219d565b5050565b60008060009054906101000a900473ffffffffffffffffffffffffffffffffffffffff16905090565b60008060009054906101000a900473ffffffffffffffffffffffffffffffffffffffff1673ffffffffffffffffffffffffffffffffffffffff163373ffffffffffffffffffffffffffffffffffffffff1614905090565b600060046000848152602001908152602001600020600201600083815260200190815260200160002054905092915050565b6000600b600083815260200190815260200160002060009054906101000a900473ffffffffffffffffffffffffffffffffffffffff169050919050565b6005818154811061254f57fe5b9060005260206000209060030201600091509050806000015490806001015490806002018054600181600116156101000203166002900480601f0160208091040260200160405190810160405280929190818152602001828054600181600116156101000203166002900480156126075780601f106125dc57610100808354040283529160200191612607565b820191906000526020600020905b8154815290600101906020018083116125ea57829003601f168201915b5050505050905083565b61261961247c565b61262257600080fd5b815183511461263057600080fd5b805183511461263e57600080fd5b60008090505b83518110156126a65761269961266c85838151811061265f57fe5b6020026020010151612d57565b84838151811061267857fe5b602002602001015184848151811061268c57fe5b60200260200101516129ef565b8080600101915050612644565b50505050565b60606000600460008481526020019081526020016000206000016004600085815260200190815260200160002060030154818054600181600116156101000203166002900480601f0160208091040260200160405190810160405280929190818152602001828054600181600116156101000203166002900480156127725780601f1061274757610100808354040283529160200191612772565b820191906000526020600020905b81548152906001019060200180831161275557829003601f168201915b5050505050915091509150915091565b60006005828154811061279157fe5b9060005260206000209060030201600101549050919050565b6127b261247c565b6127bb57600080fd5b8160006003600083815260200190815260200160002060000160009054906101000a900463ffffffff1663ffffffff16116127f557600080fd5b60006003600083815260200190815260200160002060000160049054906101000a900463ffffffff1663ffffffff161161282e57600080fd5b6000600360008381526020019081526020016000206002018054600181600116156101000203166002900490501161286557600080fd5b816003600085815260200190815260200160002060000160046101000a81548163ffffffff021916908363ffffffff160217905550505050565b6128a761247c565b6128b057600080fd5b8160006003600083815260200190815260200160002060000160009054906101000a900463ffffffff1663ffffffff16116128ea57600080fd5b60006003600083815260200190815260200160002060000160049054906101000a900463ffffffff1663ffffffff161161292357600080fd5b6000600360008381526020019081526020016000206002018054600181600116156101000203166002900490501161295a57600080fd5b6003600084815260200190815260200160002060000160009054906101000a900463ffffffff1663ffffffff168263ffffffff161161299857600080fd5b816003600085815260200190815260200160002060000160006101000a81548163ffffffff021916908363ffffffff160217905550505050565b6129da61247c565b6129e357600080fd5b6129ec81612eea565b50565b6129f761247c565b612a0057600080fd5b816000600460008381526020019081526020016000206003015414612a2457600080fd5b6000600460008381526020019081526020016000206001015414612a4757600080fd5b60006004600083815260200190815260200160002060000180546001816001161561010002031660029004905014612a7e57600080fd5b6000845111612a8c57600080fd5b60008311612a9957600080fd5b60008211612aa657600080fd5b6040518060600160405280858152602001848152602001670de0b6b3a76400008402815250600460008581526020019081526020016000206000820151816000019080519060200190612afa92919061304e565b5060208201518160010155604082015181600301559050507f316e331d8ddc20f2a441eb5d779933dabf9d87c1f3d2010f4f566d6b07e645ff8385846040518084815260200180602001838152602001828103825284818151815260200191508051906020019080838360005b83811015612b82578082015181840152602081019050612b67565b50505050905090810190601f168015612baf5780820380516001836020036101000a031916815260200191505b5094505050505060405180910390a150505050565b60008060ff6001901b90506000819050600080905060008090505b600680549050811015612d4b57612bf4613004565b60068281548110612c0157fe5b906000526020600020906004020160405180608001604052908160008201600680602002604051908101604052809291908260068015612c7e576020028201916000905b82829054906101000a900461ffff1661ffff1681526020019060020190602082600101049283019260010382029150808411612c455790505b505050505081526020016001820160009054906101000a900463ffffffff1663ffffffff1663ffffffff168152602001600282015481526020016003820160009054906101000a900473ffffffffffffffffffffffffffffffffffffffff1673ffffffffffffffffffffffffffffffffffffffff1673ffffffffffffffffffffffffffffffffffffffff1681525050905086816020015163ffffffff161415612d3d578381604001511315612d3c5780604001519350806060015192505b5b508080600101915050612bdf565b50809350505050919050565b60608060206040519080825280601f01601f191660200182016040528015612d8e5781602001600182028038833980820191505090505b509050600080905060008090505b6020811015612e385760008160080260020a8660001c0260001b9050600060f81b817effffffffffffffffffffffffffffffffffffffffffffffffffffffffffffff191614612e2a5780848481518110612df257fe5b60200101907effffffffffffffffffffffffffffffffffffffffffffffffffffffffffffff1916908160001a90535082806001019350505b508080600101915050612d9c565b506060816040519080825280601f01601f191660200182016040528015612e6e5781602001600182028038833980820191505090505b50905060008090505b82811015612ede57838181518110612e8b57fe5b602001015160f81c60f81b828281518110612ea257fe5b60200101907effffffffffffffffffffffffffffffffffffffffffffffffffffffffffffff1916908160001a9053508080600101915050612e77565b50809350505050919050565b600073ffffffffffffffffffffffffffffffffffffffff168173ffffffffffffffffffffffffffffffffffffffff161415612f2457600080fd5b8073ffffffffffffffffffffffffffffffffffffffff166000809054906101000a900473ffffffffffffffffffffffffffffffffffffffff1673ffffffffffffffffffffffffffffffffffffffff167f8be0079c531659141344cd1fd0a4f28419497f9722a3daafe3b4186f6b6457e060405160405180910390a3806000806101000a81548173ffffffffffffffffffffffffffffffffffffffff021916908373ffffffffffffffffffffffffffffffffffffffff16021790555050565b6040518060c00160405280600690602082028038833980820191505090505090565b604051806080016040528061301761318c565b8152602001600063ffffffff16815260200160008152602001600073ffffffffffffffffffffffffffffffffffffffff1681525090565b828054600181600116156101000203166002900490600052602060002090601f016020900481019282601f1061308f57805160ff19168380011785556130bd565b828001600101855582156130bd579182015b828111156130bc5782518255916020019190600101906130a1565b5b5090506130ca91906131ae565b5090565b826006600f0160109004810192821561315a5791602002820160005b8382111561312a57835183826101000a81548161ffff021916908361ffff16021790555092602001926002016020816001010492830192600103026130ea565b80156131585782816101000a81549061ffff021916905560020160208160010104928301926001030261312a565b505b50905061316791906131d3565b5090565b60405180606001604052806000815260200160008152602001606081525090565b6040518060c00160405280600690602082028038833980820191505090505090565b6131d091905b808211156131cc5760008160009055506001016131b4565b5090565b90565b61320191905b808211156131fd57600081816101000a81549061ffff0219169055506001016131d9565b5090565b9056fea265627a7a723158208c5ac8c5a1802521df9aaca5d2657e34a0ec3ce487fd34a77fff7bc0b7b8c97f64736f6c63430005100032",
  "source": "pragma solidity >=0.4.22 <0.6.0;\n\n\nimport \"./LeagueOwnership.sol\";\n\ncontract League is LeagueOwnership {\n    event NewBet(uint betID);\n\n    \n\n    function getLeagueMoneyPot(uint _leagueID) public view returns(uint){\n      return leagues[_leagueID].moneyPot;\n    }\n\n    function placeBet(uint16[6] memory _golferIDs, uint32 _leagueID) public payable  noActiveBets correctEthValue(_golferIDs) leagueExists(_leagueID){\n        uint id = bets.push(Bet(_golferIDs, _leagueID, 0, msg.sender )) - 1;\n        userToBet[msg.sender] = id;\n        leagues[_leagueID].moneyPot += msg.value;\n        emit NewBet(id);\n    }\n\n    function placeBetNonArray(uint16 _golferID0, uint16 _golferID1, uint16 _golferID2, uint16 _golferID3, uint16 _golferID4, uint16 _golferID5, uint32 _leagueID ) public payable{\n      uint16[6] memory _golferIDs;\n      _golferIDs[0] = _golferID0;\n      _golferIDs[1] = _golferID1;\n      _golferIDs[2] = _golferID2;\n      _golferIDs[3] = _golferID3;\n      _golferIDs[4] = _golferID4;\n      _golferIDs[5] = _golferID5;\n      placeBet(_golferIDs, _leagueID);\n    }\n\n    function getUserGolferIds() public view returns(uint16[6] memory){\n      Bet memory bet = bets[userToBet[msg.sender]];\n      return bet.golferIDs;\n    }\n\n    function withdrawEther(uint _leagueID) public tournamentOver(leagues[_leagueID].tournamentID)  {\n        updateLeagueLeader(_leagueID);\n        require(leagueIDtoLeagueLeader[_leagueID] == msg.sender);\n        uint valueToSend = leagues[_leagueID].moneyPot;\n        leagues[_leagueID].moneyPot = 0;\n        msg.sender.transfer(valueToSend);\n    }\n\n    function getBet() public view returns (uint16[6] memory, uint32, int){\n        Bet memory bet = bets[userToBet[msg.sender]];\n        return (bet.golferIDs, bet.leagueID, bet.totalScore);\n    }\n\n    modifier noActiveBets()  {\n        require(userToBet[msg.sender] == 0);\n        _;\n    }\n\n    modifier correctEthValue(uint16[6] memory _golferIDs){\n\n        uint totalCostInWei = 0;\n        for (uint i = 0; i < _golferIDs.length; i++){\n            totalCostInWei += getGolferCost(_golferIDs[i]);\n        }\n\n        require(msg.value == totalCostInWei);\n        _;\n    }\n\n    modifier leagueExists(uint _leagueID){\n      //TODO\n      _;\n    }\n\n\n}\n",
  "sourcePath": "/home/dennon/CS481/blockchain-fantasy-golf/contracts/League.sol",
  "compiler": {
    "name": "solc",
    "version": "0.5.16+commit.9c3226ce.Emscripten.clang"
  },
  "schemaVersion": "3.0.23",
  "updatedAt": "2020-05-02T03:23:11.726Z",
  "devdoc": {
    "methods": {
      "isOwner()": {
        "return": "true if `msg.sender` is the owner of the contract."
      },
      "owner()": {
        "return": "the address of the owner."
      },
      "renounceOwnership()": {
        "details": "Allows the current owner to relinquish control of the contract."
      },
      "transferOwnership(address)": {
        "details": "Allows the current owner to transfer control of the contract to a newOwner.",
        "params": {
          "newOwner": "The address to transfer ownership to."
        }
      }
    }
  },
  "userdoc": {
    "methods": {
      "renounceOwnership()": {
        "notice": "Renouncing to ownership will leave the contract without an owner. It will not be possible to call the functions with the `onlyOwner` modifier anymore."
      }
    }
  }
}