{
  "contractName": "League",
  "abi": [
    {
      "anonymous": false,
      "inputs": [
        {
          "indexed": false,
          "internalType": "uint256",
          "name": "golferID",
          "type": "uint256"
        },
        {
          "indexed": false,
          "internalType": "uint256",
          "name": "newCost",
          "type": "uint256"
        }
      ],
      "name": "GolferCostUpdated",
      "type": "event"
    },
    {
      "anonymous": false,
      "inputs": [
        {
          "indexed": false,
          "internalType": "uint256",
          "name": "betID",
          "type": "uint256"
        }
      ],
      "name": "NewBet",
      "type": "event"
    },
    {
      "anonymous": false,
      "inputs": [
        {
          "indexed": false,
          "internalType": "uint256",
          "name": "golferID",
          "type": "uint256"
        },
        {
          "indexed": false,
          "internalType": "string",
          "name": "name",
          "type": "string"
        },
        {
          "indexed": false,
          "internalType": "uint256",
          "name": "cost",
          "type": "uint256"
        }
      ],
      "name": "NewGolfer",
      "type": "event"
    },
    {
      "anonymous": false,
      "inputs": [
        {
          "indexed": false,
          "internalType": "uint256",
          "name": "leagueID",
          "type": "uint256"
        },
        {
          "indexed": false,
          "internalType": "string",
          "name": "leagueName",
          "type": "string"
        },
        {
          "indexed": false,
          "internalType": "uint256",
          "name": "tournamentID",
          "type": "uint256"
        }
      ],
      "name": "NewLeague",
      "type": "event"
    },
    {
      "anonymous": false,
      "inputs": [
        {
          "indexed": true,
          "internalType": "address",
          "name": "previousOwner",
          "type": "address"
        },
        {
          "indexed": true,
          "internalType": "address",
          "name": "newOwner",
          "type": "address"
        }
      ],
      "name": "OwnershipTransferred",
      "type": "event"
    },
    {
      "anonymous": false,
      "inputs": [
        {
          "indexed": false,
          "internalType": "uint256",
          "name": "tournamentID",
          "type": "uint256"
        },
        {
          "indexed": false,
          "internalType": "string",
          "name": "name",
          "type": "string"
        },
        {
          "indexed": false,
          "internalType": "uint256",
          "name": "startTime",
          "type": "uint256"
        },
        {
          "indexed": false,
          "internalType": "uint256",
          "name": "endTime",
          "type": "uint256"
        }
      ],
      "name": "TournamentCreated",
      "type": "event"
    },
    {
      "constant": true,
      "inputs": [
        {
          "internalType": "uint256",
          "name": "",
          "type": "uint256"
        }
      ],
      "name": "bets",
      "outputs": [
        {
          "internalType": "uint32",
          "name": "leagueID",
          "type": "uint32"
        },
        {
          "internalType": "int256",
          "name": "totalScore",
          "type": "int256"
        },
        {
          "internalType": "address",
          "name": "user",
          "type": "address"
        }
      ],
      "payable": false,
      "stateMutability": "view",
      "type": "function"
    },
    {
      "constant": false,
      "inputs": [
        {
          "internalType": "string",
          "name": "_name",
          "type": "string"
        },
        {
          "internalType": "uint256",
          "name": "_id",
          "type": "uint256"
        },
        {
          "internalType": "uint256",
          "name": "_cost",
          "type": "uint256"
        }
      ],
      "name": "createGolfer",
      "outputs": [],
      "payable": false,
      "stateMutability": "nonpayable",
      "type": "function"
    },
    {
      "constant": false,
      "inputs": [
        {
          "internalType": "bytes32[]",
          "name": "_names",
          "type": "bytes32[]"
        },
        {
          "internalType": "uint256[]",
          "name": "_ids",
          "type": "uint256[]"
        },
        {
          "internalType": "uint256[]",
          "name": "_costs",
          "type": "uint256[]"
        }
      ],
      "name": "createGolfers",
      "outputs": [],
      "payable": false,
      "stateMutability": "nonpayable",
      "type": "function"
    },
    {
      "constant": false,
      "inputs": [
        {
          "internalType": "uint256",
          "name": "_tournamentID",
          "type": "uint256"
        },
        {
          "internalType": "string",
          "name": "_leagueName",
          "type": "string"
        },
        {
          "internalType": "address[6]",
          "name": "userAddresses",
          "type": "address[6]"
        }
      ],
      "name": "createLeague",
      "outputs": [],
      "payable": false,
      "stateMutability": "nonpayable",
      "type": "function"
    },
    {
      "constant": false,
      "inputs": [
        {
          "internalType": "uint256",
          "name": "_tournamentID",
          "type": "uint256"
        },
        {
          "internalType": "string",
          "name": "_leagueName",
          "type": "string"
        },
        {
          "internalType": "address",
          "name": "_userAddress0",
          "type": "address"
        },
        {
          "internalType": "address",
          "name": "_userAddress1",
          "type": "address"
        },
        {
          "internalType": "address",
          "name": "_userAddress2",
          "type": "address"
        },
        {
          "internalType": "address",
          "name": "_userAddress3",
          "type": "address"
        },
        {
          "internalType": "address",
          "name": "_userAddress4",
          "type": "address"
        },
        {
          "internalType": "address",
          "name": "_userAddress5",
          "type": "address"
        }
      ],
      "name": "createLeagueNonArray",
      "outputs": [],
      "payable": false,
      "stateMutability": "nonpayable",
      "type": "function"
    },
    {
      "constant": false,
      "inputs": [
        {
          "internalType": "uint256",
          "name": "_tournamentID",
          "type": "uint256"
        },
        {
          "internalType": "string",
          "name": "_name",
          "type": "string"
        },
        {
          "internalType": "uint256",
          "name": "_startTime",
          "type": "uint256"
        },
        {
          "internalType": "uint256",
          "name": "_endTime",
          "type": "uint256"
        }
      ],
      "name": "createTournament",
      "outputs": [],
      "payable": false,
      "stateMutability": "nonpayable",
      "type": "function"
    },
    {
      "constant": false,
      "inputs": [
        {
          "internalType": "uint256",
          "name": "_tournamentID",
          "type": "uint256"
        }
      ],
      "name": "endTournament",
      "outputs": [],
      "payable": false,
      "stateMutability": "nonpayable",
      "type": "function"
    },
    {
      "constant": true,
      "inputs": [
        {
          "internalType": "uint256",
          "name": "_id",
          "type": "uint256"
        }
      ],
      "name": "getGolfer",
      "outputs": [
        {
          "internalType": "string",
          "name": "",
          "type": "string"
        },
        {
          "internalType": "uint256",
          "name": "",
          "type": "uint256"
        }
      ],
      "payable": false,
      "stateMutability": "view",
      "type": "function"
    },
    {
      "constant": true,
      "inputs": [
        {
          "internalType": "uint256",
          "name": "_golferID",
          "type": "uint256"
        }
      ],
      "name": "getGolferCost",
      "outputs": [
        {
          "internalType": "uint256",
          "name": "",
          "type": "uint256"
        }
      ],
      "payable": false,
      "stateMutability": "view",
      "type": "function"
    },
    {
      "constant": true,
      "inputs": [
        {
          "internalType": "uint256",
          "name": "_golferID",
          "type": "uint256"
        }
      ],
      "name": "getGolferName",
      "outputs": [
        {
          "internalType": "string",
          "name": "",
          "type": "string"
        }
      ],
      "payable": false,
      "stateMutability": "view",
      "type": "function"
    },
    {
      "constant": true,
      "inputs": [
        {
          "internalType": "uint256",
          "name": "_golferID",
          "type": "uint256"
        },
        {
          "internalType": "uint256",
          "name": "_tournamentID",
          "type": "uint256"
        }
      ],
      "name": "getGolferScore",
      "outputs": [
        {
          "internalType": "int256",
          "name": "",
          "type": "int256"
        }
      ],
      "payable": false,
      "stateMutability": "view",
      "type": "function"
    },
    {
      "constant": true,
      "inputs": [],
      "name": "getLeagueID",
      "outputs": [
        {
          "internalType": "uint256",
          "name": "",
          "type": "uint256"
        }
      ],
      "payable": false,
      "stateMutability": "view",
      "type": "function"
    },
    {
      "constant": true,
      "inputs": [
        {
          "internalType": "uint256",
          "name": "_leagueID",
          "type": "uint256"
        }
      ],
      "name": "getLeagueLeader",
      "outputs": [
        {
          "internalType": "address",
          "name": "",
          "type": "address"
        }
      ],
      "payable": false,
      "stateMutability": "view",
      "type": "function"
    },
    {
      "constant": true,
      "inputs": [],
      "name": "isOwner",
      "outputs": [
        {
          "internalType": "bool",
          "name": "",
          "type": "bool"
        }
      ],
      "payable": false,
      "stateMutability": "view",
      "type": "function"
    },
    {
      "constant": true,
      "inputs": [
        {
          "internalType": "uint256",
          "name": "",
          "type": "uint256"
        }
      ],
      "name": "leagues",
      "outputs": [
        {
          "internalType": "uint256",
          "name": "tournamentID",
          "type": "uint256"
        },
        {
          "internalType": "uint256",
          "name": "moneyPot",
          "type": "uint256"
        },
        {
          "internalType": "string",
          "name": "leagueName",
          "type": "string"
        }
      ],
      "payable": false,
      "stateMutability": "view",
      "type": "function"
    },
    {
      "constant": false,
      "inputs": [
        {
          "internalType": "uint256",
          "name": "_golferID",
          "type": "uint256"
        },
        {
          "internalType": "uint256",
          "name": "_newCost",
          "type": "uint256"
        }
      ],
      "name": "modifyGolferCost",
      "outputs": [],
      "payable": false,
      "stateMutability": "nonpayable",
      "type": "function"
    },
    {
      "constant": true,
      "inputs": [],
      "name": "owner",
      "outputs": [
        {
          "internalType": "address",
          "name": "",
          "type": "address"
        }
      ],
      "payable": false,
      "stateMutability": "view",
      "type": "function"
    },
    {
      "constant": false,
      "inputs": [],
      "name": "renounceOwnership",
      "outputs": [],
      "payable": false,
      "stateMutability": "nonpayable",
      "type": "function"
    },
    {
      "constant": false,
      "inputs": [
        {
          "internalType": "uint256",
          "name": "_tournamentID",
          "type": "uint256"
        }
      ],
      "name": "startTournament",
      "outputs": [],
      "payable": false,
      "stateMutability": "nonpayable",
      "type": "function"
    },
    {
      "constant": false,
      "inputs": [
        {
          "internalType": "address",
          "name": "newOwner",
          "type": "address"
        }
      ],
      "name": "transferOwnership",
      "outputs": [],
      "payable": false,
      "stateMutability": "nonpayable",
      "type": "function"
    },
    {
      "constant": false,
      "inputs": [
        {
          "internalType": "uint256",
          "name": "_golferID",
          "type": "uint256"
        },
        {
          "internalType": "uint256",
          "name": "_tournamentID",
          "type": "uint256"
        },
        {
          "internalType": "int256",
          "name": "_score",
          "type": "int256"
        }
      ],
      "name": "updateGolferTournamentScore",
      "outputs": [],
      "payable": false,
      "stateMutability": "nonpayable",
      "type": "function"
    },
    {
      "constant": false,
      "inputs": [
        {
          "internalType": "uint256",
          "name": "_leagueID",
          "type": "uint256"
        }
      ],
      "name": "updateLeagueLeader",
      "outputs": [],
      "payable": false,
      "stateMutability": "nonpayable",
      "type": "function"
    },
    {
      "constant": false,
      "inputs": [
        {
          "internalType": "uint256",
          "name": "_tournamentID",
          "type": "uint256"
        },
        {
          "internalType": "uint256",
          "name": "_newEndTime",
          "type": "uint256"
        }
      ],
      "name": "updateTournamentEndTime",
      "outputs": [],
      "payable": false,
      "stateMutability": "nonpayable",
      "type": "function"
    },
    {
      "constant": false,
      "inputs": [
        {
          "internalType": "uint256",
          "name": "_tournamentID",
          "type": "uint256"
        },
        {
          "internalType": "uint256",
          "name": "_newStartTime",
          "type": "uint256"
        }
      ],
      "name": "updateTournamentStartTime",
      "outputs": [],
      "payable": false,
      "stateMutability": "nonpayable",
      "type": "function"
    },
    {
      "constant": false,
      "inputs": [
        {
          "internalType": "uint256",
          "name": "_tournamentID",
          "type": "uint256"
        }
      ],
      "name": "updateUserScores",
      "outputs": [],
      "payable": false,
      "stateMutability": "nonpayable",
      "type": "function"
    },
    {
      "constant": true,
      "inputs": [
        {
          "internalType": "uint256",
          "name": "_leagueID",
          "type": "uint256"
        }
      ],
      "name": "getLeagueMoneyPot",
      "outputs": [
        {
          "internalType": "uint256",
          "name": "",
          "type": "uint256"
        }
      ],
      "payable": false,
      "stateMutability": "view",
      "type": "function"
    },
    {
      "constant": false,
      "inputs": [
        {
          "internalType": "uint16[6]",
          "name": "_golferIDs",
          "type": "uint16[6]"
        },
        {
          "internalType": "uint32",
          "name": "_leagueID",
          "type": "uint32"
        }
      ],
      "name": "placeBet",
      "outputs": [],
      "payable": true,
      "stateMutability": "payable",
      "type": "function"
    },
    {
      "constant": false,
      "inputs": [
        {
          "internalType": "uint16",
          "name": "_golferID0",
          "type": "uint16"
        },
        {
          "internalType": "uint16",
          "name": "_golferID1",
          "type": "uint16"
        },
        {
          "internalType": "uint16",
          "name": "_golferID2",
          "type": "uint16"
        },
        {
          "internalType": "uint16",
          "name": "_golferID3",
          "type": "uint16"
        },
        {
          "internalType": "uint16",
          "name": "_golferID4",
          "type": "uint16"
        },
        {
          "internalType": "uint16",
          "name": "_golferID5",
          "type": "uint16"
        },
        {
          "internalType": "uint32",
          "name": "_leagueID",
          "type": "uint32"
        }
      ],
      "name": "placeBetNonArray",
      "outputs": [],
      "payable": true,
      "stateMutability": "payable",
      "type": "function"
    },
    {
      "constant": true,
      "inputs": [],
      "name": "getUserGolferIds",
      "outputs": [
        {
          "internalType": "uint16[6]",
          "name": "",
          "type": "uint16[6]"
        }
      ],
      "payable": false,
      "stateMutability": "view",
      "type": "function"
    },
    {
      "constant": false,
      "inputs": [
        {
          "internalType": "uint256",
          "name": "_leagueID",
          "type": "uint256"
        }
      ],
      "name": "withdrawEther",
      "outputs": [],
      "payable": false,
      "stateMutability": "nonpayable",
      "type": "function"
    },
    {
      "constant": true,
      "inputs": [],
      "name": "getBet",
      "outputs": [
        {
          "internalType": "uint16[6]",
          "name": "",
          "type": "uint16[6]"
        },
        {
          "internalType": "uint32",
          "name": "",
          "type": "uint32"
        },
        {
          "internalType": "int256",
          "name": "",
          "type": "int256"
        }
      ],
      "payable": false,
      "stateMutability": "view",
      "type": "function"
    },
    {
      "constant": true,
      "inputs": [
        {
          "internalType": "uint32",
          "name": "_leagueID",
          "type": "uint32"
        }
      ],
      "name": "getBets",
      "outputs": [
        {
          "internalType": "address[6]",
          "name": "",
          "type": "address[6]"
        },
        {
          "internalType": "uint16[6][6]",
          "name": "",
          "type": "uint16[6][6]"
        },
        {
          "internalType": "int256[6]",
          "name": "",
          "type": "int256[6]"
        }
      ],
      "payable": false,
      "stateMutability": "view",
      "type": "function"
    }
  ],
  "bytecode": "0x6080604052735b0c9dc0afe417858dcc8db5269e47abc572aa77600160006101000a81548173ffffffffffffffffffffffffffffffffffffffff021916908373ffffffffffffffffffffffffffffffffffffffff160217905550600160009054906101000a900473ffffffffffffffffffffffffffffffffffffffff16600260006101000a81548173ffffffffffffffffffffffffffffffffffffffff021916908373ffffffffffffffffffffffffffffffffffffffff160217905550336000806101000a81548173ffffffffffffffffffffffffffffffffffffffff021916908373ffffffffffffffffffffffffffffffffffffffff1602179055506000809054906101000a900473ffffffffffffffffffffffffffffffffffffffff1673ffffffffffffffffffffffffffffffffffffffff16600073ffffffffffffffffffffffffffffffffffffffff167f8be0079c531659141344cd1fd0a4f28419497f9722a3daafe3b4186f6b6457e060405160405180910390a36139a3806101876000396000f3fe6080604052600436106101e35760003560e01c8063651ea94311610102578063b399042b11610095578063e7650c8f11610064578063e7650c8f14611058578063e8b0552e14611113578063f2fde38b14611162578063fddb0aaa146111b3576101e3565b8063b399042b14610ce9578063c648fefe14610d64578063cf1982e714610e26578063d5f21b8f14610e6b576101e3565b80638da5cb5b116100d15780638da5cb5b14610bcf5780638f32d59b14610c265780638ff6e34914610c55578063aa3b47c014610cae576101e3565b8063651ea94314610afd578063715018a614610b38578063751f353914610b4f57806381bbb70514610b94576101e3565b80633bed33ce1161017a5780634a0b4967116101495780634a0b4967146109045780634e95940814610a1857806352dcdc0e14610a435780635abde83514610ab8576101e3565b80633bed33ce146107775780633c5ed33a146107b257806347212e6f146108015780634850c3cc146108b5576101e3565b806320835e8c116101b657806320835e8c1461059a57806322af00fa14610607578063248690f61461069c57806325b0b5a9146106ef576101e3565b806304fc7695146101e8578063091c70f8146102ce57806311d24a79146103cc5780631d34f0c414610407575b600080fd5b3480156101f457600080fd5b506102cc6004803603608081101561020b57600080fd5b81019080803590602001909291908035906020019064010000000081111561023257600080fd5b82018360208201111561024457600080fd5b8035906020019184600183028401116401000000008311171561026657600080fd5b91908080601f016020809104026020016040519081016040528093929190818152602001838380828437600081840152601f19601f820116905080830192505050505050509192919290803590602001909291908035906020019092919050505061128f565b005b3480156102da57600080fd5b5061030d600480360360208110156102f157600080fd5b81019080803563ffffffff16906020019092919050505061143d565b6040518084600660200280838360005b8381101561033857808201518184015260208101905061031d565b505050509050018360066000925b8184101561038c5782846020020151600660200280838360005b8381101561037b578082015181840152602081019050610360565b505050509050019260010192610346565b9250505082600660200280838360005b838110156103b757808201518184015260208101905061039c565b50505050905001935050505060405180910390f35b3480156103d857600080fd5b50610405600480360360208110156103ef57600080fd5b81019080803590602001909291905050506116d0565b005b34801561041357600080fd5b50610598600480360361010081101561042b57600080fd5b81019080803590602001909291908035906020019064010000000081111561045257600080fd5b82018360208201111561046457600080fd5b8035906020019184600183028401116401000000008311171561048657600080fd5b91908080601f016020809104026020016040519081016040528093929190818152602001838380828437600081840152601f19601f820116905080830192505050505050509192919290803573ffffffffffffffffffffffffffffffffffffffff169060200190929190803573ffffffffffffffffffffffffffffffffffffffff169060200190929190803573ffffffffffffffffffffffffffffffffffffffff169060200190929190803573ffffffffffffffffffffffffffffffffffffffff169060200190929190803573ffffffffffffffffffffffffffffffffffffffff169060200190929190803573ffffffffffffffffffffffffffffffffffffffff169060200190929190505050611754565b005b3480156105a657600080fd5b506105af611910565b6040518084600660200280838360005b838110156105da5780820151818401526020810190506105bf565b505050509050018363ffffffff1663ffffffff168152602001828152602001935050505060405180910390f35b34801561061357600080fd5b506106406004803603602081101561062a57600080fd5b8101908080359060200190929190505050611a9b565b604051808463ffffffff1663ffffffff1681526020018381526020018273ffffffffffffffffffffffffffffffffffffffff1673ffffffffffffffffffffffffffffffffffffffff168152602001935050505060405180910390f35b3480156106a857600080fd5b506106b1611b02565b6040518082600660200280838360005b838110156106dc5780820151818401526020810190506106c1565b5050505090500191505060405180910390f35b610775600480360360e081101561070557600080fd5b81019080803561ffff169060200190929190803561ffff169060200190929190803561ffff169060200190929190803561ffff169060200190929190803561ffff169060200190929190803561ffff169060200190929190803563ffffffff169060200190929190505050611c77565b005b34801561078357600080fd5b506107b06004803603602081101561079a57600080fd5b8101908080359060200190929190505050611d59565b005b3480156107be57600080fd5b506107ff600480360360608110156107d557600080fd5b81019080803590602001909291908035906020019092919080359060200190929190505050611ea1565b005b34801561080d57600080fd5b5061083a6004803603602081101561082457600080fd5b8101908080359060200190929190505050611f86565b6040518080602001828103825283818151815260200191508051906020019080838360005b8381101561087a57808201518184015260208101905061085f565b50505050905090810190601f1680156108a75780820380516001836020036101000a031916815260200191505b509250505060405180910390f35b3480156108c157600080fd5b506108ee600480360360208110156108d857600080fd5b8101908080359060200190929190505050612062565b6040518082815260200191505060405180910390f35b34801561091057600080fd5b50610a16600480360361010081101561092857600080fd5b81019080803590602001909291908035906020019064010000000081111561094f57600080fd5b82018360208201111561096157600080fd5b8035906020019184600183028401116401000000008311171561098357600080fd5b91908080601f016020809104026020016040519081016040528093929190818152602001838380828437600081840152601f19601f8201169050808301925050505050505091929192908060c001906006806020026040519081016040528092919082600660200280828437600081840152601f19601f82011690508083019250505050505091929192905050506120a6565b005b348015610a2457600080fd5b50610a2d612436565b6040518082815260200191505060405180910390f35b610ab6600480360360e0811015610a5957600080fd5b810190808060c001906006806020026040519081016040528092919082600660200280828437600081840152601f19601f8201169050808301925050505050509192919290803563ffffffff16906020019092919050505061247d565b005b348015610ac457600080fd5b50610afb60048036036040811015610adb57600080fd5b8101908080359060200190929190803590602001909291905050506126d9565b005b348015610b0957600080fd5b50610b3660048036036020811015610b2057600080fd5b810190808035906020019092919050505061276c565b005b348015610b4457600080fd5b50610b4d61278a565b005b348015610b5b57600080fd5b50610b9260048036036040811015610b7257600080fd5b81019080803590602001909291908035906020019092919050505061285a565b005b348015610ba057600080fd5b50610bcd60048036036020811015610bb757600080fd5b810190808035906020019092919050505061292b565b005b348015610bdb57600080fd5b50610be4612be7565b604051808273ffffffffffffffffffffffffffffffffffffffff1673ffffffffffffffffffffffffffffffffffffffff16815260200191505060405180910390f35b348015610c3257600080fd5b50610c3b612c10565b604051808215151515815260200191505060405180910390f35b348015610c6157600080fd5b50610c9860048036036040811015610c7857600080fd5b810190808035906020019092919080359060200190929190505050612c67565b6040518082815260200191505060405180910390f35b348015610cba57600080fd5b50610ce760048036036020811015610cd157600080fd5b8101908080359060200190929190505050612c99565b005b348015610cf557600080fd5b50610d2260048036036020811015610d0c57600080fd5b8101908080359060200190929190505050612cb7565b604051808273ffffffffffffffffffffffffffffffffffffffff1673ffffffffffffffffffffffffffffffffffffffff16815260200191505060405180910390f35b348015610d7057600080fd5b50610d9d60048036036020811015610d8757600080fd5b8101908080359060200190929190505050612cf4565b6040518084815260200183815260200180602001828103825283818151815260200191508051906020019080838360005b83811015610de9578082015181840152602081019050610dce565b50505050905090810190601f168015610e165780820380516001836020036101000a031916815260200191505b5094505050505060405180910390f35b348015610e3257600080fd5b50610e6960048036036040811015610e4957600080fd5b810190808035906020019092919080359060200190929190505050612dc3565b005b348015610e7757600080fd5b5061105660048036036060811015610e8e57600080fd5b8101908080359060200190640100000000811115610eab57600080fd5b820183602082011115610ebd57600080fd5b80359060200191846020830284011164010000000083111715610edf57600080fd5b919080806020026020016040519081016040528093929190818152602001838360200280828437600081840152601f19601f82011690508083019250505050505050919291929080359060200190640100000000811115610f3f57600080fd5b820183602082011115610f5157600080fd5b80359060200191846020830284011164010000000083111715610f7357600080fd5b919080806020026020016040519081016040528093929190818152602001838360200280828437600081840152601f19601f82011690508083019250505050505050919291929080359060200190640100000000811115610fd357600080fd5b820183602082011115610fe557600080fd5b8035906020019184602083028401116401000000008311171561100757600080fd5b919080806020026020016040519081016040528093929190818152602001838360200280828437600081840152601f19601f820116905080830192505050505050509192919290505050612e72565b005b34801561106457600080fd5b506110916004803603602081101561107b57600080fd5b8101908080359060200190929190505050612f0d565b6040518080602001838152602001828103825284818151815260200191508051906020019080838360005b838110156110d75780820151818401526020810190506110bc565b50505050905090810190601f1680156111045780820380516001836020036101000a031916815260200191505b50935050505060405180910390f35b34801561111f57600080fd5b5061114c6004803603602081101561113657600080fd5b8101908080359060200190929190505050612fe3565b6040518082815260200191505060405180910390f35b34801561116e57600080fd5b506111b16004803603602081101561118557600080fd5b81019080803573ffffffffffffffffffffffffffffffffffffffff16906020019092919050505061300b565b005b3480156111bf57600080fd5b5061128d600480360360608110156111d657600080fd5b81019080803590602001906401000000008111156111f357600080fd5b82018360208201111561120557600080fd5b8035906020019184600183028401116401000000008311171561122757600080fd5b91908080601f016020809104026020016040519081016040528093929190818152602001838380828437600081840152601f19601f8201169050808301925050505050505091929192908035906020019092919080359060200190929190505050613028565b005b611297612c10565b6112a057600080fd5b83600060036000838152602001908152602001600020600301805460018160011615610100020316600290049050146112d857600080fd5b60006003600083815260200190815260200160002060000154146112fb57600080fd5b82421061130757600080fd5b82821161131357600080fd5b6000851161132057600080fd5b604051806060016040528084815260200183815260200185815250600360008781526020019081526020016000206000820151816000015560208201518160010155604082015181600301908051906020019061137e92919061361b565b509050507ff921e1476612bff3a21b96b63ae8a3ac03579129aad3ed13624285327365837c858585856040518085815260200180602001848152602001838152602001828103825285818151815260200191508051906020019080838360005b838110156113f95780820151818401526020810190506113de565b50505050905090810190601f1680156114265780820380516001836020036101000a031916815260200191505b509550505050505060405180910390a15050505050565b61144561369b565b61144d6136bd565b6114556136ea565b61145d61369b565b600e60008663ffffffff1681526020019081526020016000206006806020026040519081016040528092919082600680156114e3576020028201915b8160009054906101000a900473ffffffffffffffffffffffffffffffffffffffff1673ffffffffffffffffffffffffffffffffffffffff1681526020019060010190808311611499575b505050505090506114f26136bd565b6114fa6136ea565b60008090505b60068110156116bc5761151161370c565b60066007600087856006811061152357fe5b602002015173ffffffffffffffffffffffffffffffffffffffff1673ffffffffffffffffffffffffffffffffffffffff168152602001908152602001600020548154811061156d57fe5b9060005260206000209060040201604051806080016040529081600082016006806020026040519081016040528092919082600680156115ea576020028201916000905b82829054906101000a900461ffff1661ffff16815260200190600201906020826001010492830192600103820291508084116115b15790505b505050505081526020016001820160009054906101000a900463ffffffff1663ffffffff1663ffffffff168152602001600282015481526020016003820160009054906101000a900473ffffffffffffffffffffffffffffffffffffffff1673ffffffffffffffffffffffffffffffffffffffff1673ffffffffffffffffffffffffffffffffffffffff16815250509050806000015184836006811061168c57fe5b602002018190525080604001518383600681106116a557fe5b602002018181525050508080600101915050611500565b508282829550955095505050509193909250565b6116f7600582815481106116e057fe5b90600052602060002090600302016000015461292b565b611700816131fd565b600b600083815260200190815260200160002060006101000a81548173ffffffffffffffffffffffffffffffffffffffff021916908373ffffffffffffffffffffffffffffffffffffffff16021790555050565b61175c61369b565b868160006006811061176a57fe5b602002019073ffffffffffffffffffffffffffffffffffffffff16908173ffffffffffffffffffffffffffffffffffffffff168152505085816001600681106117af57fe5b602002019073ffffffffffffffffffffffffffffffffffffffff16908173ffffffffffffffffffffffffffffffffffffffff168152505084816002600681106117f457fe5b602002019073ffffffffffffffffffffffffffffffffffffffff16908173ffffffffffffffffffffffffffffffffffffffff1681525050838160036006811061183957fe5b602002019073ffffffffffffffffffffffffffffffffffffffff16908173ffffffffffffffffffffffffffffffffffffffff1681525050828160046006811061187e57fe5b602002019073ffffffffffffffffffffffffffffffffffffffff16908173ffffffffffffffffffffffffffffffffffffffff168152505081816005600681106118c357fe5b602002019073ffffffffffffffffffffffffffffffffffffffff16908173ffffffffffffffffffffffffffffffffffffffff16815250506119058989836120a6565b505050505050505050565b611918613756565b60008061192361370c565b6006600760003373ffffffffffffffffffffffffffffffffffffffff1673ffffffffffffffffffffffffffffffffffffffff168152602001908152602001600020548154811061196f57fe5b9060005260206000209060040201604051806080016040529081600082016006806020026040519081016040528092919082600680156119ec576020028201916000905b82829054906101000a900461ffff1661ffff16815260200190600201906020826001010492830192600103820291508084116119b35790505b505050505081526020016001820160009054906101000a900463ffffffff1663ffffffff1663ffffffff168152602001600282015481526020016003820160009054906101000a900473ffffffffffffffffffffffffffffffffffffffff1673ffffffffffffffffffffffffffffffffffffffff1673ffffffffffffffffffffffffffffffffffffffff1681525050905080600001518160200151826040015182925093509350935050909192565b60068181548110611aa857fe5b90600052602060002090600402016000915090508060010160009054906101000a900463ffffffff16908060020154908060030160009054906101000a900473ffffffffffffffffffffffffffffffffffffffff16905083565b611b0a613756565b611b1261370c565b6006600760003373ffffffffffffffffffffffffffffffffffffffff1673ffffffffffffffffffffffffffffffffffffffff1681526020019081526020016000205481548110611b5e57fe5b906000526020600020906004020160405180608001604052908160008201600680602002604051908101604052809291908260068015611bdb576020028201916000905b82829054906101000a900461ffff1661ffff1681526020019060020190602082600101049283019260010382029150808411611ba25790505b505050505081526020016001820160009054906101000a900463ffffffff1663ffffffff1663ffffffff168152602001600282015481526020016003820160009054906101000a900473ffffffffffffffffffffffffffffffffffffffff1673ffffffffffffffffffffffffffffffffffffffff1673ffffffffffffffffffffffffffffffffffffffff16815250509050806000015191505090565b611c7f613756565b8781600060068110611c8d57fe5b602002019061ffff16908161ffff16815250508681600160068110611cae57fe5b602002019061ffff16908161ffff16815250508581600260068110611ccf57fe5b602002019061ffff16908161ffff16815250508481600360068110611cf057fe5b602002019061ffff16908161ffff16815250508381600460068110611d1157fe5b602002019061ffff16908161ffff16815250508281600560068110611d3257fe5b602002019061ffff16908161ffff1681525050611d4f818361247d565b5050505050505050565b60058181548110611d6657fe5b90600052602060002090600302016000015460036000828152602001908152602001600020600101544211611d9a57600080fd5b611da3826116d0565b3373ffffffffffffffffffffffffffffffffffffffff16600b600084815260200190815260200160002060009054906101000a900473ffffffffffffffffffffffffffffffffffffffff1673ffffffffffffffffffffffffffffffffffffffff1614611e0e57600080fd5b600060058381548110611e1d57fe5b9060005260206000209060030201600101549050600060058481548110611e4057fe5b9060005260206000209060030201600101819055503373ffffffffffffffffffffffffffffffffffffffff166108fc829081150290604051600060405180830381858888f19350505050158015611e9b573d6000803e3d6000fd5b50505050565b611ea9612c10565b611eb257600080fd5b8280600460008381526020019081526020016000206001015414611ed557600080fd5b826000600360008381526020019081526020016000206000015411611ef957600080fd5b6000600360008381526020019081526020016000206001015411611f1c57600080fd5b60006003600083815260200190815260200160002060030180546001816001161561010002031660029004905011611f5357600080fd5b82600460008781526020019081526020016000206002016000868152602001908152602001600020819055505050505050565b60608180600460008381526020019081526020016000206001015414611fab57600080fd5b600460008481526020019081526020016000206000018054600181600116156101000203166002900480601f0160208091040260200160405190810160405280929190818152602001828054600181600116156101000203166002900480156120555780601f1061202a57610100808354040283529160200191612055565b820191906000526020600020905b81548152906001019060200180831161203857829003601f168201915b5050505050915050919050565b6000818060046000838152602001908152602001600020600101541461208757600080fd5b6004600084815260200190815260200160002060030154915050919050565b6000600c60003373ffffffffffffffffffffffffffffffffffffffff1673ffffffffffffffffffffffffffffffffffffffff16815260200190815260200160002054146120f257600080fd5b82600060036000838152602001908152602001600020600001541161211657600080fd5b600060036000838152602001908152602001600020600101541161213957600080fd5b6000600360008381526020019081526020016000206003018054600181600116156101000203166002900490501161217057600080fd5b6000600160056040518060600160405280888152602001600081526020018781525090806001815401808255809150509060018203906000526020600020906003020160009091929091909150600082015181600001556020820151816001015560408201518160020190805190602001906121ed92919061361b565b50505003905080600860003373ffffffffffffffffffffffffffffffffffffffff1673ffffffffffffffffffffffffffffffffffffffff168152602001908152602001600020819055506001600c60003373ffffffffffffffffffffffffffffffffffffffff1673ffffffffffffffffffffffffffffffffffffffff16815260200190815260200160002060008282540192505081905550336009600083815260200190815260200160002060006101000a81548173ffffffffffffffffffffffffffffffffffffffff021916908373ffffffffffffffffffffffffffffffffffffffff16021790555084600a60008381526020019081526020016000208190555060008090505b600681101561235f5781600d600086846006811061230f57fe5b602002015173ffffffffffffffffffffffffffffffffffffffff1673ffffffffffffffffffffffffffffffffffffffff1681526020019081526020016000208190555080806001019150506122f5565b5082600e6000838152602001908152602001600020906006612382929190613778565b507fe7b7bffb910588abb6e9a5c1a8c4b9a1544cd5050d71d14b57f3b468ca0245e28185876040518084815260200180602001838152602001828103825284818151815260200191508051906020019080838360005b838110156123f35780820151818401526020810190506123d8565b50505050905090810190601f1680156124205780820380516001836020036101000a031916815260200191505b5094505050505060405180910390a15050505050565b6000600d60003373ffffffffffffffffffffffffffffffffffffffff1673ffffffffffffffffffffffffffffffffffffffff16815260200190815260200160002054905090565b6000600760003373ffffffffffffffffffffffffffffffffffffffff1673ffffffffffffffffffffffffffffffffffffffff16815260200190815260200160002054146124c957600080fd5b81600080905060008090505b600681101561250c576124fb8382600681106124ed57fe5b602002015161ffff16612062565b8201915080806001019150506124d5565b5080341461251957600080fd5b8263ffffffff1660006001600660405180608001604052808981526020018863ffffffff168152602001600081526020013373ffffffffffffffffffffffffffffffffffffffff16815250908060018154018082558091505090600182039060005260206000209060040201600090919290919091506000820151816000019060066125a69291906137f5565b5060208201518160010160006101000a81548163ffffffff021916908363ffffffff1602179055506040820151816002015560608201518160030160006101000a81548173ffffffffffffffffffffffffffffffffffffffff021916908373ffffffffffffffffffffffffffffffffffffffff160217905550505003905080600760003373ffffffffffffffffffffffffffffffffffffffff1673ffffffffffffffffffffffffffffffffffffffff168152602001908152602001600020819055503460058663ffffffff168154811061267c57fe5b9060005260206000209060030201600101600082825401925050819055507fb4c55452b3a0fcd370281067a5378b1d6b0adb1584de15f43fbe8dd04021610b816040518082815260200191505060405180910390a1505050505050565b6126e1612c10565b6126ea57600080fd5b818060046000838152602001908152602001600020600101541461270d57600080fd5b8160046000858152602001908152602001600020600301819055507fc93f30e5608cb7d10da279088d68019a15a03744a41741842cfcaf68ad4511b58383604051808381526020018281526020019250505060405180910390a1505050565b42600360008381526020019081526020016000206000018190555050565b612792612c10565b61279b57600080fd5b600073ffffffffffffffffffffffffffffffffffffffff166000809054906101000a900473ffffffffffffffffffffffffffffffffffffffff1673ffffffffffffffffffffffffffffffffffffffff167f8be0079c531659141344cd1fd0a4f28419497f9722a3daafe3b4186f6b6457e060405160405180910390a360008060006101000a81548173ffffffffffffffffffffffffffffffffffffffff021916908373ffffffffffffffffffffffffffffffffffffffff160217905550565b612862612c10565b61286b57600080fd5b81600060036000838152602001908152602001600020600001541161288f57600080fd5b60006003600083815260200190815260200160002060010154116128b257600080fd5b600060036000838152602001908152602001600020600301805460018160011615610100020316600290049050116128e957600080fd5b6003600084815260200190815260200160002060000154821161290b57600080fd5b816003600085815260200190815260200160002060000181905550505050565b60008090505b600680549050811015612be35761294661370c565b6006828154811061295357fe5b9060005260206000209060040201604051806080016040529081600082016006806020026040519081016040528092919082600680156129d0576020028201916000905b82829054906101000a900461ffff1661ffff16815260200190600201906020826001010492830192600103820291508084116129975790505b505050505081526020016001820160009054906101000a900463ffffffff1663ffffffff1663ffffffff168152602001600282015481526020016003820160009054906101000a900473ffffffffffffffffffffffffffffffffffffffff1673ffffffffffffffffffffffffffffffffffffffff1673ffffffffffffffffffffffffffffffffffffffff16815250509050612a69613892565b6005826020015163ffffffff1681548110612a8057fe5b90600052602060002090600302016040518060600160405290816000820154815260200160018201548152602001600282018054600181600116156101000203166002900480601f016020809104026020016040519081016040528092919081815260200182805460018160011615610100020316600290048015612b465780601f10612b1b57610100808354040283529160200191612b46565b820191906000526020600020905b815481529060010190602001808311612b2957829003601f168201915b50505050508152505090506000826040015190508482600001511415612bb05760008090505b8360000151506006811015612bae57612b9d84600001518260068110612b8e57fe5b602002015161ffff1687612c67565b820191508080600101915050612b6c565b505b8060068581548110612bbe57fe5b9060005260206000209060040201600201819055505050508080600101915050612931565b5050565b60008060009054906101000a900473ffffffffffffffffffffffffffffffffffffffff16905090565b60008060009054906101000a900473ffffffffffffffffffffffffffffffffffffffff1673ffffffffffffffffffffffffffffffffffffffff163373ffffffffffffffffffffffffffffffffffffffff1614905090565b600060046000848152602001908152602001600020600201600083815260200190815260200160002054905092915050565b42600360008381526020019081526020016000206001018190555050565b6000600b600083815260200190815260200160002060009054906101000a900473ffffffffffffffffffffffffffffffffffffffff169050919050565b60058181548110612d0157fe5b9060005260206000209060030201600091509050806000015490806001015490806002018054600181600116156101000203166002900480601f016020809104026020016040519081016040528092919081815260200182805460018160011615610100020316600290048015612db95780601f10612d8e57610100808354040283529160200191612db9565b820191906000526020600020905b815481529060010190602001808311612d9c57829003601f168201915b5050505050905083565b612dcb612c10565b612dd457600080fd5b816000600360008381526020019081526020016000206000015411612df857600080fd5b6000600360008381526020019081526020016000206001015411612e1b57600080fd5b60006003600083815260200190815260200160002060030180546001816001161561010002031660029004905011612e5257600080fd5b816003600085815260200190815260200160002060010181905550505050565b612e7a612c10565b612e8357600080fd5b8151835114612e9157600080fd5b8051835114612e9f57600080fd5b60008090505b8351811015612f0757612efa612ecd858381518110612ec057fe5b6020026020010151613390565b848381518110612ed957fe5b6020026020010151848481518110612eed57fe5b6020026020010151613028565b8080600101915050612ea5565b50505050565b60606000600460008481526020019081526020016000206000016004600085815260200190815260200160002060030154818054600181600116156101000203166002900480601f016020809104026020016040519081016040528092919081815260200182805460018160011615610100020316600290048015612fd35780601f10612fa857610100808354040283529160200191612fd3565b820191906000526020600020905b815481529060010190602001808311612fb657829003601f168201915b5050505050915091509150915091565b600060058281548110612ff257fe5b9060005260206000209060030201600101549050919050565b613013612c10565b61301c57600080fd5b61302581613523565b50565b613030612c10565b61303957600080fd5b81600060046000838152602001908152602001600020600301541461305d57600080fd5b600060046000838152602001908152602001600020600101541461308057600080fd5b600060046000838152602001908152602001600020600001805460018160011615610100020316600290049050146130b757600080fd5b60008451116130c557600080fd5b600083116130d257600080fd5b600082116130df57600080fd5b6040518060600160405280858152602001848152602001670de0b6b3a7640000840281525060046000858152602001908152602001600020600082015181600001908051906020019061313392919061361b565b5060208201518160010155604082015181600301559050507f316e331d8ddc20f2a441eb5d779933dabf9d87c1f3d2010f4f566d6b07e645ff8385846040518084815260200180602001838152602001828103825284818151815260200191508051906020019080838360005b838110156131bb5780820151818401526020810190506131a0565b50505050905090810190601f1680156131e85780820380516001836020036101000a031916815260200191505b5094505050505060405180910390a150505050565b60008060ff6001901b90506000819050600080905060008090505b6006805490508110156133845761322d61370c565b6006828154811061323a57fe5b9060005260206000209060040201604051806080016040529081600082016006806020026040519081016040528092919082600680156132b7576020028201916000905b82829054906101000a900461ffff1661ffff168152602001906002019060208260010104928301926001038202915080841161327e5790505b505050505081526020016001820160009054906101000a900463ffffffff1663ffffffff1663ffffffff168152602001600282015481526020016003820160009054906101000a900473ffffffffffffffffffffffffffffffffffffffff1673ffffffffffffffffffffffffffffffffffffffff1673ffffffffffffffffffffffffffffffffffffffff1681525050905086816020015163ffffffff1614156133765783816040015113156133755780604001519350806060015192505b5b508080600101915050613218565b50809350505050919050565b60608060206040519080825280601f01601f1916602001820160405280156133c75781602001600182028038833980820191505090505b509050600080905060008090505b60208110156134715760008160080260020a8660001c0260001b9050600060f81b817effffffffffffffffffffffffffffffffffffffffffffffffffffffffffffff191614613463578084848151811061342b57fe5b60200101907effffffffffffffffffffffffffffffffffffffffffffffffffffffffffffff1916908160001a90535082806001019350505b5080806001019150506133d5565b506060816040519080825280601f01601f1916602001820160405280156134a75781602001600182028038833980820191505090505b50905060008090505b82811015613517578381815181106134c457fe5b602001015160f81c60f81b8282815181106134db57fe5b60200101907effffffffffffffffffffffffffffffffffffffffffffffffffffffffffffff1916908160001a90535080806001019150506134b0565b50809350505050919050565b600073ffffffffffffffffffffffffffffffffffffffff168173ffffffffffffffffffffffffffffffffffffffff16141561355d57600080fd5b8073ffffffffffffffffffffffffffffffffffffffff166000809054906101000a900473ffffffffffffffffffffffffffffffffffffffff1673ffffffffffffffffffffffffffffffffffffffff167f8be0079c531659141344cd1fd0a4f28419497f9722a3daafe3b4186f6b6457e060405160405180910390a3806000806101000a81548173ffffffffffffffffffffffffffffffffffffffff021916908373ffffffffffffffffffffffffffffffffffffffff16021790555050565b828054600181600116156101000203166002900490600052602060002090601f016020900481019282601f1061365c57805160ff191683800117855561368a565b8280016001018555821561368a579182015b8281111561368957825182559160200191906001019061366e565b5b50905061369791906138b3565b5090565b6040518060c00160405280600690602082028038833980820191505090505090565b6040518060c001604052806006905b6136d46138d8565b8152602001906001900390816136cc5790505090565b6040518060c00160405280600690602082028038833980820191505090505090565b604051806080016040528061371f6138d8565b8152602001600063ffffffff16815260200160008152602001600073ffffffffffffffffffffffffffffffffffffffff1681525090565b6040518060c00160405280600690602082028038833980820191505090505090565b82600681019282156137e4579160200282015b828111156137e35782518260006101000a81548173ffffffffffffffffffffffffffffffffffffffff021916908373ffffffffffffffffffffffffffffffffffffffff1602179055509160200191906001019061378b565b5b5090506137f191906138fa565b5090565b826006600f016010900481019282156138815791602002820160005b8382111561385157835183826101000a81548161ffff021916908361ffff1602179055509260200192600201602081600101049283019260010302613811565b801561387f5782816101000a81549061ffff0219169055600201602081600101049283019260010302613851565b505b50905061388e919061393d565b5090565b60405180606001604052806000815260200160008152602001606081525090565b6138d591905b808211156138d15760008160009055506001016138b9565b5090565b90565b6040518060c00160405280600690602082028038833980820191505090505090565b61393a91905b8082111561393657600081816101000a81549073ffffffffffffffffffffffffffffffffffffffff021916905550600101613900565b5090565b90565b61396b91905b8082111561396757600081816101000a81549061ffff021916905550600101613943565b5090565b9056fea265627a7a723158202b0e9b02c2120f59a816554fce3636727f370cb44a355c85214f008141fc023064736f6c63430005100032",
  "source": "pragma solidity >=0.4.22 <0.6.0;\r\n\r\n\r\nimport \"./LeagueOwnership.sol\";\r\n\r\ncontract League is LeagueOwnership {\r\n    event NewBet(uint betID);\r\n\r\n\r\n\r\n    function getLeagueMoneyPot(uint _leagueID) public view returns(uint){\r\n      return leagues[_leagueID].moneyPot;\r\n    }\r\n\r\n    function placeBet(uint16[6] memory _golferIDs, uint32 _leagueID) public payable  noActiveBets correctEthValue(_golferIDs) leagueExists(_leagueID){\r\n        uint id = bets.push(Bet(_golferIDs, _leagueID, 0, msg.sender )) - 1;\r\n        userToBet[msg.sender] = id;\r\n        leagues[_leagueID].moneyPot += msg.value;\r\n        emit NewBet(id);\r\n    }\r\n\r\n\r\n\r\n    function placeBetNonArray(uint16 _golferID0, uint16 _golferID1, uint16 _golferID2, uint16 _golferID3, uint16 _golferID4, uint16 _golferID5, uint32 _leagueID ) public payable{\r\n      uint16[6] memory _golferIDs;\r\n      _golferIDs[0] = _golferID0;\r\n      _golferIDs[1] = _golferID1;\r\n      _golferIDs[2] = _golferID2;\r\n      _golferIDs[3] = _golferID3;\r\n      _golferIDs[4] = _golferID4;\r\n      _golferIDs[5] = _golferID5;\r\n      placeBet(_golferIDs, _leagueID);\r\n    }\r\n\r\n    function getUserGolferIds() public view returns(uint16[6] memory){\r\n      Bet memory bet = bets[userToBet[msg.sender]];\r\n      return bet.golferIDs;\r\n    }\r\n\r\n    function withdrawEther(uint _leagueID) public tournamentOver(leagues[_leagueID].tournamentID)  {\r\n        updateLeagueLeader(_leagueID);\r\n        require(leagueIDtoLeagueLeader[_leagueID] == msg.sender);\r\n        uint valueToSend = leagues[_leagueID].moneyPot;\r\n        leagues[_leagueID].moneyPot = 0;\r\n        msg.sender.transfer(valueToSend);\r\n    }\r\n\r\n    function getBet() public view returns (uint16[6] memory, uint32, int){\r\n        Bet memory bet = bets[userToBet[msg.sender]];\r\n        return (bet.golferIDs, bet.leagueID, bet.totalScore);\r\n    }\r\n\r\n    function getBets(uint32 _leagueID) public view returns (address[6] memory, uint16[6][6] memory, int[6] memory){\r\n      address[6] memory users = leagueIDtoUsers[_leagueID];\r\n      uint16[6][6] memory golferIDs;\r\n      int[6] memory scores;\r\n      for(uint i = 0 ; i < users.length; i++){\r\n        Bet memory bet = bets[userToBet[users[i]]];\r\n        golferIDs[i] = bet.golferIDs;\r\n        scores[i] = bet.totalScore;\r\n      }\r\n\r\n      return (users, golferIDs, scores);\r\n\r\n    }\r\n\r\n    modifier noActiveBets()  {\r\n        require(userToBet[msg.sender] == 0);\r\n        _;\r\n    }\r\n\r\n    modifier correctEthValue(uint16[6] memory _golferIDs){\r\n\r\n        uint totalCostInWei = 0;\r\n        for (uint i = 0; i < _golferIDs.length; i++){\r\n            totalCostInWei += getGolferCost(_golferIDs[i]);\r\n        }\r\n\r\n        require(msg.value == totalCostInWei);\r\n        _;\r\n    }\r\n\r\n    modifier leagueExists(uint _leagueID){\r\n      //TODO\r\n      _;\r\n    }\r\n\r\n\r\n}\r\n",
  "sourcePath": "S:\\GitHub\\blockchain-fantasy-golf\\contracts\\League.sol",
  "compiler": {
    "name": "solc",
    "version": "0.5.16+commit.9c3226ce.Emscripten.clang"
  },
  "schemaVersion": "3.1.0",
  "updatedAt": "2020-05-02T21:38:29.940Z",
  "networkType": "ethereum",
  "devdoc": {
    "methods": {
      "isOwner()": {
        "return": "true if `msg.sender` is the owner of the contract."
      },
      "owner()": {
        "return": "the address of the owner."
      },
      "renounceOwnership()": {
        "details": "Allows the current owner to relinquish control of the contract."
      },
      "transferOwnership(address)": {
        "details": "Allows the current owner to transfer control of the contract to a newOwner.",
        "params": {
          "newOwner": "The address to transfer ownership to."
        }
      }
    }
  },
  "userdoc": {
    "methods": {
      "renounceOwnership()": {
        "notice": "Renouncing to ownership will leave the contract without an owner. It will not be possible to call the functions with the `onlyOwner` modifier anymore."
      }
    }
  }
}