{
  "contractName": "League",
  "abi": [
    {
      "anonymous": false,
      "inputs": [
        {
          "indexed": false,
          "internalType": "uint256",
          "name": "golferID",
          "type": "uint256"
        },
        {
          "indexed": false,
          "internalType": "uint256",
          "name": "newCost",
          "type": "uint256"
        }
      ],
      "name": "GolferCostUpdated",
      "type": "event"
    },
    {
      "anonymous": false,
      "inputs": [
        {
          "indexed": false,
          "internalType": "uint256",
          "name": "betID",
          "type": "uint256"
        }
      ],
      "name": "NewBet",
      "type": "event"
    },
    {
      "anonymous": false,
      "inputs": [
        {
          "indexed": false,
          "internalType": "uint256",
          "name": "golferID",
          "type": "uint256"
        },
        {
          "indexed": false,
          "internalType": "string",
          "name": "name",
          "type": "string"
        },
        {
          "indexed": false,
          "internalType": "uint256",
          "name": "cost",
          "type": "uint256"
        }
      ],
      "name": "NewGolfer",
      "type": "event"
    },
    {
      "anonymous": false,
      "inputs": [
        {
          "indexed": false,
          "internalType": "uint256",
          "name": "leagueID",
          "type": "uint256"
        },
        {
          "indexed": false,
          "internalType": "string",
          "name": "leagueName",
          "type": "string"
        },
        {
          "indexed": false,
          "internalType": "uint256",
          "name": "tournamentID",
          "type": "uint256"
        }
      ],
      "name": "NewLeague",
      "type": "event"
    },
    {
      "anonymous": false,
      "inputs": [
        {
          "indexed": true,
          "internalType": "address",
          "name": "previousOwner",
          "type": "address"
        },
        {
          "indexed": true,
          "internalType": "address",
          "name": "newOwner",
          "type": "address"
        }
      ],
      "name": "OwnershipTransferred",
      "type": "event"
    },
    {
      "anonymous": false,
      "inputs": [
        {
          "indexed": false,
          "internalType": "uint256",
          "name": "tournamentID",
          "type": "uint256"
        },
        {
          "indexed": false,
          "internalType": "string",
          "name": "name",
          "type": "string"
        },
        {
          "indexed": false,
          "internalType": "uint256",
          "name": "startTime",
          "type": "uint256"
        },
        {
          "indexed": false,
          "internalType": "uint256",
          "name": "endTime",
          "type": "uint256"
        }
      ],
      "name": "TournamentCreated",
      "type": "event"
    },
    {
      "constant": true,
      "inputs": [
        {
          "internalType": "uint256",
          "name": "",
          "type": "uint256"
        }
      ],
      "name": "bets",
      "outputs": [
        {
          "internalType": "uint32",
          "name": "leagueID",
          "type": "uint32"
        },
        {
          "internalType": "int256",
          "name": "totalScore",
          "type": "int256"
        },
        {
          "internalType": "address",
          "name": "user",
          "type": "address"
        }
      ],
      "payable": false,
      "stateMutability": "view",
      "type": "function"
    },
    {
      "constant": false,
      "inputs": [
        {
          "internalType": "string",
          "name": "_name",
          "type": "string"
        },
        {
          "internalType": "uint256",
          "name": "_id",
          "type": "uint256"
        },
        {
          "internalType": "uint256",
          "name": "_cost",
          "type": "uint256"
        }
      ],
      "name": "createGolfer",
      "outputs": [],
      "payable": false,
      "stateMutability": "nonpayable",
      "type": "function"
    },
    {
      "constant": false,
      "inputs": [
        {
          "internalType": "uint256",
          "name": "_tournamentID",
          "type": "uint256"
        },
        {
          "internalType": "string",
          "name": "_leagueName",
          "type": "string"
        },
        {
          "internalType": "address[6]",
          "name": "userAddresses",
          "type": "address[6]"
        }
      ],
      "name": "createLeague",
      "outputs": [],
      "payable": false,
      "stateMutability": "nonpayable",
      "type": "function"
    },
    {
      "constant": false,
      "inputs": [
        {
          "internalType": "uint256",
          "name": "_tournamentID",
          "type": "uint256"
        },
        {
          "internalType": "string",
          "name": "_name",
          "type": "string"
        },
        {
          "internalType": "uint32",
          "name": "_startTime",
          "type": "uint32"
        },
        {
          "internalType": "uint32",
          "name": "_endTime",
          "type": "uint32"
        }
      ],
      "name": "createTournament",
      "outputs": [],
      "payable": false,
      "stateMutability": "nonpayable",
      "type": "function"
    },
    {
      "constant": true,
      "inputs": [
        {
          "internalType": "uint256",
          "name": "_id",
          "type": "uint256"
        }
      ],
      "name": "getGolfer",
      "outputs": [
        {
          "internalType": "string",
          "name": "",
          "type": "string"
        },
        {
          "internalType": "uint256",
          "name": "",
          "type": "uint256"
        }
      ],
      "payable": false,
      "stateMutability": "view",
      "type": "function"
    },
    {
      "constant": true,
      "inputs": [
        {
          "internalType": "uint256",
          "name": "_golferID",
          "type": "uint256"
        }
      ],
      "name": "getGolferCost",
      "outputs": [
        {
          "internalType": "uint256",
          "name": "",
          "type": "uint256"
        }
      ],
      "payable": false,
      "stateMutability": "view",
      "type": "function"
    },
    {
      "constant": true,
      "inputs": [
        {
          "internalType": "uint256",
          "name": "_golferID",
          "type": "uint256"
        },
        {
          "internalType": "uint256",
          "name": "_tournamentID",
          "type": "uint256"
        }
      ],
      "name": "getGolferScore",
      "outputs": [
        {
          "internalType": "int256",
          "name": "",
          "type": "int256"
        }
      ],
      "payable": false,
      "stateMutability": "view",
      "type": "function"
    },
    {
      "constant": true,
      "inputs": [],
      "name": "getLeagueID",
      "outputs": [
        {
          "internalType": "uint256",
          "name": "",
          "type": "uint256"
        }
      ],
      "payable": false,
      "stateMutability": "view",
      "type": "function"
    },
    {
      "constant": true,
      "inputs": [
        {
          "internalType": "uint256",
          "name": "_leagueID",
          "type": "uint256"
        }
      ],
      "name": "getLeagueLeader",
      "outputs": [
        {
          "internalType": "address",
          "name": "",
          "type": "address"
        }
      ],
      "payable": false,
      "stateMutability": "view",
      "type": "function"
    },
    {
      "constant": true,
      "inputs": [],
      "name": "isOwner",
      "outputs": [
        {
          "internalType": "bool",
          "name": "",
          "type": "bool"
        }
      ],
      "payable": false,
      "stateMutability": "view",
      "type": "function"
    },
    {
      "constant": true,
      "inputs": [
        {
          "internalType": "uint256",
          "name": "",
          "type": "uint256"
        }
      ],
      "name": "leagues",
      "outputs": [
        {
          "internalType": "uint256",
          "name": "tournamentID",
          "type": "uint256"
        },
        {
          "internalType": "uint256",
          "name": "moneyPot",
          "type": "uint256"
        },
        {
          "internalType": "string",
          "name": "leagueName",
          "type": "string"
        }
      ],
      "payable": false,
      "stateMutability": "view",
      "type": "function"
    },
    {
      "constant": false,
      "inputs": [
        {
          "internalType": "uint256",
          "name": "_golferID",
          "type": "uint256"
        },
        {
          "internalType": "uint256",
          "name": "_newCost",
          "type": "uint256"
        }
      ],
      "name": "modifyGolferCost",
      "outputs": [],
      "payable": false,
      "stateMutability": "nonpayable",
      "type": "function"
    },
    {
      "constant": true,
      "inputs": [],
      "name": "owner",
      "outputs": [
        {
          "internalType": "address",
          "name": "",
          "type": "address"
        }
      ],
      "payable": false,
      "stateMutability": "view",
      "type": "function"
    },
    {
      "constant": false,
      "inputs": [],
      "name": "renounceOwnership",
      "outputs": [],
      "payable": false,
      "stateMutability": "nonpayable",
      "type": "function"
    },
    {
      "constant": false,
      "inputs": [
        {
          "internalType": "address",
          "name": "newOwner",
          "type": "address"
        }
      ],
      "name": "transferOwnership",
      "outputs": [],
      "payable": false,
      "stateMutability": "nonpayable",
      "type": "function"
    },
    {
      "constant": false,
      "inputs": [
        {
          "internalType": "uint256",
          "name": "_golferID",
          "type": "uint256"
        },
        {
          "internalType": "uint256",
          "name": "_tournamentID",
          "type": "uint256"
        },
        {
          "internalType": "int256",
          "name": "_score",
          "type": "int256"
        }
      ],
      "name": "updateGolferTournamentScore",
      "outputs": [],
      "payable": false,
      "stateMutability": "nonpayable",
      "type": "function"
    },
    {
      "constant": false,
      "inputs": [
        {
          "internalType": "uint256",
          "name": "_leagueID",
          "type": "uint256"
        }
      ],
      "name": "updateLeagueLeader",
      "outputs": [],
      "payable": false,
      "stateMutability": "nonpayable",
      "type": "function"
    },
    {
      "constant": false,
      "inputs": [
        {
          "internalType": "uint256",
          "name": "_tournamentID",
          "type": "uint256"
        },
        {
          "internalType": "uint32",
          "name": "_newEndTime",
          "type": "uint32"
        }
      ],
      "name": "updateTournamentEndTime",
      "outputs": [],
      "payable": false,
      "stateMutability": "nonpayable",
      "type": "function"
    },
    {
      "constant": false,
      "inputs": [
        {
          "internalType": "uint256",
          "name": "_tournamentID",
          "type": "uint256"
        },
        {
          "internalType": "uint32",
          "name": "_newStartTime",
          "type": "uint32"
        }
      ],
      "name": "updateTournamentStartTime",
      "outputs": [],
      "payable": false,
      "stateMutability": "nonpayable",
      "type": "function"
    },
    {
      "constant": false,
      "inputs": [
        {
          "internalType": "uint256",
          "name": "_tournamentID",
          "type": "uint256"
        }
      ],
      "name": "updateUserScores",
      "outputs": [],
      "payable": false,
      "stateMutability": "nonpayable",
      "type": "function"
    },
    {
      "constant": true,
      "inputs": [
        {
          "internalType": "uint256",
          "name": "_leagueID",
          "type": "uint256"
        }
      ],
      "name": "getLeagueMoneyPot",
      "outputs": [
        {
          "internalType": "uint256",
          "name": "",
          "type": "uint256"
        }
      ],
      "payable": false,
      "stateMutability": "view",
      "type": "function"
    },
    {
      "constant": false,
      "inputs": [
        {
          "internalType": "uint16[6]",
          "name": "_golferIDs",
          "type": "uint16[6]"
        },
        {
          "internalType": "uint32",
          "name": "_leagueID",
          "type": "uint32"
        }
      ],
      "name": "placeBet",
      "outputs": [],
      "payable": true,
      "stateMutability": "payable",
      "type": "function"
    },
    {
      "constant": false,
      "inputs": [
        {
          "internalType": "uint16",
          "name": "_golferID0",
          "type": "uint16"
        },
        {
          "internalType": "uint16",
          "name": "_golferID1",
          "type": "uint16"
        },
        {
          "internalType": "uint16",
          "name": "_golferID2",
          "type": "uint16"
        },
        {
          "internalType": "uint16",
          "name": "_golferID3",
          "type": "uint16"
        },
        {
          "internalType": "uint16",
          "name": "_golferID4",
          "type": "uint16"
        },
        {
          "internalType": "uint16",
          "name": "_golferID5",
          "type": "uint16"
        },
        {
          "internalType": "uint32",
          "name": "_leagueID",
          "type": "uint32"
        }
      ],
      "name": "placeBetNonArray",
      "outputs": [],
      "payable": true,
      "stateMutability": "payable",
      "type": "function"
    },
    {
      "constant": true,
      "inputs": [],
      "name": "getUserGolferIds",
      "outputs": [
        {
          "internalType": "uint16[6]",
          "name": "",
          "type": "uint16[6]"
        }
      ],
      "payable": false,
      "stateMutability": "view",
      "type": "function"
    },
    {
      "constant": false,
      "inputs": [
        {
          "internalType": "uint256",
          "name": "_leagueID",
          "type": "uint256"
        }
      ],
      "name": "withdrawEther",
      "outputs": [],
      "payable": false,
      "stateMutability": "nonpayable",
      "type": "function"
    },
    {
      "constant": true,
      "inputs": [],
      "name": "getBet",
      "outputs": [
        {
          "internalType": "uint16[6]",
          "name": "",
          "type": "uint16[6]"
        },
        {
          "internalType": "uint32",
          "name": "",
          "type": "uint32"
        },
        {
          "internalType": "int256",
          "name": "",
          "type": "int256"
        }
      ],
      "payable": false,
      "stateMutability": "view",
      "type": "function"
    }
  ],
  "bytecode": "0x6080604052735b0c9dc0afe417858dcc8db5269e47abc572aa77600160006101000a81548173ffffffffffffffffffffffffffffffffffffffff021916908373ffffffffffffffffffffffffffffffffffffffff160217905550600160009054906101000a900473ffffffffffffffffffffffffffffffffffffffff16600260006101000a81548173ffffffffffffffffffffffffffffffffffffffff021916908373ffffffffffffffffffffffffffffffffffffffff160217905550336000806101000a81548173ffffffffffffffffffffffffffffffffffffffff021916908373ffffffffffffffffffffffffffffffffffffffff1602179055506000809054906101000a900473ffffffffffffffffffffffffffffffffffffffff1673ffffffffffffffffffffffffffffffffffffffff16600073ffffffffffffffffffffffffffffffffffffffff167f8be0079c531659141344cd1fd0a4f28419497f9722a3daafe3b4186f6b6457e060405160405180910390a3612c58806101876000396000f3fe6080604052600436106101815760003560e01c8063755dda2d116100d1578063c648fefe1161008a578063eeea5c7e11610064578063eeea5c7e14610ada578063effd16be14610b25578063f2fde38b14610b70578063fddb0aaa14610bc157610181565b8063c648fefe1461090e578063e7650c8f146109d0578063e8b0552e14610a8b57610181565b8063755dda2d1461068757806381bbb705146107795780638da5cb5b146107b45780638f32d59b1461080b5780638ff6e3491461083a578063b399042b1461089357610181565b80633c5ed33a1161013e5780634e959408116101185780634e9594081461058b57806352dcdc0e146105b65780635abde8351461062b578063715018a61461067057610181565b80633c5ed33a146103d95780634850c3cc146104285780634a0b49671461047757610181565b806311d24a791461018657806320835e8c146101c157806322af00fa1461022e578063248690f6146102c357806325b0b5a9146103165780633bed33ce1461039e575b600080fd5b34801561019257600080fd5b506101bf600480360360208110156101a957600080fd5b8101908080359060200190929190505050610c9d565b005b3480156101cd57600080fd5b506101d6610d21565b6040518084600660200280838360005b838110156102015780820151818401526020810190506101e6565b505050509050018363ffffffff1663ffffffff168152602001828152602001935050505060405180910390f35b34801561023a57600080fd5b506102676004803603602081101561025157600080fd5b8101908080359060200190929190505050610eac565b604051808463ffffffff1663ffffffff1681526020018381526020018273ffffffffffffffffffffffffffffffffffffffff1673ffffffffffffffffffffffffffffffffffffffff168152602001935050505060405180910390f35b3480156102cf57600080fd5b506102d8610f13565b6040518082600660200280838360005b838110156103035780820151818401526020810190506102e8565b5050505090500191505060405180910390f35b61039c600480360360e081101561032c57600080fd5b81019080803561ffff169060200190929190803561ffff169060200190929190803561ffff169060200190929190803561ffff169060200190929190803561ffff169060200190929190803561ffff169060200190929190803563ffffffff169060200190929190505050611088565b005b3480156103aa57600080fd5b506103d7600480360360208110156103c157600080fd5b810190808035906020019092919050505061116a565b005b3480156103e557600080fd5b50610426600480360360608110156103fc57600080fd5b810190808035906020019092919080359060200190929190803590602001909291905050506112c8565b005b34801561043457600080fd5b506104616004803603602081101561044b57600080fd5b81019080803590602001909291905050506113d9565b6040518082815260200191505060405180910390f35b34801561048357600080fd5b50610589600480360361010081101561049b57600080fd5b8101908080359060200190929190803590602001906401000000008111156104c257600080fd5b8201836020820111156104d457600080fd5b803590602001918460018302840111640100000000831117156104f657600080fd5b91908080601f016020809104026020016040519081016040528093929190818152602001838380828437600081840152601f19601f8201169050808301925050505050505091929192908060c001906006806020026040519081016040528092919082600660200280828437600081840152601f19601f820116905080830192505050505050919291929050505061141d565b005b34801561059757600080fd5b506105a06117b6565b6040518082815260200191505060405180910390f35b610629600480360360e08110156105cc57600080fd5b810190808060c001906006806020026040519081016040528092919082600660200280828437600081840152601f19601f8201169050808301925050505050509192919290803563ffffffff1690602001909291905050506117fd565b005b34801561063757600080fd5b5061066e6004803603604081101561064e57600080fd5b810190808035906020019092919080359060200190929190505050611a59565b005b34801561067c57600080fd5b50610685611aec565b005b34801561069357600080fd5b50610777600480360360808110156106aa57600080fd5b8101908080359060200190929190803590602001906401000000008111156106d157600080fd5b8201836020820111156106e357600080fd5b8035906020019184600183028401116401000000008311171561070557600080fd5b91908080601f016020809104026020016040519081016040528093929190818152602001838380828437600081840152601f19601f820116905080830192505050505050509192919290803563ffffffff169060200190929190803563ffffffff169060200190929190505050611bbc565b005b34801561078557600080fd5b506107b26004803603602081101561079c57600080fd5b8101908080359060200190929190505050611de4565b005b3480156107c057600080fd5b506107c96120a0565b604051808273ffffffffffffffffffffffffffffffffffffffff1673ffffffffffffffffffffffffffffffffffffffff16815260200191505060405180910390f35b34801561081757600080fd5b506108206120c9565b604051808215151515815260200191505060405180910390f35b34801561084657600080fd5b5061087d6004803603604081101561085d57600080fd5b810190808035906020019092919080359060200190929190505050612120565b6040518082815260200191505060405180910390f35b34801561089f57600080fd5b506108cc600480360360208110156108b657600080fd5b8101908080359060200190929190505050612152565b604051808273ffffffffffffffffffffffffffffffffffffffff1673ffffffffffffffffffffffffffffffffffffffff16815260200191505060405180910390f35b34801561091a57600080fd5b506109476004803603602081101561093157600080fd5b810190808035906020019092919050505061218f565b6040518084815260200183815260200180602001828103825283818151815260200191508051906020019080838360005b83811015610993578082015181840152602081019050610978565b50505050905090810190601f1680156109c05780820380516001836020036101000a031916815260200191505b5094505050505060405180910390f35b3480156109dc57600080fd5b50610a09600480360360208110156109f357600080fd5b810190808035906020019092919050505061225e565b6040518080602001838152602001828103825284818151815260200191508051906020019080838360005b83811015610a4f578082015181840152602081019050610a34565b50505050905090810190601f168015610a7c5780820380516001836020036101000a031916815260200191505b50935050505060405180910390f35b348015610a9757600080fd5b50610ac460048036036020811015610aae57600080fd5b8101908080359060200190929190505050612334565b6040518082815260200191505060405180910390f35b348015610ae657600080fd5b50610b2360048036036040811015610afd57600080fd5b8101908080359060200190929190803563ffffffff16906020019092919050505061235c565b005b348015610b3157600080fd5b50610b6e60048036036040811015610b4857600080fd5b8101908080359060200190929190803563ffffffff169060200190929190505050612451565b005b348015610b7c57600080fd5b50610bbf60048036036020811015610b9357600080fd5b81019080803573ffffffffffffffffffffffffffffffffffffffff169060200190929190505050612584565b005b348015610bcd57600080fd5b50610c9b60048036036060811015610be457600080fd5b8101908080359060200190640100000000811115610c0157600080fd5b820183602082011115610c1357600080fd5b80359060200191846001830284011164010000000083111715610c3557600080fd5b91908080601f016020809104026020016040519081016040528093929190818152602001838380828437600081840152601f19601f82011690508083019250505050505050919291929080359060200190929190803590602001909291905050506125a1565b005b610cc460058281548110610cad57fe5b906000526020600020906003020160000154611de4565b610ccd81612776565b600b600083815260200190815260200160002060006101000a81548173ffffffffffffffffffffffffffffffffffffffff021916908373ffffffffffffffffffffffffffffffffffffffff16021790555050565b610d29612a01565b600080610d34612a23565b6006600760003373ffffffffffffffffffffffffffffffffffffffff1673ffffffffffffffffffffffffffffffffffffffff1681526020019081526020016000205481548110610d8057fe5b906000526020600020906004020160405180608001604052908160008201600680602002604051908101604052809291908260068015610dfd576020028201916000905b82829054906101000a900461ffff1661ffff1681526020019060020190602082600101049283019260010382029150808411610dc45790505b505050505081526020016001820160009054906101000a900463ffffffff1663ffffffff1663ffffffff168152602001600282015481526020016003820160009054906101000a900473ffffffffffffffffffffffffffffffffffffffff1673ffffffffffffffffffffffffffffffffffffffff1673ffffffffffffffffffffffffffffffffffffffff1681525050905080600001518160200151826040015182925093509350935050909192565b60068181548110610eb957fe5b90600052602060002090600402016000915090508060010160009054906101000a900463ffffffff16908060020154908060030160009054906101000a900473ffffffffffffffffffffffffffffffffffffffff16905083565b610f1b612a01565b610f23612a23565b6006600760003373ffffffffffffffffffffffffffffffffffffffff1673ffffffffffffffffffffffffffffffffffffffff1681526020019081526020016000205481548110610f6f57fe5b906000526020600020906004020160405180608001604052908160008201600680602002604051908101604052809291908260068015610fec576020028201916000905b82829054906101000a900461ffff1661ffff1681526020019060020190602082600101049283019260010382029150808411610fb35790505b505050505081526020016001820160009054906101000a900463ffffffff1663ffffffff1663ffffffff168152602001600282015481526020016003820160009054906101000a900473ffffffffffffffffffffffffffffffffffffffff1673ffffffffffffffffffffffffffffffffffffffff1673ffffffffffffffffffffffffffffffffffffffff16815250509050806000015191505090565b611090612a01565b878160006006811061109e57fe5b602002019061ffff16908161ffff168152505086816001600681106110bf57fe5b602002019061ffff16908161ffff168152505085816002600681106110e057fe5b602002019061ffff16908161ffff1681525050848160036006811061110157fe5b602002019061ffff16908161ffff1681525050838160046006811061112257fe5b602002019061ffff16908161ffff1681525050828160056006811061114357fe5b602002019061ffff16908161ffff168152505061116081836117fd565b5050505050505050565b6005818154811061117757fe5b9060005260206000209060030201600001546003600082815260200190815260200160002060000160049054906101000a900463ffffffff1663ffffffff1642116111c157600080fd5b6111ca82610c9d565b3373ffffffffffffffffffffffffffffffffffffffff16600b600084815260200190815260200160002060009054906101000a900473ffffffffffffffffffffffffffffffffffffffff1673ffffffffffffffffffffffffffffffffffffffff161461123557600080fd5b60006005838154811061124457fe5b906000526020600020906003020160010154905060006005848154811061126757fe5b9060005260206000209060030201600101819055503373ffffffffffffffffffffffffffffffffffffffff166108fc829081150290604051600060405180830381858888f193505050501580156112c2573d6000803e3d6000fd5b50505050565b6112d06120c9565b6112d957600080fd5b82806004600083815260200190815260200160002060010154146112fc57600080fd5b8260006003600083815260200190815260200160002060000160009054906101000a900463ffffffff1663ffffffff161161133657600080fd5b60006003600083815260200190815260200160002060000160049054906101000a900463ffffffff1663ffffffff161161136f57600080fd5b600060036000838152602001908152602001600020600201805460018160011615610100020316600290049050116113a657600080fd5b82600460008781526020019081526020016000206002016000868152602001908152602001600020819055505050505050565b600081806004600083815260200190815260200160002060010154146113fe57600080fd5b6004600084815260200190815260200160002060030154915050919050565b6000600c60003373ffffffffffffffffffffffffffffffffffffffff1673ffffffffffffffffffffffffffffffffffffffff168152602001908152602001600020541461146957600080fd5b8260006003600083815260200190815260200160002060000160009054906101000a900463ffffffff1663ffffffff16116114a357600080fd5b60006003600083815260200190815260200160002060000160049054906101000a900463ffffffff1663ffffffff16116114dc57600080fd5b6000600360008381526020019081526020016000206002018054600181600116156101000203166002900490501161151357600080fd5b600060016005604051806060016040528088815260200160008152602001878152509080600181540180825580915050906001820390600052602060002090600302016000909192909190915060008201518160000155602082015181600101556040820151816002019080519060200190611590929190612a6d565b50505003905080600860003373ffffffffffffffffffffffffffffffffffffffff1673ffffffffffffffffffffffffffffffffffffffff168152602001908152602001600020819055506001600c60003373ffffffffffffffffffffffffffffffffffffffff1673ffffffffffffffffffffffffffffffffffffffff16815260200190815260200160002060008282540192505081905550336009600083815260200190815260200160002060006101000a81548173ffffffffffffffffffffffffffffffffffffffff021916908373ffffffffffffffffffffffffffffffffffffffff16021790555084600a60008381526020019081526020016000208190555060008090505b60068110156117025781600d60008684600681106116b257fe5b602002015173ffffffffffffffffffffffffffffffffffffffff1673ffffffffffffffffffffffffffffffffffffffff168152602001908152602001600020819055508080600101915050611698565b507fe7b7bffb910588abb6e9a5c1a8c4b9a1544cd5050d71d14b57f3b468ca0245e28185876040518084815260200180602001838152602001828103825284818151815260200191508051906020019080838360005b83811015611773578082015181840152602081019050611758565b50505050905090810190601f1680156117a05780820380516001836020036101000a031916815260200191505b5094505050505060405180910390a15050505050565b6000600d60003373ffffffffffffffffffffffffffffffffffffffff1673ffffffffffffffffffffffffffffffffffffffff16815260200190815260200160002054905090565b6000600760003373ffffffffffffffffffffffffffffffffffffffff1673ffffffffffffffffffffffffffffffffffffffff168152602001908152602001600020541461184957600080fd5b81600080905060008090505b600681101561188c5761187b83826006811061186d57fe5b602002015161ffff166113d9565b820191508080600101915050611855565b5080341461189957600080fd5b8263ffffffff1660006001600660405180608001604052808981526020018863ffffffff168152602001600081526020013373ffffffffffffffffffffffffffffffffffffffff1681525090806001815401808255809150509060018203906000526020600020906004020160009091929091909150600082015181600001906006611926929190612aed565b5060208201518160010160006101000a81548163ffffffff021916908363ffffffff1602179055506040820151816002015560608201518160030160006101000a81548173ffffffffffffffffffffffffffffffffffffffff021916908373ffffffffffffffffffffffffffffffffffffffff160217905550505003905080600760003373ffffffffffffffffffffffffffffffffffffffff1673ffffffffffffffffffffffffffffffffffffffff168152602001908152602001600020819055503460058663ffffffff16815481106119fc57fe5b9060005260206000209060030201600101600082825401925050819055507fb4c55452b3a0fcd370281067a5378b1d6b0adb1584de15f43fbe8dd04021610b816040518082815260200191505060405180910390a1505050505050565b611a616120c9565b611a6a57600080fd5b8180600460008381526020019081526020016000206001015414611a8d57600080fd5b8160046000858152602001908152602001600020600301819055507fc93f30e5608cb7d10da279088d68019a15a03744a41741842cfcaf68ad4511b58383604051808381526020018281526020019250505060405180910390a1505050565b611af46120c9565b611afd57600080fd5b600073ffffffffffffffffffffffffffffffffffffffff166000809054906101000a900473ffffffffffffffffffffffffffffffffffffffff1673ffffffffffffffffffffffffffffffffffffffff167f8be0079c531659141344cd1fd0a4f28419497f9722a3daafe3b4186f6b6457e060405160405180910390a360008060006101000a81548173ffffffffffffffffffffffffffffffffffffffff021916908373ffffffffffffffffffffffffffffffffffffffff160217905550565b611bc46120c9565b611bcd57600080fd5b8360006003600083815260200190815260200160002060020180546001816001161561010002031660029004905014611c0557600080fd5b60006003600083815260200190815260200160002060000160009054906101000a900463ffffffff1663ffffffff1614611c3e57600080fd5b8263ffffffff164210611c5057600080fd5b8263ffffffff168263ffffffff1611611c6857600080fd5b60008511611c7557600080fd5b60405180606001604052808463ffffffff1681526020018363ffffffff168152602001858152506003600087815260200190815260200160002060008201518160000160006101000a81548163ffffffff021916908363ffffffff16021790555060208201518160000160046101000a81548163ffffffff021916908363ffffffff1602179055506040820151816002019080519060200190611d19929190612a6d565b509050507ff921e1476612bff3a21b96b63ae8a3ac03579129aad3ed13624285327365837c8585858560405180858152602001806020018463ffffffff1681526020018363ffffffff168152602001828103825285818151815260200191508051906020019080838360005b83811015611da0578082015181840152602081019050611d85565b50505050905090810190601f168015611dcd5780820380516001836020036101000a031916815260200191505b509550505050505060405180910390a15050505050565b60008090505b60068054905081101561209c57611dff612a23565b60068281548110611e0c57fe5b906000526020600020906004020160405180608001604052908160008201600680602002604051908101604052809291908260068015611e89576020028201916000905b82829054906101000a900461ffff1661ffff1681526020019060020190602082600101049283019260010382029150808411611e505790505b505050505081526020016001820160009054906101000a900463ffffffff1663ffffffff1663ffffffff168152602001600282015481526020016003820160009054906101000a900473ffffffffffffffffffffffffffffffffffffffff1673ffffffffffffffffffffffffffffffffffffffff1673ffffffffffffffffffffffffffffffffffffffff16815250509050611f22612b8a565b6005826020015163ffffffff1681548110611f3957fe5b90600052602060002090600302016040518060600160405290816000820154815260200160018201548152602001600282018054600181600116156101000203166002900480601f016020809104026020016040519081016040528092919081815260200182805460018160011615610100020316600290048015611fff5780601f10611fd457610100808354040283529160200191611fff565b820191906000526020600020905b815481529060010190602001808311611fe257829003601f168201915b505050505081525050905060008260400151905084826000015114156120695760008090505b8360000151506006811015612067576120568460000151826006811061204757fe5b602002015161ffff1687612120565b820191508080600101915050612025565b505b806006858154811061207757fe5b9060005260206000209060040201600201819055505050508080600101915050611dea565b5050565b60008060009054906101000a900473ffffffffffffffffffffffffffffffffffffffff16905090565b60008060009054906101000a900473ffffffffffffffffffffffffffffffffffffffff1673ffffffffffffffffffffffffffffffffffffffff163373ffffffffffffffffffffffffffffffffffffffff1614905090565b600060046000848152602001908152602001600020600201600083815260200190815260200160002054905092915050565b6000600b600083815260200190815260200160002060009054906101000a900473ffffffffffffffffffffffffffffffffffffffff169050919050565b6005818154811061219c57fe5b9060005260206000209060030201600091509050806000015490806001015490806002018054600181600116156101000203166002900480601f0160208091040260200160405190810160405280929190818152602001828054600181600116156101000203166002900480156122545780601f1061222957610100808354040283529160200191612254565b820191906000526020600020905b81548152906001019060200180831161223757829003601f168201915b5050505050905083565b60606000600460008481526020019081526020016000206000016004600085815260200190815260200160002060030154818054600181600116156101000203166002900480601f0160208091040260200160405190810160405280929190818152602001828054600181600116156101000203166002900480156123245780601f106122f957610100808354040283529160200191612324565b820191906000526020600020905b81548152906001019060200180831161230757829003601f168201915b5050505050915091509150915091565b60006005828154811061234357fe5b9060005260206000209060030201600101549050919050565b6123646120c9565b61236d57600080fd5b8160006003600083815260200190815260200160002060000160009054906101000a900463ffffffff1663ffffffff16116123a757600080fd5b60006003600083815260200190815260200160002060000160049054906101000a900463ffffffff1663ffffffff16116123e057600080fd5b6000600360008381526020019081526020016000206002018054600181600116156101000203166002900490501161241757600080fd5b816003600085815260200190815260200160002060000160046101000a81548163ffffffff021916908363ffffffff160217905550505050565b6124596120c9565b61246257600080fd5b8160006003600083815260200190815260200160002060000160009054906101000a900463ffffffff1663ffffffff161161249c57600080fd5b60006003600083815260200190815260200160002060000160049054906101000a900463ffffffff1663ffffffff16116124d557600080fd5b6000600360008381526020019081526020016000206002018054600181600116156101000203166002900490501161250c57600080fd5b6003600084815260200190815260200160002060000160009054906101000a900463ffffffff1663ffffffff168263ffffffff161161254a57600080fd5b816003600085815260200190815260200160002060000160006101000a81548163ffffffff021916908363ffffffff160217905550505050565b61258c6120c9565b61259557600080fd5b61259e81612909565b50565b6125a96120c9565b6125b257600080fd5b8160006004600083815260200190815260200160002060030154146125d657600080fd5b60006004600083815260200190815260200160002060010154146125f957600080fd5b6000600460008381526020019081526020016000206000018054600181600116156101000203166002900490501461263057600080fd5b600084511161263e57600080fd5b6000831161264b57600080fd5b6000821161265857600080fd5b6040518060600160405280858152602001848152602001670de0b6b3a764000084028152506004600085815260200190815260200160002060008201518160000190805190602001906126ac929190612a6d565b5060208201518160010155604082015181600301559050507f316e331d8ddc20f2a441eb5d779933dabf9d87c1f3d2010f4f566d6b07e645ff8385846040518084815260200180602001838152602001828103825284818151815260200191508051906020019080838360005b83811015612734578082015181840152602081019050612719565b50505050905090810190601f1680156127615780820380516001836020036101000a031916815260200191505b5094505050505060405180910390a150505050565b60008060ff6001901b90506000819050600080905060008090505b6006805490508110156128fd576127a6612a23565b600682815481106127b357fe5b906000526020600020906004020160405180608001604052908160008201600680602002604051908101604052809291908260068015612830576020028201916000905b82829054906101000a900461ffff1661ffff16815260200190600201906020826001010492830192600103820291508084116127f75790505b505050505081526020016001820160009054906101000a900463ffffffff1663ffffffff1663ffffffff168152602001600282015481526020016003820160009054906101000a900473ffffffffffffffffffffffffffffffffffffffff1673ffffffffffffffffffffffffffffffffffffffff1673ffffffffffffffffffffffffffffffffffffffff1681525050905086816020015163ffffffff1614156128ef5783816040015113156128ee5780604001519350806060015192505b5b508080600101915050612791565b50809350505050919050565b600073ffffffffffffffffffffffffffffffffffffffff168173ffffffffffffffffffffffffffffffffffffffff16141561294357600080fd5b8073ffffffffffffffffffffffffffffffffffffffff166000809054906101000a900473ffffffffffffffffffffffffffffffffffffffff1673ffffffffffffffffffffffffffffffffffffffff167f8be0079c531659141344cd1fd0a4f28419497f9722a3daafe3b4186f6b6457e060405160405180910390a3806000806101000a81548173ffffffffffffffffffffffffffffffffffffffff021916908373ffffffffffffffffffffffffffffffffffffffff16021790555050565b6040518060c00160405280600690602082028038833980820191505090505090565b6040518060800160405280612a36612bab565b8152602001600063ffffffff16815260200160008152602001600073ffffffffffffffffffffffffffffffffffffffff1681525090565b828054600181600116156101000203166002900490600052602060002090601f016020900481019282601f10612aae57805160ff1916838001178555612adc565b82800160010185558215612adc579182015b82811115612adb578251825591602001919060010190612ac0565b5b509050612ae99190612bcd565b5090565b826006600f01601090048101928215612b795791602002820160005b83821115612b4957835183826101000a81548161ffff021916908361ffff1602179055509260200192600201602081600101049283019260010302612b09565b8015612b775782816101000a81549061ffff0219169055600201602081600101049283019260010302612b49565b505b509050612b869190612bf2565b5090565b60405180606001604052806000815260200160008152602001606081525090565b6040518060c00160405280600690602082028038833980820191505090505090565b612bef91905b80821115612beb576000816000905550600101612bd3565b5090565b90565b612c2091905b80821115612c1c57600081816101000a81549061ffff021916905550600101612bf8565b5090565b9056fea265627a7a723158203e1d7530519b6d13bf57f1ed72cce533f3fd0a3699c21445bb3e715b868e3a5764736f6c63430005100032",
  "source": "pragma solidity >=0.4.22 <0.6.0;\n\n\nimport \"./LeagueOwnership.sol\";\n\ncontract League is LeagueOwnership {\n    event NewBet(uint betID);\n\n    \n\n    function getLeagueMoneyPot(uint _leagueID) public view returns(uint){\n      return leagues[_leagueID].moneyPot;\n    }\n\n    function placeBet(uint16[6] memory _golferIDs, uint32 _leagueID) public payable  noActiveBets correctEthValue(_golferIDs) leagueExists(_leagueID){\n        uint id = bets.push(Bet(_golferIDs, _leagueID, 0, msg.sender )) - 1;\n        userToBet[msg.sender] = id;\n        leagues[_leagueID].moneyPot += msg.value;\n        emit NewBet(id);\n    }\n\n    function placeBetNonArray(uint16 _golferID0, uint16 _golferID1, uint16 _golferID2, uint16 _golferID3, uint16 _golferID4, uint16 _golferID5, uint32 _leagueID ) public payable{\n      uint16[6] memory _golferIDs;\n      _golferIDs[0] = _golferID0;\n      _golferIDs[1] = _golferID1;\n      _golferIDs[2] = _golferID2;\n      _golferIDs[3] = _golferID3;\n      _golferIDs[4] = _golferID4;\n      _golferIDs[5] = _golferID5;\n      placeBet(_golferIDs, _leagueID);\n    }\n\n    function getUserGolferIds() public view returns(uint16[6] memory){\n      Bet memory bet = bets[userToBet[msg.sender]];\n      return bet.golferIDs;\n    }\n\n    function withdrawEther(uint _leagueID) public tournamentOver(leagues[_leagueID].tournamentID)  {\n        updateLeagueLeader(_leagueID);\n        require(leagueIDtoLeagueLeader[_leagueID] == msg.sender);\n        uint valueToSend = leagues[_leagueID].moneyPot;\n        leagues[_leagueID].moneyPot = 0;\n        msg.sender.transfer(valueToSend);\n    }\n\n    function getBet() public view returns (uint16[6] memory, uint32, int){\n        Bet memory bet = bets[userToBet[msg.sender]];\n        return (bet.golferIDs, bet.leagueID, bet.totalScore);\n    }\n\n    modifier noActiveBets()  {\n        require(userToBet[msg.sender] == 0);\n        _;\n    }\n\n    modifier correctEthValue(uint16[6] memory _golferIDs){\n\n        uint totalCostInWei = 0;\n        for (uint i = 0; i < _golferIDs.length; i++){\n            totalCostInWei += getGolferCost(_golferIDs[i]);\n        }\n\n        require(msg.value == totalCostInWei);\n        _;\n    }\n\n    modifier leagueExists(uint _leagueID){\n      //TODO\n      _;\n    }\n\n\n}\n",
  "sourcePath": "/home/dennon/CS481/blockchain-fantasy-golf/contracts/League.sol",
  "compiler": {
    "name": "solc",
    "version": "0.5.16+commit.9c3226ce.Emscripten.clang"
  },
  "schemaVersion": "3.0.23",
  "updatedAt": "2020-05-01T02:35:06.393Z",
  "devdoc": {
    "methods": {
      "isOwner()": {
        "return": "true if `msg.sender` is the owner of the contract."
      },
      "owner()": {
        "return": "the address of the owner."
      },
      "renounceOwnership()": {
        "details": "Allows the current owner to relinquish control of the contract."
      },
      "transferOwnership(address)": {
        "details": "Allows the current owner to transfer control of the contract to a newOwner.",
        "params": {
          "newOwner": "The address to transfer ownership to."
        }
      }
    }
  },
  "userdoc": {
    "methods": {
      "renounceOwnership()": {
        "notice": "Renouncing to ownership will leave the contract without an owner. It will not be possible to call the functions with the `onlyOwner` modifier anymore."
      }
    }
  }
}