{
  "contractName": "League",
  "abi": [
    {
      "anonymous": false,
      "inputs": [
        {
          "indexed": false,
          "internalType": "uint256",
          "name": "golferID",
          "type": "uint256"
        },
        {
          "indexed": false,
          "internalType": "uint256",
          "name": "newCost",
          "type": "uint256"
        }
      ],
      "name": "GolferCostUpdated",
      "type": "event"
    },
    {
      "anonymous": false,
      "inputs": [
        {
          "indexed": false,
          "internalType": "uint256",
          "name": "betID",
          "type": "uint256"
        }
      ],
      "name": "NewBet",
      "type": "event"
    },
    {
      "anonymous": false,
      "inputs": [
        {
          "indexed": false,
          "internalType": "uint256",
          "name": "golferID",
          "type": "uint256"
        },
        {
          "indexed": false,
          "internalType": "string",
          "name": "name",
          "type": "string"
        },
        {
          "indexed": false,
          "internalType": "uint256",
          "name": "cost",
          "type": "uint256"
        }
      ],
      "name": "NewGolfer",
      "type": "event"
    },
    {
      "anonymous": false,
      "inputs": [
        {
          "indexed": false,
          "internalType": "uint256",
          "name": "leagueID",
          "type": "uint256"
        },
        {
          "indexed": false,
          "internalType": "string",
          "name": "leagueName",
          "type": "string"
        },
        {
          "indexed": false,
          "internalType": "uint256",
          "name": "tournamentID",
          "type": "uint256"
        }
      ],
      "name": "NewLeague",
      "type": "event"
    },
    {
      "anonymous": false,
      "inputs": [
        {
          "indexed": true,
          "internalType": "address",
          "name": "previousOwner",
          "type": "address"
        },
        {
          "indexed": true,
          "internalType": "address",
          "name": "newOwner",
          "type": "address"
        }
      ],
      "name": "OwnershipTransferred",
      "type": "event"
    },
    {
      "anonymous": false,
      "inputs": [
        {
          "indexed": false,
          "internalType": "uint256",
          "name": "tournamentID",
          "type": "uint256"
        },
        {
          "indexed": false,
          "internalType": "string",
          "name": "name",
          "type": "string"
        },
        {
          "indexed": false,
          "internalType": "uint256",
          "name": "startTime",
          "type": "uint256"
        },
        {
          "indexed": false,
          "internalType": "uint256",
          "name": "endTime",
          "type": "uint256"
        }
      ],
      "name": "TournamentCreated",
      "type": "event"
    },
    {
      "constant": true,
      "inputs": [
        {
          "internalType": "uint256",
          "name": "",
          "type": "uint256"
        }
      ],
      "name": "bets",
      "outputs": [
        {
          "internalType": "uint32",
          "name": "leagueID",
          "type": "uint32"
        },
        {
          "internalType": "int256",
          "name": "totalScore",
          "type": "int256"
        },
        {
          "internalType": "address",
          "name": "user",
          "type": "address"
        }
      ],
      "payable": false,
      "stateMutability": "view",
      "type": "function"
    },
    {
      "constant": false,
      "inputs": [
        {
          "internalType": "string",
          "name": "_name",
          "type": "string"
        },
        {
          "internalType": "uint256",
          "name": "_id",
          "type": "uint256"
        },
        {
          "internalType": "uint256",
          "name": "_cost",
          "type": "uint256"
        }
      ],
      "name": "createGolfer",
      "outputs": [],
      "payable": false,
      "stateMutability": "nonpayable",
      "type": "function"
    },
    {
      "constant": false,
      "inputs": [
        {
          "internalType": "uint256",
          "name": "_tournamentID",
          "type": "uint256"
        },
        {
          "internalType": "string",
          "name": "_leagueName",
          "type": "string"
        }
      ],
      "name": "createLeague",
      "outputs": [],
      "payable": false,
      "stateMutability": "nonpayable",
      "type": "function"
    },
    {
      "constant": false,
      "inputs": [
        {
          "internalType": "uint256",
          "name": "_tournamentID",
          "type": "uint256"
        },
        {
          "internalType": "string",
          "name": "_name",
          "type": "string"
        },
        {
          "internalType": "uint32",
          "name": "_startTime",
          "type": "uint32"
        },
        {
          "internalType": "uint32",
          "name": "_endTime",
          "type": "uint32"
        }
      ],
      "name": "createTournament",
      "outputs": [],
      "payable": false,
      "stateMutability": "nonpayable",
      "type": "function"
    },
    {
      "constant": true,
      "inputs": [
        {
          "internalType": "uint256",
          "name": "_id",
          "type": "uint256"
        }
      ],
      "name": "getGolfer",
      "outputs": [
        {
          "internalType": "string",
          "name": "",
          "type": "string"
        },
        {
          "internalType": "uint256",
          "name": "",
          "type": "uint256"
        }
      ],
      "payable": false,
      "stateMutability": "view",
      "type": "function"
    },
    {
      "constant": true,
      "inputs": [
        {
          "internalType": "uint256",
          "name": "_golferID",
          "type": "uint256"
        }
      ],
      "name": "getGolferCost",
      "outputs": [
        {
          "internalType": "uint256",
          "name": "",
          "type": "uint256"
        }
      ],
      "payable": false,
      "stateMutability": "view",
      "type": "function"
    },
    {
      "constant": true,
      "inputs": [
        {
          "internalType": "uint256",
          "name": "_golferID",
          "type": "uint256"
        },
        {
          "internalType": "uint256",
          "name": "_tournamentID",
          "type": "uint256"
        }
      ],
      "name": "getGolferScore",
      "outputs": [
        {
          "internalType": "int256",
          "name": "",
          "type": "int256"
        }
      ],
      "payable": false,
      "stateMutability": "view",
      "type": "function"
    },
    {
      "constant": true,
      "inputs": [
        {
          "internalType": "address",
          "name": "addr",
          "type": "address"
        }
      ],
      "name": "getLeagueFromOwner",
      "outputs": [
        {
          "internalType": "uint256",
          "name": "",
          "type": "uint256"
        }
      ],
      "payable": false,
      "stateMutability": "view",
      "type": "function"
    },
    {
      "constant": true,
      "inputs": [
        {
          "internalType": "uint256",
          "name": "_leagueID",
          "type": "uint256"
        }
      ],
      "name": "getLeagueLeader",
      "outputs": [
        {
          "internalType": "address",
          "name": "",
          "type": "address"
        }
      ],
      "payable": false,
      "stateMutability": "view",
      "type": "function"
    },
    {
      "constant": true,
      "inputs": [],
      "name": "isOwner",
      "outputs": [
        {
          "internalType": "bool",
          "name": "",
          "type": "bool"
        }
      ],
      "payable": false,
      "stateMutability": "view",
      "type": "function"
    },
    {
      "constant": true,
      "inputs": [
        {
          "internalType": "uint256",
          "name": "",
          "type": "uint256"
        }
      ],
      "name": "leagues",
      "outputs": [
        {
          "internalType": "uint256",
          "name": "tournamentID",
          "type": "uint256"
        },
        {
          "internalType": "uint256",
          "name": "moneyPot",
          "type": "uint256"
        },
        {
          "internalType": "string",
          "name": "leagueName",
          "type": "string"
        }
      ],
      "payable": false,
      "stateMutability": "view",
      "type": "function"
    },
    {
      "constant": false,
      "inputs": [
        {
          "internalType": "uint256",
          "name": "_golferID",
          "type": "uint256"
        },
        {
          "internalType": "uint256",
          "name": "_newCost",
          "type": "uint256"
        }
      ],
      "name": "modifyGolferCost",
      "outputs": [],
      "payable": false,
      "stateMutability": "nonpayable",
      "type": "function"
    },
    {
      "constant": true,
      "inputs": [],
      "name": "owner",
      "outputs": [
        {
          "internalType": "address",
          "name": "",
          "type": "address"
        }
      ],
      "payable": false,
      "stateMutability": "view",
      "type": "function"
    },
    {
      "constant": false,
      "inputs": [],
      "name": "renounceOwnership",
      "outputs": [],
      "payable": false,
      "stateMutability": "nonpayable",
      "type": "function"
    },
    {
      "constant": false,
      "inputs": [
        {
          "internalType": "address",
          "name": "newOwner",
          "type": "address"
        }
      ],
      "name": "transferOwnership",
      "outputs": [],
      "payable": false,
      "stateMutability": "nonpayable",
      "type": "function"
    },
    {
      "constant": false,
      "inputs": [
        {
          "internalType": "uint256",
          "name": "_golferID",
          "type": "uint256"
        },
        {
          "internalType": "uint256",
          "name": "_tournamentID",
          "type": "uint256"
        },
        {
          "internalType": "int256",
          "name": "_score",
          "type": "int256"
        }
      ],
      "name": "updateGolferTournamentScore",
      "outputs": [],
      "payable": false,
      "stateMutability": "nonpayable",
      "type": "function"
    },
    {
      "constant": false,
      "inputs": [
        {
          "internalType": "uint256",
          "name": "_leagueID",
          "type": "uint256"
        }
      ],
      "name": "updateLeagueLeader",
      "outputs": [],
      "payable": false,
      "stateMutability": "nonpayable",
      "type": "function"
    },
    {
      "constant": false,
      "inputs": [
        {
          "internalType": "uint256",
          "name": "_tournamentID",
          "type": "uint256"
        },
        {
          "internalType": "uint32",
          "name": "_newEndTime",
          "type": "uint32"
        }
      ],
      "name": "updateTournamentEndTime",
      "outputs": [],
      "payable": false,
      "stateMutability": "nonpayable",
      "type": "function"
    },
    {
      "constant": false,
      "inputs": [
        {
          "internalType": "uint256",
          "name": "_tournamentID",
          "type": "uint256"
        },
        {
          "internalType": "uint32",
          "name": "_newStartTime",
          "type": "uint32"
        }
      ],
      "name": "updateTournamentStartTime",
      "outputs": [],
      "payable": false,
      "stateMutability": "nonpayable",
      "type": "function"
    },
    {
      "constant": false,
      "inputs": [
        {
          "internalType": "uint256",
          "name": "_tournamentID",
          "type": "uint256"
        }
      ],
      "name": "updateUserScores",
      "outputs": [],
      "payable": false,
      "stateMutability": "nonpayable",
      "type": "function"
    },
    {
      "constant": true,
      "inputs": [
        {
          "internalType": "uint256",
          "name": "_leagueID",
          "type": "uint256"
        }
      ],
      "name": "getLeagueMoneyPot",
      "outputs": [
        {
          "internalType": "uint256",
          "name": "",
          "type": "uint256"
        }
      ],
      "payable": false,
      "stateMutability": "view",
      "type": "function"
    },
    {
      "constant": false,
      "inputs": [
        {
          "internalType": "uint16[6]",
          "name": "_golferIDs",
          "type": "uint16[6]"
        },
        {
          "internalType": "uint32",
          "name": "_leagueID",
          "type": "uint32"
        }
      ],
      "name": "placeBet",
      "outputs": [],
      "payable": true,
      "stateMutability": "payable",
      "type": "function"
    },
    {
      "constant": false,
      "inputs": [
        {
          "internalType": "uint16",
          "name": "_golferID0",
          "type": "uint16"
        },
        {
          "internalType": "uint16",
          "name": "_golferID1",
          "type": "uint16"
        },
        {
          "internalType": "uint16",
          "name": "_golferID2",
          "type": "uint16"
        },
        {
          "internalType": "uint16",
          "name": "_golferID3",
          "type": "uint16"
        },
        {
          "internalType": "uint16",
          "name": "_golferID4",
          "type": "uint16"
        },
        {
          "internalType": "uint16",
          "name": "_golferID5",
          "type": "uint16"
        },
        {
          "internalType": "uint32",
          "name": "_leagueID",
          "type": "uint32"
        }
      ],
      "name": "placeBet",
      "outputs": [],
      "payable": true,
      "stateMutability": "payable",
      "type": "function"
    },
    {
      "constant": false,
      "inputs": [
        {
          "internalType": "uint256",
          "name": "_leagueID",
          "type": "uint256"
        }
      ],
      "name": "withdrawEther",
      "outputs": [],
      "payable": false,
      "stateMutability": "nonpayable",
      "type": "function"
    },
    {
      "constant": true,
      "inputs": [],
      "name": "getBet",
      "outputs": [
        {
          "internalType": "uint16[6]",
          "name": "",
          "type": "uint16[6]"
        },
        {
          "internalType": "uint32",
          "name": "",
          "type": "uint32"
        },
        {
          "internalType": "int256",
          "name": "",
          "type": "int256"
        }
      ],
      "payable": false,
      "stateMutability": "view",
      "type": "function"
    }
  ],
  "bytecode": "0x6080604052735b0c9dc0afe417858dcc8db5269e47abc572aa77600160006101000a81548173ffffffffffffffffffffffffffffffffffffffff021916908373ffffffffffffffffffffffffffffffffffffffff160217905550600160009054906101000a900473ffffffffffffffffffffffffffffffffffffffff16600260006101000a81548173ffffffffffffffffffffffffffffffffffffffff021916908373ffffffffffffffffffffffffffffffffffffffff160217905550336000806101000a81548173ffffffffffffffffffffffffffffffffffffffff021916908373ffffffffffffffffffffffffffffffffffffffff1602179055506000809054906101000a900473ffffffffffffffffffffffffffffffffffffffff1673ffffffffffffffffffffffffffffffffffffffff16600073ffffffffffffffffffffffffffffffffffffffff167f8be0079c531659141344cd1fd0a4f28419497f9722a3daafe3b4186f6b6457e060405160405180910390a36129bf806101876000396000f3fe6080604052600436106101665760003560e01c806381bbb705116100d1578063c648fefe1161008a578063eeea5c7e11610064578063eeea5c7e14610a64578063effd16be14610aaf578063f2fde38b14610afa578063fddb0aaa14610b4b57610166565b8063c648fefe14610898578063e7650c8f1461095a578063e8b0552e14610a1557610166565b806381bbb7051461067b5780638da5cb5b146106b65780638e4d6d081461070d5780638f32d59b146107955780638ff6e349146107c4578063b399042b1461081d57610166565b80634850c3cc116101235780634850c3cc1461040457806352dcdc0e146104535780635abde835146104c8578063715018a61461050d578063755dda2d146105245780637578b4ce1461061657610166565b8063107ab3e71461016b57806311d24a791461023d57806320835e8c1461027857806322af00fa146102e55780633bed33ce1461037a5780633c5ed33a146103b5575b600080fd5b34801561017757600080fd5b5061023b6004803603604081101561018e57600080fd5b8101908080359060200190929190803590602001906401000000008111156101b557600080fd5b8201836020820111156101c757600080fd5b803590602001918460018302840111640100000000831117156101e957600080fd5b91908080601f016020809104026020016040519081016040528093929190818152602001838380828437600081840152601f19601f820116905080830192505050505050509192919290505050610c27565b005b34801561024957600080fd5b506102766004803603602081101561026057600080fd5b8101908080359060200190929190505050610f4e565b005b34801561028457600080fd5b5061028d610fd2565b6040518084600660200280838360005b838110156102b857808201518184015260208101905061029d565b505050509050018363ffffffff1663ffffffff168152602001828152602001935050505060405180910390f35b3480156102f157600080fd5b5061031e6004803603602081101561030857600080fd5b810190808035906020019092919050505061115d565b604051808463ffffffff1663ffffffff1681526020018381526020018273ffffffffffffffffffffffffffffffffffffffff1673ffffffffffffffffffffffffffffffffffffffff168152602001935050505060405180910390f35b34801561038657600080fd5b506103b36004803603602081101561039d57600080fd5b81019080803590602001909291905050506111c4565b005b3480156103c157600080fd5b50610402600480360360608110156103d857600080fd5b81019080803590602001909291908035906020019092919080359060200190929190505050611322565b005b34801561041057600080fd5b5061043d6004803603602081101561042757600080fd5b8101908080359060200190929190505050611433565b6040518082815260200191505060405180910390f35b6104c6600480360360e081101561046957600080fd5b810190808060c001906006806020026040519081016040528092919082600660200280828437600081840152601f19601f8201169050808301925050505050509192919290803563ffffffff169060200190929190505050611477565b005b3480156104d457600080fd5b5061050b600480360360408110156104eb57600080fd5b8101908080359060200190929190803590602001909291905050506116d3565b005b34801561051957600080fd5b50610522611766565b005b34801561053057600080fd5b506106146004803603608081101561054757600080fd5b81019080803590602001909291908035906020019064010000000081111561056e57600080fd5b82018360208201111561058057600080fd5b803590602001918460018302840111640100000000831117156105a257600080fd5b91908080601f016020809104026020016040519081016040528093929190818152602001838380828437600081840152601f19601f820116905080830192505050505050509192919290803563ffffffff169060200190929190803563ffffffff169060200190929190505050611836565b005b34801561062257600080fd5b506106656004803603602081101561063957600080fd5b81019080803573ffffffffffffffffffffffffffffffffffffffff169060200190929190505050611a5e565b6040518082815260200191505060405180910390f35b34801561068757600080fd5b506106b46004803603602081101561069e57600080fd5b8101908080359060200190929190505050611a69565b005b3480156106c257600080fd5b506106cb611d25565b604051808273ffffffffffffffffffffffffffffffffffffffff1673ffffffffffffffffffffffffffffffffffffffff16815260200191505060405180910390f35b610793600480360360e081101561072357600080fd5b81019080803561ffff169060200190929190803561ffff169060200190929190803561ffff169060200190929190803561ffff169060200190929190803561ffff169060200190929190803561ffff169060200190929190803563ffffffff169060200190929190505050611d4e565b005b3480156107a157600080fd5b506107aa611e30565b604051808215151515815260200191505060405180910390f35b3480156107d057600080fd5b50610807600480360360408110156107e757600080fd5b810190808035906020019092919080359060200190929190505050611e87565b6040518082815260200191505060405180910390f35b34801561082957600080fd5b506108566004803603602081101561084057600080fd5b8101908080359060200190929190505050611eb9565b604051808273ffffffffffffffffffffffffffffffffffffffff1673ffffffffffffffffffffffffffffffffffffffff16815260200191505060405180910390f35b3480156108a457600080fd5b506108d1600480360360208110156108bb57600080fd5b8101908080359060200190929190505050611ef6565b6040518084815260200183815260200180602001828103825283818151815260200191508051906020019080838360005b8381101561091d578082015181840152602081019050610902565b50505050905090810190601f16801561094a5780820380516001836020036101000a031916815260200191505b5094505050505060405180910390f35b34801561096657600080fd5b506109936004803603602081101561097d57600080fd5b8101908080359060200190929190505050611fc5565b6040518080602001838152602001828103825284818151815260200191508051906020019080838360005b838110156109d95780820151818401526020810190506109be565b50505050905090810190601f168015610a065780820380516001836020036101000a031916815260200191505b50935050505060405180910390f35b348015610a2157600080fd5b50610a4e60048036036020811015610a3857600080fd5b810190808035906020019092919050505061209b565b6040518082815260200191505060405180910390f35b348015610a7057600080fd5b50610aad60048036036040811015610a8757600080fd5b8101908080359060200190929190803563ffffffff1690602001909291905050506120c3565b005b348015610abb57600080fd5b50610af860048036036040811015610ad257600080fd5b8101908080359060200190929190803563ffffffff1690602001909291905050506121b8565b005b348015610b0657600080fd5b50610b4960048036036020811015610b1d57600080fd5b81019080803573ffffffffffffffffffffffffffffffffffffffff1690602001909291905050506122eb565b005b348015610b5757600080fd5b50610c2560048036036060811015610b6e57600080fd5b8101908080359060200190640100000000811115610b8b57600080fd5b820183602082011115610b9d57600080fd5b80359060200191846001830284011164010000000083111715610bbf57600080fd5b91908080601f016020809104026020016040519081016040528093929190818152602001838380828437600081840152601f19601f8201169050808301925050505050505091929192908035906020019092919080359060200190929190505050612308565b005b6000600c60003373ffffffffffffffffffffffffffffffffffffffff1673ffffffffffffffffffffffffffffffffffffffff1681526020019081526020016000205414610c7357600080fd5b8160006003600083815260200190815260200160002060000160009054906101000a900463ffffffff1663ffffffff1611610cad57600080fd5b60006003600083815260200190815260200160002060000160049054906101000a900463ffffffff1663ffffffff1611610ce657600080fd5b60006003600083815260200190815260200160002060020180546001816001161561010002031660029004905011610d1d57600080fd5b600060016005604051806060016040528087815260200160008152602001868152509080600181540180825580915050906001820390600052602060002090600302016000909192909190915060008201518160000155602082015181600101556040820151816002019080519060200190610d9a929190612768565b50505003905080600860003373ffffffffffffffffffffffffffffffffffffffff1673ffffffffffffffffffffffffffffffffffffffff168152602001908152602001600020819055506001600c60003373ffffffffffffffffffffffffffffffffffffffff1673ffffffffffffffffffffffffffffffffffffffff16815260200190815260200160002060008282540192505081905550336009600083815260200190815260200160002060006101000a81548173ffffffffffffffffffffffffffffffffffffffff021916908373ffffffffffffffffffffffffffffffffffffffff16021790555083600a6000838152602001908152602001600020819055507fe7b7bffb910588abb6e9a5c1a8c4b9a1544cd5050d71d14b57f3b468ca0245e28184866040518084815260200180602001838152602001828103825284818151815260200191508051906020019080838360005b83811015610f0c578082015181840152602081019050610ef1565b50505050905090810190601f168015610f395780820380516001836020036101000a031916815260200191505b5094505050505060405180910390a150505050565b610f7560058281548110610f5e57fe5b906000526020600020906003020160000154611a69565b610f7e816124dd565b600b600083815260200190815260200160002060006101000a81548173ffffffffffffffffffffffffffffffffffffffff021916908373ffffffffffffffffffffffffffffffffffffffff16021790555050565b610fda6127e8565b600080610fe561280a565b6006600760003373ffffffffffffffffffffffffffffffffffffffff1673ffffffffffffffffffffffffffffffffffffffff168152602001908152602001600020548154811061103157fe5b9060005260206000209060040201604051806080016040529081600082016006806020026040519081016040528092919082600680156110ae576020028201916000905b82829054906101000a900461ffff1661ffff16815260200190600201906020826001010492830192600103820291508084116110755790505b505050505081526020016001820160009054906101000a900463ffffffff1663ffffffff1663ffffffff168152602001600282015481526020016003820160009054906101000a900473ffffffffffffffffffffffffffffffffffffffff1673ffffffffffffffffffffffffffffffffffffffff1673ffffffffffffffffffffffffffffffffffffffff1681525050905080600001518160200151826040015182925093509350935050909192565b6006818154811061116a57fe5b90600052602060002090600402016000915090508060010160009054906101000a900463ffffffff16908060020154908060030160009054906101000a900473ffffffffffffffffffffffffffffffffffffffff16905083565b600581815481106111d157fe5b9060005260206000209060030201600001546003600082815260200190815260200160002060000160049054906101000a900463ffffffff1663ffffffff16421161121b57600080fd5b61122482610f4e565b3373ffffffffffffffffffffffffffffffffffffffff16600b600084815260200190815260200160002060009054906101000a900473ffffffffffffffffffffffffffffffffffffffff1673ffffffffffffffffffffffffffffffffffffffff161461128f57600080fd5b60006005838154811061129e57fe5b90600052602060002090600302016001015490506000600584815481106112c157fe5b9060005260206000209060030201600101819055503373ffffffffffffffffffffffffffffffffffffffff166108fc829081150290604051600060405180830381858888f1935050505015801561131c573d6000803e3d6000fd5b50505050565b61132a611e30565b61133357600080fd5b828060046000838152602001908152602001600020600101541461135657600080fd5b8260006003600083815260200190815260200160002060000160009054906101000a900463ffffffff1663ffffffff161161139057600080fd5b60006003600083815260200190815260200160002060000160049054906101000a900463ffffffff1663ffffffff16116113c957600080fd5b6000600360008381526020019081526020016000206002018054600181600116156101000203166002900490501161140057600080fd5b82600460008781526020019081526020016000206002016000868152602001908152602001600020819055505050505050565b6000818060046000838152602001908152602001600020600101541461145857600080fd5b6004600084815260200190815260200160002060030154915050919050565b6000600760003373ffffffffffffffffffffffffffffffffffffffff1673ffffffffffffffffffffffffffffffffffffffff16815260200190815260200160002054146114c357600080fd5b81600080905060008090505b6006811015611506576114f58382600681106114e757fe5b602002015161ffff16611433565b8201915080806001019150506114cf565b5080341461151357600080fd5b8263ffffffff1660006001600660405180608001604052808981526020018863ffffffff168152602001600081526020013373ffffffffffffffffffffffffffffffffffffffff16815250908060018154018082558091505090600182039060005260206000209060040201600090919290919091506000820151816000019060066115a0929190612854565b5060208201518160010160006101000a81548163ffffffff021916908363ffffffff1602179055506040820151816002015560608201518160030160006101000a81548173ffffffffffffffffffffffffffffffffffffffff021916908373ffffffffffffffffffffffffffffffffffffffff160217905550505003905080600760003373ffffffffffffffffffffffffffffffffffffffff1673ffffffffffffffffffffffffffffffffffffffff168152602001908152602001600020819055503460058663ffffffff168154811061167657fe5b9060005260206000209060030201600101600082825401925050819055507fb4c55452b3a0fcd370281067a5378b1d6b0adb1584de15f43fbe8dd04021610b816040518082815260200191505060405180910390a1505050505050565b6116db611e30565b6116e457600080fd5b818060046000838152602001908152602001600020600101541461170757600080fd5b8160046000858152602001908152602001600020600301819055507fc93f30e5608cb7d10da279088d68019a15a03744a41741842cfcaf68ad4511b58383604051808381526020018281526020019250505060405180910390a1505050565b61176e611e30565b61177757600080fd5b600073ffffffffffffffffffffffffffffffffffffffff166000809054906101000a900473ffffffffffffffffffffffffffffffffffffffff1673ffffffffffffffffffffffffffffffffffffffff167f8be0079c531659141344cd1fd0a4f28419497f9722a3daafe3b4186f6b6457e060405160405180910390a360008060006101000a81548173ffffffffffffffffffffffffffffffffffffffff021916908373ffffffffffffffffffffffffffffffffffffffff160217905550565b61183e611e30565b61184757600080fd5b836000600360008381526020019081526020016000206002018054600181600116156101000203166002900490501461187f57600080fd5b60006003600083815260200190815260200160002060000160009054906101000a900463ffffffff1663ffffffff16146118b857600080fd5b8263ffffffff1642106118ca57600080fd5b8263ffffffff168263ffffffff16116118e257600080fd5b600085116118ef57600080fd5b60405180606001604052808463ffffffff1681526020018363ffffffff168152602001858152506003600087815260200190815260200160002060008201518160000160006101000a81548163ffffffff021916908363ffffffff16021790555060208201518160000160046101000a81548163ffffffff021916908363ffffffff1602179055506040820151816002019080519060200190611993929190612768565b509050507ff921e1476612bff3a21b96b63ae8a3ac03579129aad3ed13624285327365837c8585858560405180858152602001806020018463ffffffff1681526020018363ffffffff168152602001828103825285818151815260200191508051906020019080838360005b83811015611a1a5780820151818401526020810190506119ff565b50505050905090810190601f168015611a475780820380516001836020036101000a031916815260200191505b509550505050505060405180910390a15050505050565b600060019050919050565b60008090505b600680549050811015611d2157611a8461280a565b60068281548110611a9157fe5b906000526020600020906004020160405180608001604052908160008201600680602002604051908101604052809291908260068015611b0e576020028201916000905b82829054906101000a900461ffff1661ffff1681526020019060020190602082600101049283019260010382029150808411611ad55790505b505050505081526020016001820160009054906101000a900463ffffffff1663ffffffff1663ffffffff168152602001600282015481526020016003820160009054906101000a900473ffffffffffffffffffffffffffffffffffffffff1673ffffffffffffffffffffffffffffffffffffffff1673ffffffffffffffffffffffffffffffffffffffff16815250509050611ba76128f1565b6005826020015163ffffffff1681548110611bbe57fe5b90600052602060002090600302016040518060600160405290816000820154815260200160018201548152602001600282018054600181600116156101000203166002900480601f016020809104026020016040519081016040528092919081815260200182805460018160011615610100020316600290048015611c845780601f10611c5957610100808354040283529160200191611c84565b820191906000526020600020905b815481529060010190602001808311611c6757829003601f168201915b50505050508152505090506000826040015190508482600001511415611cee5760008090505b8360000151506006811015611cec57611cdb84600001518260068110611ccc57fe5b602002015161ffff1687611e87565b820191508080600101915050611caa565b505b8060068581548110611cfc57fe5b9060005260206000209060040201600201819055505050508080600101915050611a6f565b5050565b60008060009054906101000a900473ffffffffffffffffffffffffffffffffffffffff16905090565b611d566127e8565b8781600060068110611d6457fe5b602002019061ffff16908161ffff16815250508681600160068110611d8557fe5b602002019061ffff16908161ffff16815250508581600260068110611da657fe5b602002019061ffff16908161ffff16815250508481600360068110611dc757fe5b602002019061ffff16908161ffff16815250508381600460068110611de857fe5b602002019061ffff16908161ffff16815250508281600560068110611e0957fe5b602002019061ffff16908161ffff1681525050611e268183611477565b5050505050505050565b60008060009054906101000a900473ffffffffffffffffffffffffffffffffffffffff1673ffffffffffffffffffffffffffffffffffffffff163373ffffffffffffffffffffffffffffffffffffffff1614905090565b600060046000848152602001908152602001600020600201600083815260200190815260200160002054905092915050565b6000600b600083815260200190815260200160002060009054906101000a900473ffffffffffffffffffffffffffffffffffffffff169050919050565b60058181548110611f0357fe5b9060005260206000209060030201600091509050806000015490806001015490806002018054600181600116156101000203166002900480601f016020809104026020016040519081016040528092919081815260200182805460018160011615610100020316600290048015611fbb5780601f10611f9057610100808354040283529160200191611fbb565b820191906000526020600020905b815481529060010190602001808311611f9e57829003601f168201915b5050505050905083565b60606000600460008481526020019081526020016000206000016004600085815260200190815260200160002060030154818054600181600116156101000203166002900480601f01602080910402602001604051908101604052809291908181526020018280546001816001161561010002031660029004801561208b5780601f106120605761010080835404028352916020019161208b565b820191906000526020600020905b81548152906001019060200180831161206e57829003601f168201915b5050505050915091509150915091565b6000600582815481106120aa57fe5b9060005260206000209060030201600101549050919050565b6120cb611e30565b6120d457600080fd5b8160006003600083815260200190815260200160002060000160009054906101000a900463ffffffff1663ffffffff161161210e57600080fd5b60006003600083815260200190815260200160002060000160049054906101000a900463ffffffff1663ffffffff161161214757600080fd5b6000600360008381526020019081526020016000206002018054600181600116156101000203166002900490501161217e57600080fd5b816003600085815260200190815260200160002060000160046101000a81548163ffffffff021916908363ffffffff160217905550505050565b6121c0611e30565b6121c957600080fd5b8160006003600083815260200190815260200160002060000160009054906101000a900463ffffffff1663ffffffff161161220357600080fd5b60006003600083815260200190815260200160002060000160049054906101000a900463ffffffff1663ffffffff161161223c57600080fd5b6000600360008381526020019081526020016000206002018054600181600116156101000203166002900490501161227357600080fd5b6003600084815260200190815260200160002060000160009054906101000a900463ffffffff1663ffffffff168263ffffffff16116122b157600080fd5b816003600085815260200190815260200160002060000160006101000a81548163ffffffff021916908363ffffffff160217905550505050565b6122f3611e30565b6122fc57600080fd5b61230581612670565b50565b612310611e30565b61231957600080fd5b81600060046000838152602001908152602001600020600301541461233d57600080fd5b600060046000838152602001908152602001600020600101541461236057600080fd5b6000600460008381526020019081526020016000206000018054600181600116156101000203166002900490501461239757600080fd5b60008451116123a557600080fd5b600083116123b257600080fd5b600082116123bf57600080fd5b6040518060600160405280858152602001848152602001670de0b6b3a76400008402815250600460008581526020019081526020016000206000820151816000019080519060200190612413929190612768565b5060208201518160010155604082015181600301559050507f316e331d8ddc20f2a441eb5d779933dabf9d87c1f3d2010f4f566d6b07e645ff8385846040518084815260200180602001838152602001828103825284818151815260200191508051906020019080838360005b8381101561249b578082015181840152602081019050612480565b50505050905090810190601f1680156124c85780820380516001836020036101000a031916815260200191505b5094505050505060405180910390a150505050565b60008060ff6001901b90506000819050600080905060008090505b6006805490508110156126645761250d61280a565b6006828154811061251a57fe5b906000526020600020906004020160405180608001604052908160008201600680602002604051908101604052809291908260068015612597576020028201916000905b82829054906101000a900461ffff1661ffff168152602001906002019060208260010104928301926001038202915080841161255e5790505b505050505081526020016001820160009054906101000a900463ffffffff1663ffffffff1663ffffffff168152602001600282015481526020016003820160009054906101000a900473ffffffffffffffffffffffffffffffffffffffff1673ffffffffffffffffffffffffffffffffffffffff1673ffffffffffffffffffffffffffffffffffffffff1681525050905086816020015163ffffffff1614156126565783816040015113156126555780604001519350806060015192505b5b5080806001019150506124f8565b50809350505050919050565b600073ffffffffffffffffffffffffffffffffffffffff168173ffffffffffffffffffffffffffffffffffffffff1614156126aa57600080fd5b8073ffffffffffffffffffffffffffffffffffffffff166000809054906101000a900473ffffffffffffffffffffffffffffffffffffffff1673ffffffffffffffffffffffffffffffffffffffff167f8be0079c531659141344cd1fd0a4f28419497f9722a3daafe3b4186f6b6457e060405160405180910390a3806000806101000a81548173ffffffffffffffffffffffffffffffffffffffff021916908373ffffffffffffffffffffffffffffffffffffffff16021790555050565b828054600181600116156101000203166002900490600052602060002090601f016020900481019282601f106127a957805160ff19168380011785556127d7565b828001600101855582156127d7579182015b828111156127d65782518255916020019190600101906127bb565b5b5090506127e49190612912565b5090565b6040518060c00160405280600690602082028038833980820191505090505090565b604051806080016040528061281d612937565b8152602001600063ffffffff16815260200160008152602001600073ffffffffffffffffffffffffffffffffffffffff1681525090565b826006600f016010900481019282156128e05791602002820160005b838211156128b057835183826101000a81548161ffff021916908361ffff1602179055509260200192600201602081600101049283019260010302612870565b80156128de5782816101000a81549061ffff02191690556002016020816001010492830192600103026128b0565b505b5090506128ed9190612959565b5090565b60405180606001604052806000815260200160008152602001606081525090565b61293491905b80821115612930576000816000905550600101612918565b5090565b90565b6040518060c00160405280600690602082028038833980820191505090505090565b61298791905b8082111561298357600081816101000a81549061ffff02191690555060010161295f565b5090565b9056fea265627a7a72315820866ecb620ad0e2f3e5740f1600818a4d214175ca668e889e75642b953d0887c964736f6c63430005100032",
  "source": "pragma solidity >=0.4.22 <0.6.0;\n\n\nimport \"./LeagueOwnership.sol\";\n\ncontract League is LeagueOwnership {\n    event NewBet(uint betID);\n\n\n    function getLeagueMoneyPot(uint _leagueID) public view returns(uint){\n      return leagues[_leagueID].moneyPot;\n    }\n\n    function placeBet(uint16[6] memory _golferIDs, uint32 _leagueID) public payable  noActiveBets correctEthValue(_golferIDs) leagueExists(_leagueID){\n        uint id = bets.push(Bet(_golferIDs, _leagueID, 0, msg.sender )) - 1;\n        userToBet[msg.sender] = id;\n        leagues[_leagueID].moneyPot += msg.value;\n        emit NewBet(id);\n    }\n\n    function placeBet(uint16 _golferID0, uint16 _golferID1, uint16 _golferID2, uint16 _golferID3, uint16 _golferID4, uint16 _golferID5, uint32 _leagueID ) public payable{\n      uint16[6] memory _golferIDs;\n      _golferIDs[0] = _golferID0;\n      _golferIDs[1] = _golferID1;\n      _golferIDs[2] = _golferID2;\n      _golferIDs[3] = _golferID3;\n      _golferIDs[4] = _golferID4;\n      _golferIDs[5] = _golferID5;\n      placeBet(_golferIDs, _leagueID);\n    }\n\n    function withdrawEther(uint _leagueID) public tournamentOver(leagues[_leagueID].tournamentID)  {\n        updateLeagueLeader(_leagueID);\n        require(leagueIDtoLeagueLeader[_leagueID] == msg.sender);\n        uint valueToSend = leagues[_leagueID].moneyPot;\n        leagues[_leagueID].moneyPot = 0;\n        msg.sender.transfer(valueToSend);\n    }\n\n    function getBet() public view returns (uint16[6] memory, uint32, int){\n        Bet memory bet = bets[userToBet[msg.sender]];\n        return (bet.golferIDs, bet.leagueID, bet.totalScore);\n    }\n\n\n\n\n\n    modifier noActiveBets()  {\n        require(userToBet[msg.sender] == 0);\n        _;\n    }\n\n    modifier correctEthValue(uint16[6] memory _golferIDs){\n\n        uint totalCostInWei = 0;\n        for (uint i = 0; i < _golferIDs.length; i++){\n            totalCostInWei += getGolferCost(_golferIDs[i]);\n        }\n\n        require(msg.value == totalCostInWei);\n        _;\n    }\n\n    modifier leagueExists(uint _leagueID){\n      //TODO\n      _;\n    }\n\n\n}\n",
  "sourcePath": "/home/dennon/CS481/blockchain-fantasy-golf/contracts/League.sol",
  "compiler": {
    "name": "solc",
    "version": "0.5.16+commit.9c3226ce.Emscripten.clang"
  },
  "schemaVersion": "3.0.23",
  "updatedAt": "2020-04-30T22:46:39.551Z",
  "devdoc": {
    "methods": {
      "isOwner()": {
        "return": "true if `msg.sender` is the owner of the contract."
      },
      "owner()": {
        "return": "the address of the owner."
      },
      "renounceOwnership()": {
        "details": "Allows the current owner to relinquish control of the contract."
      },
      "transferOwnership(address)": {
        "details": "Allows the current owner to transfer control of the contract to a newOwner.",
        "params": {
          "newOwner": "The address to transfer ownership to."
        }
      }
    }
  },
  "userdoc": {
    "methods": {
      "renounceOwnership()": {
        "notice": "Renouncing to ownership will leave the contract without an owner. It will not be possible to call the functions with the `onlyOwner` modifier anymore."
      }
    }
  }
}