{
  "contractName": "GolfDataOracle",
  "abi": [
    {
      "anonymous": false,
      "inputs": [
        {
          "indexed": true,
          "internalType": "address",
          "name": "previousOwner",
          "type": "address"
        },
        {
          "indexed": true,
          "internalType": "address",
          "name": "newOwner",
          "type": "address"
        }
      ],
      "name": "OwnershipTransferred",
      "type": "event"
    },
    {
      "constant": true,
      "inputs": [],
      "name": "isOwner",
      "outputs": [
        {
          "internalType": "bool",
          "name": "",
          "type": "bool"
        }
      ],
      "payable": false,
      "stateMutability": "view",
      "type": "function"
    },
    {
      "constant": true,
      "inputs": [],
      "name": "owner",
      "outputs": [
        {
          "internalType": "address",
          "name": "",
          "type": "address"
        }
      ],
      "payable": false,
      "stateMutability": "view",
      "type": "function"
    },
    {
      "constant": false,
      "inputs": [],
      "name": "renounceOwnership",
      "outputs": [],
      "payable": false,
      "stateMutability": "nonpayable",
      "type": "function"
    },
    {
      "constant": false,
      "inputs": [
        {
          "internalType": "address",
          "name": "newOwner",
          "type": "address"
        }
      ],
      "name": "transferOwnership",
      "outputs": [],
      "payable": false,
      "stateMutability": "nonpayable",
      "type": "function"
    },
    {
      "constant": false,
      "inputs": [
        {
          "internalType": "string",
          "name": "_name",
          "type": "string"
        },
        {
          "internalType": "uint256",
          "name": "_id",
          "type": "uint256"
        },
        {
          "internalType": "uint256",
          "name": "_cost",
          "type": "uint256"
        }
      ],
      "name": "createGolfer",
      "outputs": [],
      "payable": false,
      "stateMutability": "nonpayable",
      "type": "function"
    },
    {
      "constant": false,
      "inputs": [
        {
          "internalType": "uint256",
          "name": "_tournamentID",
          "type": "uint256"
        },
        {
          "internalType": "string",
          "name": "_name",
          "type": "string"
        },
        {
          "internalType": "uint32",
          "name": "_startTime",
          "type": "uint32"
        },
        {
          "internalType": "uint32",
          "name": "_endTime",
          "type": "uint32"
        }
      ],
      "name": "createTournament",
      "outputs": [],
      "payable": false,
      "stateMutability": "nonpayable",
      "type": "function"
    },
    {
      "constant": false,
      "inputs": [
        {
          "internalType": "uint256",
          "name": "_tournamentID",
          "type": "uint256"
        },
        {
          "internalType": "uint32",
          "name": "_newStartTime",
          "type": "uint32"
        }
      ],
      "name": "updateTournamentStartTime",
      "outputs": [],
      "payable": false,
      "stateMutability": "nonpayable",
      "type": "function"
    },
    {
      "constant": false,
      "inputs": [
        {
          "internalType": "uint256",
          "name": "_tournamentID",
          "type": "uint256"
        },
        {
          "internalType": "uint32",
          "name": "_newEndTime",
          "type": "uint32"
        }
      ],
      "name": "updateTournamentEndTime",
      "outputs": [],
      "payable": false,
      "stateMutability": "nonpayable",
      "type": "function"
    },
    {
      "constant": false,
      "inputs": [
        {
          "internalType": "uint256",
          "name": "_golferID",
          "type": "uint256"
        },
        {
          "internalType": "uint256",
          "name": "_tournamentID",
          "type": "uint256"
        },
        {
          "internalType": "int256",
          "name": "_score",
          "type": "int256"
        }
      ],
      "name": "updateGolferTournamentScore",
      "outputs": [],
      "payable": false,
      "stateMutability": "nonpayable",
      "type": "function"
    },
    {
      "constant": true,
      "inputs": [
        {
          "internalType": "uint256",
          "name": "_golferID",
          "type": "uint256"
        },
        {
          "internalType": "uint256",
          "name": "_tournamentID",
          "type": "uint256"
        }
      ],
      "name": "getGolferScore",
      "outputs": [
        {
          "internalType": "int256",
          "name": "",
          "type": "int256"
        }
      ],
      "payable": false,
      "stateMutability": "view",
      "type": "function"
    },
    {
      "constant": true,
      "inputs": [
        {
          "internalType": "uint256",
          "name": "_id",
          "type": "uint256"
        }
      ],
      "name": "getGolfer",
      "outputs": [
        {
          "internalType": "string",
          "name": "",
          "type": "string"
        },
        {
          "internalType": "uint256",
          "name": "",
          "type": "uint256"
        }
      ],
      "payable": false,
      "stateMutability": "view",
      "type": "function"
    },
    {
      "constant": true,
      "inputs": [
        {
          "internalType": "uint256",
          "name": "_golferID",
          "type": "uint256"
        }
      ],
      "name": "getGolferCost",
      "outputs": [
        {
          "internalType": "uint256",
          "name": "",
          "type": "uint256"
        }
      ],
      "payable": false,
      "stateMutability": "view",
      "type": "function"
    }
  ],
  "bytecode": "0x6080604052336000806101000a81548173ffffffffffffffffffffffffffffffffffffffff021916908373ffffffffffffffffffffffffffffffffffffffff1602179055506000809054906101000a900473ffffffffffffffffffffffffffffffffffffffff1673ffffffffffffffffffffffffffffffffffffffff16600073ffffffffffffffffffffffffffffffffffffffff167f8be0079c531659141344cd1fd0a4f28419497f9722a3daafe3b4186f6b6457e060405160405180910390a3610b9f806100cf6000396000f3fe608060405234801561001057600080fd5b50600436106100b45760003560e01c80638ff6e349116100715780638ff6e34914610298578063e7650c8f146102e4578063eeea5c7e14610392578063effd16be146103d0578063f2fde38b1461040e578063fddb0aaa14610452576100b4565b80633c5ed33a146100b95780634850c3cc146100fb578063715018a61461013d578063755dda2d146101475780638da5cb5b1461022c5780638f32d59b14610276575b600080fd5b6100f9600480360360608110156100cf57600080fd5b81019080803590602001909291908035906020019092919080359060200190929190505050610521565b005b6101276004803603602081101561011157600080fd5b8101908080359060200190929190505050610563565b6040518082815260200191505060405180910390f35b610145610583565b005b61022a6004803603608081101561015d57600080fd5b81019080803590602001909291908035906020019064010000000081111561018457600080fd5b82018360208201111561019657600080fd5b803590602001918460018302840111640100000000831117156101b857600080fd5b91908080601f016020809104026020016040519081016040528093929190818152602001838380828437600081840152601f19601f820116905080830192505050505050509192919290803563ffffffff169060200190929190803563ffffffff169060200190929190505050610653565b005b610234610712565b604051808273ffffffffffffffffffffffffffffffffffffffff1673ffffffffffffffffffffffffffffffffffffffff16815260200191505060405180910390f35b61027e61073b565b604051808215151515815260200191505060405180910390f35b6102ce600480360360408110156102ae57600080fd5b810190808035906020019092919080359060200190929190505050610792565b6040518082815260200191505060405180910390f35b610310600480360360208110156102fa57600080fd5b81019080803590602001909291905050506107c4565b6040518080602001838152602001828103825284818151815260200191508051906020019080838360005b8381101561035657808201518184015260208101905061033b565b50505050905090810190601f1680156103835780820380516001836020036101000a031916815260200191505b50935050505060405180910390f35b6103ce600480360360408110156103a857600080fd5b8101908080359060200190929190803563ffffffff16906020019092919050505061089a565b005b61040c600480360360408110156103e657600080fd5b8101908080359060200190929190803563ffffffff1690602001909291905050506108e4565b005b6104506004803603602081101561042457600080fd5b81019080803573ffffffffffffffffffffffffffffffffffffffff16906020019092919050505061092e565b005b61051f6004803603606081101561046857600080fd5b810190808035906020019064010000000081111561048557600080fd5b82018360208201111561049757600080fd5b803590602001918460018302840111640100000000831117156104b957600080fd5b91908080601f016020809104026020016040519081016040528093929190818152602001838380828437600081840152601f19601f820116905080830192505050505050509192919290803590602001909291908035906020019092919050505061094b565b005b61052961073b565b61053257600080fd5b8060016000858152602001908152602001600020600201600084815260200190815260200160002081905550505050565b600060016000838152602001908152602001600020600301549050919050565b61058b61073b565b61059457600080fd5b600073ffffffffffffffffffffffffffffffffffffffff166000809054906101000a900473ffffffffffffffffffffffffffffffffffffffff1673ffffffffffffffffffffffffffffffffffffffff167f8be0079c531659141344cd1fd0a4f28419497f9722a3daafe3b4186f6b6457e060405160405180910390a360008060006101000a81548173ffffffffffffffffffffffffffffffffffffffff021916908373ffffffffffffffffffffffffffffffffffffffff160217905550565b61065b61073b565b61066457600080fd5b60405180606001604052808363ffffffff1681526020018263ffffffff168152602001848152506002600086815260200190815260200160002060008201518160000160006101000a81548163ffffffff021916908363ffffffff16021790555060208201518160000160046101000a81548163ffffffff021916908363ffffffff1602179055506040820151816002019080519060200190610708929190610ac5565b5090505050505050565b60008060009054906101000a900473ffffffffffffffffffffffffffffffffffffffff16905090565b60008060009054906101000a900473ffffffffffffffffffffffffffffffffffffffff1673ffffffffffffffffffffffffffffffffffffffff163373ffffffffffffffffffffffffffffffffffffffff1614905090565b600060016000848152602001908152602001600020600201600083815260200190815260200160002054905092915050565b60606000600160008481526020019081526020016000206000016001600085815260200190815260200160002060030154818054600181600116156101000203166002900480601f01602080910402602001604051908101604052809291908181526020018280546001816001161561010002031660029004801561088a5780601f1061085f5761010080835404028352916020019161088a565b820191906000526020600020905b81548152906001019060200180831161086d57829003601f168201915b5050505050915091509150915091565b6108a261073b565b6108ab57600080fd5b806002600084815260200190815260200160002060000160046101000a81548163ffffffff021916908363ffffffff1602179055505050565b6108ec61073b565b6108f557600080fd5b806002600084815260200190815260200160002060000160006101000a81548163ffffffff021916908363ffffffff1602179055505050565b61093661073b565b61093f57600080fd5b610948816109cd565b50565b61095361073b565b61095c57600080fd5b6040518060600160405280848152602001838152602001670de0b6b3a764000083028152506001600084815260200190815260200160002060008201518160000190805190602001906109b0929190610ac5565b506020820151816001015560408201518160030155905050505050565b600073ffffffffffffffffffffffffffffffffffffffff168173ffffffffffffffffffffffffffffffffffffffff161415610a0757600080fd5b8073ffffffffffffffffffffffffffffffffffffffff166000809054906101000a900473ffffffffffffffffffffffffffffffffffffffff1673ffffffffffffffffffffffffffffffffffffffff167f8be0079c531659141344cd1fd0a4f28419497f9722a3daafe3b4186f6b6457e060405160405180910390a3806000806101000a81548173ffffffffffffffffffffffffffffffffffffffff021916908373ffffffffffffffffffffffffffffffffffffffff16021790555050565b828054600181600116156101000203166002900490600052602060002090601f016020900481019282601f10610b0657805160ff1916838001178555610b34565b82800160010185558215610b34579182015b82811115610b33578251825591602001919060010190610b18565b5b509050610b419190610b45565b5090565b610b6791905b80821115610b63576000816000905550600101610b4b565b5090565b9056fea265627a7a723158204279e91b3087ddd8fb3908ac18d3cf4feec64cd4afafb24c214839b5ae99ad5664736f6c63430005100032",
  "source": "pragma solidity >=0.4.22 <0.6.0;\r\nimport \"./Ownable.sol\";\r\ncontract GolfDataOracle is Ownable {\r\n\r\n    struct Golfer {\r\n        string name;\r\n        uint golferID;\r\n        mapping(uint => int) tournamentIDtoScore;\r\n        uint cost;\r\n    }\r\n\r\n    struct Tournament {\r\n    uint32 startTime;\r\n    uint32 endTime;\r\n    mapping(uint => int) golferIDToScore;\r\n    string tournamentName;\r\n\r\n    }\r\n\r\n\r\n    mapping(uint => Golfer) golferIDtoGolfer;\r\n    mapping(uint => Tournament) tournamentIDtoTournament;\r\n\r\n    function createGolfer(string memory _name, uint _id, uint _cost) public onlyOwner{\r\n        golferIDtoGolfer[_id] = Golfer(_name, _id, _cost * 1 ether);\r\n    }\r\n\r\n    function createTournament(uint _tournamentID, string memory _name, uint32 _startTime, uint32 _endTime) public onlyOwner{\r\n        tournamentIDtoTournament[_tournamentID] = Tournament(_startTime, _endTime, _name);\r\n    }\r\n\r\n    function updateTournamentStartTime(uint _tournamentID,uint32 _newStartTime) public onlyOwner{\r\n        tournamentIDtoTournament[_tournamentID].startTime = _newStartTime;\r\n    }\r\n\r\n     function updateTournamentEndTime(uint _tournamentID,uint32 _newEndTime) public onlyOwner{\r\n        tournamentIDtoTournament[_tournamentID].endTime = _newEndTime;\r\n    }\r\n\r\n    function updateGolferTournamentScore(uint _golferID, uint _tournamentID, int _score) public onlyOwner{\r\n        golferIDtoGolfer[_golferID].tournamentIDtoScore[_tournamentID] = _score;\r\n    }\r\n\r\n    function getGolferScore(uint _golferID, uint _tournamentID) public view returns(int){\r\n        return golferIDtoGolfer[_golferID].tournamentIDtoScore[_tournamentID];\r\n\r\n    }\r\n\r\n    function getGolfer(uint _id) public view returns (string memory, uint){\r\n        return (golferIDtoGolfer[_id].name,golferIDtoGolfer[_id].cost) ;\r\n    }\r\n\r\n    function getGolferCost(uint _golferID) public view returns(uint){\r\n        return golferIDtoGolfer[_golferID].cost;\r\n\r\n    }\r\n\r\n\r\n}\r\n",
  "sourcePath": "S:\\GitHub\\blockchain-fantasy-golf\\contracts\\GolfDataOracle.sol",
  "compiler": {
    "name": "solc",
    "version": "0.5.16+commit.9c3226ce.Emscripten.clang"
  },
  "schemaVersion": "3.0.23",
  "updatedAt": "2020-04-11T20:39:45.082Z",
  "networkType": "ethereum",
  "devdoc": {
    "methods": {
      "isOwner()": {
        "return": "true if `msg.sender` is the owner of the contract."
      },
      "owner()": {
        "return": "the address of the owner."
      },
      "renounceOwnership()": {
        "details": "Allows the current owner to relinquish control of the contract."
      },
      "transferOwnership(address)": {
        "details": "Allows the current owner to transfer control of the contract to a newOwner.",
        "params": {
          "newOwner": "The address to transfer ownership to."
        }
      }
    }
  },
  "userdoc": {
    "methods": {
      "renounceOwnership()": {
        "notice": "Renouncing to ownership will leave the contract without an owner. It will not be possible to call the functions with the `onlyOwner` modifier anymore."
      }
    }
  }
}