{
  "contractName": "LeagueData",
  "abi": [
    {
      "constant": true,
      "inputs": [
        {
          "internalType": "uint256",
          "name": "",
          "type": "uint256"
        }
      ],
      "name": "bets",
      "outputs": [
        {
          "internalType": "uint32",
          "name": "leagueID",
          "type": "uint32"
        },
        {
          "internalType": "int256",
          "name": "totalScore",
          "type": "int256"
        }
      ],
      "payable": false,
      "stateMutability": "view",
      "type": "function"
    },
    {
      "constant": true,
      "inputs": [
        {
          "internalType": "uint256",
          "name": "",
          "type": "uint256"
        }
      ],
      "name": "leagues",
      "outputs": [
        {
          "internalType": "uint256",
          "name": "tournamentID",
          "type": "uint256"
        },
        {
          "internalType": "string",
          "name": "leagueName",
          "type": "string"
        }
      ],
      "payable": false,
      "stateMutability": "view",
      "type": "function"
    },
    {
      "constant": false,
      "inputs": [
        {
          "internalType": "uint256",
          "name": "_tournamentID",
          "type": "uint256"
        }
      ],
      "name": "updateUserScores",
      "outputs": [],
      "payable": false,
      "stateMutability": "nonpayable",
      "type": "function"
    }
  ],
  "bytecode": "0x6080604052735b0c9dc0afe417858dcc8db5269e47abc572aa776000806101000a81548173ffffffffffffffffffffffffffffffffffffffff021916908373ffffffffffffffffffffffffffffffffffffffff1602179055506000809054906101000a900473ffffffffffffffffffffffffffffffffffffffff16600160006101000a81548173ffffffffffffffffffffffffffffffffffffffff021916908373ffffffffffffffffffffffffffffffffffffffff1602179055503480156100c657600080fd5b50610627806100d66000396000f3fe608060405234801561001057600080fd5b50600436106100415760003560e01c806322af00fa1461004657806381bbb7051461009b578063c648fefe146100c9575b600080fd5b6100726004803603602081101561005c57600080fd5b8101908080359060200190929190505050610177565b604051808363ffffffff1663ffffffff1681526020018281526020019250505060405180910390f35b6100c7600480360360208110156100b157600080fd5b81019080803590602001909291905050506101b8565b005b6100f5600480360360208110156100df57600080fd5b81019080803590602001909291905050506104c0565b6040518083815260200180602001828103825283818151815260200191508051906020019080838360005b8381101561013b578082015181840152602081019050610120565b50505050905090810190601f1680156101685780820380516001836020036101000a031916815260200191505b50935050505060405180910390f35b6003818154811061018457fe5b90600052602060002090600302016000915090508060010160009054906101000a900463ffffffff16908060020154905082565b60008090505b6003805490508110156104bc576101d3610589565b600382815481106101e057fe5b90600052602060002090600302016040518060600160405290816000820160068060200260405190810160405280929190826006801561025d576020028201916000905b82829054906101000a900461ffff1661ffff16815260200190600201906020826001010492830192600103820291508084116102245790505b505050505081526020016001820160009054906101000a900463ffffffff1663ffffffff1663ffffffff16815260200160028201548152505090506102a06105b6565b6002826020015163ffffffff16815481106102b757fe5b906000526020600020906002020160405180604001604052908160008201548152602001600182018054600181600116156101000203166002900480601f0160208091040260200160405190810160405280929190818152602001828054600181600116156101000203166002900480156103735780601f1061034857610100808354040283529160200191610373565b820191906000526020600020905b81548152906001019060200180831161035657829003601f168201915b505050505081525050905060008260400151905084826000015114156104895760008090505b836000015150600681101561048757600160009054906101000a900473ffffffffffffffffffffffffffffffffffffffff1673ffffffffffffffffffffffffffffffffffffffff16638ff6e349856000015183600681106103f657fe5b6020020151886040518363ffffffff1660e01b8152600401808361ffff1681526020018281526020019250505060206040518083038186803b15801561043b57600080fd5b505afa15801561044f573d6000803e3d6000fd5b505050506040513d602081101561046557600080fd5b8101908080519060200190929190505050820191508080600101915050610399565b505b806003858154811061049757fe5b90600052602060002090600302016002018190555050505080806001019150506101be565b5050565b600281815481106104cd57fe5b9060005260206000209060020201600091509050806000015490806001018054600181600116156101000203166002900480601f01602080910402602001604051908101604052809291908181526020018280546001816001161561010002031660029004801561057f5780601f106105545761010080835404028352916020019161057f565b820191906000526020600020905b81548152906001019060200180831161056257829003601f168201915b5050505050905082565b604051806060016040528061059c6105d0565b8152602001600063ffffffff168152602001600081525090565b604051806040016040528060008152602001606081525090565b6040518060c0016040528060069060208202803883398082019150509050509056fea265627a7a723158204e5b79b86b98463e5216ee59ab426101218b2ba736265380a7596457c0a9c3a464736f6c63430005100032",
  "source": "pragma solidity >=0.4.22 <0.6.0;\r\n\r\ncontract OracleInterface{\r\n    function getGolferScore(uint _golferID, uint _tournamentID) public view returns(int);\r\n    function getGolferCost(uint _golferID) public view returns (uint);\r\n}\r\n\r\ncontract LeagueData {\r\n\r\n    address golfDataOracleAddress = 0x5b0C9dC0AFE417858DcC8dB5269E47ABc572AA77 ;\r\n\r\n    OracleInterface golfDataOracleContract = OracleInterface(golfDataOracleAddress);\r\n\r\n\r\n    struct League{\r\n        uint tournamentID;\r\n        string leagueName;\r\n    }\r\n\r\n    struct Bet {\r\n        uint16[6] golferIDs;\r\n        uint32 leagueID;\r\n        int totalScore;\r\n    }\r\n\r\n\r\n    League[] public leagues;\r\n    Bet[] public bets;\r\n\r\n\r\n    function updateUserScores(uint _tournamentID) external{\r\n        for (uint i = 0 ; i < bets.length; i++){\r\n            Bet memory bet = bets[i];\r\n            League memory league = leagues[bet.leagueID];\r\n            int score = bet.totalScore;\r\n            if(league.tournamentID == _tournamentID ){\r\n                for (uint j = 0; j < bet.golferIDs.length; j++ )\r\n                    score += golfDataOracleContract.getGolferScore(bet.golferIDs[j], _tournamentID);\r\n            }\r\n\r\n            bets[i].totalScore = score;\r\n        }\r\n\r\n\r\n    }\r\n\r\n    function getGolferCostWei(uint _golferID) internal view returns(uint) {\r\n        return golfDataOracleContract.getGolferCost(_golferID);\r\n    }\r\n\r\n\r\n}\r\n",
  "sourcePath": "S:\\GitHub\\blockchain-fantasy-golf\\contracts\\LeagueData.sol",
  "compiler": {
    "name": "solc",
    "version": "0.5.16+commit.9c3226ce.Emscripten.clang"
  },
  "schemaVersion": "3.0.23",
  "updatedAt": "2020-04-11T20:39:43.480Z",
  "devdoc": {
    "methods": {}
  },
  "userdoc": {
    "methods": {}
  }
}