{
  "contractName": "LeagueData",
  "abi": [
    {
      "anonymous": false,
      "inputs": [
        {
          "indexed": false,
          "internalType": "uint256",
          "name": "golferID",
          "type": "uint256"
        },
        {
          "indexed": false,
          "internalType": "uint256",
          "name": "newCost",
          "type": "uint256"
        }
      ],
      "name": "GolferCostUpdated",
      "type": "event"
    },
    {
      "anonymous": false,
      "inputs": [
        {
          "indexed": false,
          "internalType": "uint256",
          "name": "golferID",
          "type": "uint256"
        },
        {
          "indexed": false,
          "internalType": "string",
          "name": "name",
          "type": "string"
        },
        {
          "indexed": false,
          "internalType": "uint256",
          "name": "cost",
          "type": "uint256"
        }
      ],
      "name": "NewGolfer",
      "type": "event"
    },
    {
      "anonymous": false,
      "inputs": [
        {
          "indexed": true,
          "internalType": "address",
          "name": "previousOwner",
          "type": "address"
        },
        {
          "indexed": true,
          "internalType": "address",
          "name": "newOwner",
          "type": "address"
        }
      ],
      "name": "OwnershipTransferred",
      "type": "event"
    },
    {
      "anonymous": false,
      "inputs": [
        {
          "indexed": false,
          "internalType": "uint256",
          "name": "tournamentID",
          "type": "uint256"
        },
        {
          "indexed": false,
          "internalType": "string",
          "name": "name",
          "type": "string"
        },
        {
          "indexed": false,
          "internalType": "uint256",
          "name": "startTime",
          "type": "uint256"
        },
        {
          "indexed": false,
          "internalType": "uint256",
          "name": "endTime",
          "type": "uint256"
        }
      ],
      "name": "TournamentCreated",
      "type": "event"
    },
    {
      "constant": true,
      "inputs": [
        {
          "internalType": "uint256",
          "name": "",
          "type": "uint256"
        }
      ],
      "name": "bets",
      "outputs": [
        {
          "internalType": "uint32",
          "name": "leagueID",
          "type": "uint32"
        },
        {
          "internalType": "int256",
          "name": "totalScore",
          "type": "int256"
        },
        {
          "internalType": "address",
          "name": "user",
          "type": "address"
        }
      ],
      "payable": false,
      "stateMutability": "view",
      "type": "function"
    },
    {
      "constant": false,
      "inputs": [
        {
          "internalType": "string",
          "name": "_name",
          "type": "string"
        },
        {
          "internalType": "uint256",
          "name": "_id",
          "type": "uint256"
        },
        {
          "internalType": "uint256",
          "name": "_cost",
          "type": "uint256"
        }
      ],
      "name": "createGolfer",
      "outputs": [],
      "payable": false,
      "stateMutability": "nonpayable",
      "type": "function"
    },
    {
      "constant": false,
      "inputs": [
        {
          "internalType": "bytes32[]",
          "name": "_names",
          "type": "bytes32[]"
        },
        {
          "internalType": "uint256[]",
          "name": "_ids",
          "type": "uint256[]"
        },
        {
          "internalType": "uint256[]",
          "name": "_costs",
          "type": "uint256[]"
        }
      ],
      "name": "createGolfers",
      "outputs": [],
      "payable": false,
      "stateMutability": "nonpayable",
      "type": "function"
    },
    {
      "constant": false,
      "inputs": [
        {
          "internalType": "uint256",
          "name": "_tournamentID",
          "type": "uint256"
        },
        {
          "internalType": "string",
          "name": "_name",
          "type": "string"
        },
        {
          "internalType": "uint256",
          "name": "_startTime",
          "type": "uint256"
        },
        {
          "internalType": "uint256",
          "name": "_endTime",
          "type": "uint256"
        }
      ],
      "name": "createTournament",
      "outputs": [],
      "payable": false,
      "stateMutability": "nonpayable",
      "type": "function"
    },
    {
      "constant": false,
      "inputs": [
        {
          "internalType": "uint256",
          "name": "_tournamentID",
          "type": "uint256"
        }
      ],
      "name": "endTournament",
      "outputs": [],
      "payable": false,
      "stateMutability": "nonpayable",
      "type": "function"
    },
    {
      "constant": true,
      "inputs": [
        {
          "internalType": "uint256",
          "name": "_id",
          "type": "uint256"
        }
      ],
      "name": "getGolfer",
      "outputs": [
        {
          "internalType": "string",
          "name": "",
          "type": "string"
        },
        {
          "internalType": "uint256",
          "name": "",
          "type": "uint256"
        }
      ],
      "payable": false,
      "stateMutability": "view",
      "type": "function"
    },
    {
      "constant": true,
      "inputs": [
        {
          "internalType": "uint256",
          "name": "_golferID",
          "type": "uint256"
        }
      ],
      "name": "getGolferCost",
      "outputs": [
        {
          "internalType": "uint256",
          "name": "",
          "type": "uint256"
        }
      ],
      "payable": false,
      "stateMutability": "view",
      "type": "function"
    },
    {
      "constant": true,
      "inputs": [
        {
          "internalType": "uint256",
          "name": "_golferID",
          "type": "uint256"
        }
      ],
      "name": "getGolferName",
      "outputs": [
        {
          "internalType": "string",
          "name": "",
          "type": "string"
        }
      ],
      "payable": false,
      "stateMutability": "view",
      "type": "function"
    },
    {
      "constant": true,
      "inputs": [
        {
          "internalType": "uint256",
          "name": "_golferID",
          "type": "uint256"
        },
        {
          "internalType": "uint256",
          "name": "_tournamentID",
          "type": "uint256"
        }
      ],
      "name": "getGolferScore",
      "outputs": [
        {
          "internalType": "int256",
          "name": "",
          "type": "int256"
        }
      ],
      "payable": false,
      "stateMutability": "view",
      "type": "function"
    },
    {
      "constant": true,
      "inputs": [],
      "name": "isOwner",
      "outputs": [
        {
          "internalType": "bool",
          "name": "",
          "type": "bool"
        }
      ],
      "payable": false,
      "stateMutability": "view",
      "type": "function"
    },
    {
      "constant": true,
      "inputs": [
        {
          "internalType": "uint256",
          "name": "",
          "type": "uint256"
        }
      ],
      "name": "leagues",
      "outputs": [
        {
          "internalType": "uint256",
          "name": "tournamentID",
          "type": "uint256"
        },
        {
          "internalType": "uint256",
          "name": "moneyPot",
          "type": "uint256"
        },
        {
          "internalType": "string",
          "name": "leagueName",
          "type": "string"
        }
      ],
      "payable": false,
      "stateMutability": "view",
      "type": "function"
    },
    {
      "constant": false,
      "inputs": [
        {
          "internalType": "uint256",
          "name": "_golferID",
          "type": "uint256"
        },
        {
          "internalType": "uint256",
          "name": "_newCost",
          "type": "uint256"
        }
      ],
      "name": "modifyGolferCost",
      "outputs": [],
      "payable": false,
      "stateMutability": "nonpayable",
      "type": "function"
    },
    {
      "constant": true,
      "inputs": [],
      "name": "owner",
      "outputs": [
        {
          "internalType": "address",
          "name": "",
          "type": "address"
        }
      ],
      "payable": false,
      "stateMutability": "view",
      "type": "function"
    },
    {
      "constant": false,
      "inputs": [],
      "name": "renounceOwnership",
      "outputs": [],
      "payable": false,
      "stateMutability": "nonpayable",
      "type": "function"
    },
    {
      "constant": false,
      "inputs": [
        {
          "internalType": "uint256",
          "name": "_tournamentID",
          "type": "uint256"
        }
      ],
      "name": "startTournament",
      "outputs": [],
      "payable": false,
      "stateMutability": "nonpayable",
      "type": "function"
    },
    {
      "constant": false,
      "inputs": [
        {
          "internalType": "address",
          "name": "newOwner",
          "type": "address"
        }
      ],
      "name": "transferOwnership",
      "outputs": [],
      "payable": false,
      "stateMutability": "nonpayable",
      "type": "function"
    },
    {
      "constant": false,
      "inputs": [
        {
          "internalType": "uint256",
          "name": "_tournamentID",
          "type": "uint256"
        },
        {
          "internalType": "uint256",
          "name": "_newEndTime",
          "type": "uint256"
        }
      ],
      "name": "updateTournamentEndTime",
      "outputs": [],
      "payable": false,
      "stateMutability": "nonpayable",
      "type": "function"
    },
    {
      "constant": false,
      "inputs": [
        {
          "internalType": "uint256",
          "name": "_tournamentID",
          "type": "uint256"
        },
        {
          "internalType": "uint256",
          "name": "_newStartTime",
          "type": "uint256"
        }
      ],
      "name": "updateTournamentStartTime",
      "outputs": [],
      "payable": false,
      "stateMutability": "nonpayable",
      "type": "function"
    },
    {
      "constant": false,
      "inputs": [
        {
          "internalType": "uint256",
          "name": "_tournamentID",
          "type": "uint256"
        }
      ],
      "name": "updateUserScores",
      "outputs": [],
      "payable": false,
      "stateMutability": "nonpayable",
      "type": "function"
    },
    {
      "constant": false,
      "inputs": [
        {
          "internalType": "uint256",
          "name": "_leagueID",
          "type": "uint256"
        }
      ],
      "name": "updateLeagueLeader",
      "outputs": [],
      "payable": false,
      "stateMutability": "nonpayable",
      "type": "function"
    },
    {
      "constant": true,
      "inputs": [
        {
          "internalType": "uint256",
          "name": "_leagueID",
          "type": "uint256"
        }
      ],
      "name": "getLeagueLeader",
      "outputs": [
        {
          "internalType": "address",
          "name": "",
          "type": "address"
        }
      ],
      "payable": false,
      "stateMutability": "view",
      "type": "function"
    },
    {
      "constant": false,
      "inputs": [
        {
          "internalType": "uint256",
          "name": "_golferID",
          "type": "uint256"
        },
        {
          "internalType": "uint256",
          "name": "_tournamentID",
          "type": "uint256"
        },
        {
          "internalType": "int256",
          "name": "_score",
          "type": "int256"
        }
      ],
      "name": "updateGolferTournamentScore",
      "outputs": [],
      "payable": false,
      "stateMutability": "nonpayable",
      "type": "function"
    }
  ],
  "bytecode": "0x6080604052735b0c9dc0afe417858dcc8db5269e47abc572aa77600160006101000a81548173ffffffffffffffffffffffffffffffffffffffff021916908373ffffffffffffffffffffffffffffffffffffffff160217905550600160009054906101000a900473ffffffffffffffffffffffffffffffffffffffff16600260006101000a81548173ffffffffffffffffffffffffffffffffffffffff021916908373ffffffffffffffffffffffffffffffffffffffff160217905550336000806101000a81548173ffffffffffffffffffffffffffffffffffffffff021916908373ffffffffffffffffffffffffffffffffffffffff1602179055506000809054906101000a900473ffffffffffffffffffffffffffffffffffffffff1673ffffffffffffffffffffffffffffffffffffffff16600073ffffffffffffffffffffffffffffffffffffffff167f8be0079c531659141344cd1fd0a4f28419497f9722a3daafe3b4186f6b6457e060405160405180910390a3611fd8806101876000396000f3fe608060405234801561001057600080fd5b50600436106101425760003560e01c80638da5cb5b116100b8578063c648fefe1161007c578063c648fefe1461062b578063cf1982e7146106e0578063d5f21b8f14610718578063e7650c8f146108f8578063f2fde38b146109a6578063fddb0aaa146109ea57610142565b80638da5cb5b146104d75780638f32d59b146105215780638ff6e34914610543578063aa3b47c01461058f578063b399042b146105bd57610142565b80634850c3cc1161010a5780634850c3cc146103bf5780635abde83514610401578063651ea94314610439578063715018a614610467578063751f35391461047157806381bbb705146104a957610142565b806304fc76951461014757806311d24a791461022057806322af00fa1461024e5780633c5ed33a146102d657806347212e6f14610318575b600080fd5b61021e6004803603608081101561015d57600080fd5b81019080803590602001909291908035906020019064010000000081111561018457600080fd5b82018360208201111561019657600080fd5b803590602001918460018302840111640100000000831117156101b857600080fd5b91908080601f016020809104026020016040519081016040528093929190818152602001838380828437600081840152601f19601f8201169050808301925050505050505091929192908035906020019092919080359060200190929190505050610ab9565b005b61024c6004803603602081101561023657600080fd5b8101908080359060200190929190505050610c67565b005b61027a6004803603602081101561026457600080fd5b8101908080359060200190929190505050610ceb565b604051808463ffffffff1663ffffffff1681526020018381526020018273ffffffffffffffffffffffffffffffffffffffff1673ffffffffffffffffffffffffffffffffffffffff168152602001935050505060405180910390f35b610316600480360360608110156102ec57600080fd5b81019080803590602001909291908035906020019092919080359060200190929190505050610d52565b005b6103446004803603602081101561032e57600080fd5b8101908080359060200190929190505050610e37565b6040518080602001828103825283818151815260200191508051906020019080838360005b83811015610384578082015181840152602081019050610369565b50505050905090810190601f1680156103b15780820380516001836020036101000a031916815260200191505b509250505060405180910390f35b6103eb600480360360208110156103d557600080fd5b8101908080359060200190929190505050610f13565b6040518082815260200191505060405180910390f35b6104376004803603604081101561041757600080fd5b810190808035906020019092919080359060200190929190505050610f57565b005b6104656004803603602081101561044f57600080fd5b8101908080359060200190929190505050610fea565b005b61046f611008565b005b6104a76004803603604081101561048757600080fd5b8101908080359060200190929190803590602001909291905050506110d8565b005b6104d5600480360360208110156104bf57600080fd5b81019080803590602001909291905050506111a9565b005b6104df611465565b604051808273ffffffffffffffffffffffffffffffffffffffff1673ffffffffffffffffffffffffffffffffffffffff16815260200191505060405180910390f35b61052961148e565b604051808215151515815260200191505060405180910390f35b6105796004803603604081101561055957600080fd5b8101908080359060200190929190803590602001909291905050506114e5565b6040518082815260200191505060405180910390f35b6105bb600480360360208110156105a557600080fd5b8101908080359060200190929190505050611517565b005b6105e9600480360360208110156105d357600080fd5b8101908080359060200190929190505050611535565b604051808273ffffffffffffffffffffffffffffffffffffffff1673ffffffffffffffffffffffffffffffffffffffff16815260200191505060405180910390f35b6106576004803603602081101561064157600080fd5b8101908080359060200190929190505050611572565b6040518084815260200183815260200180602001828103825283818151815260200191508051906020019080838360005b838110156106a3578082015181840152602081019050610688565b50505050905090810190601f1680156106d05780820380516001836020036101000a031916815260200191505b5094505050505060405180910390f35b610716600480360360408110156106f657600080fd5b810190808035906020019092919080359060200190929190505050611641565b005b6108f66004803603606081101561072e57600080fd5b810190808035906020019064010000000081111561074b57600080fd5b82018360208201111561075d57600080fd5b8035906020019184602083028401116401000000008311171561077f57600080fd5b919080806020026020016040519081016040528093929190818152602001838360200280828437600081840152601f19601f820116905080830192505050505050509192919290803590602001906401000000008111156107df57600080fd5b8201836020820111156107f157600080fd5b8035906020019184602083028401116401000000008311171561081357600080fd5b919080806020026020016040519081016040528093929190818152602001838360200280828437600081840152601f19601f8201169050808301925050505050505091929192908035906020019064010000000081111561087357600080fd5b82018360208201111561088557600080fd5b803590602001918460208302840111640100000000831117156108a757600080fd5b919080806020026020016040519081016040528093929190818152602001838360200280828437600081840152601f19601f8201169050808301925050505050505091929192905050506116f0565b005b6109246004803603602081101561090e57600080fd5b810190808035906020019092919050505061178b565b6040518080602001838152602001828103825284818151815260200191508051906020019080838360005b8381101561096a57808201518184015260208101905061094f565b50505050905090810190601f1680156109975780820380516001836020036101000a031916815260200191505b50935050505060405180910390f35b6109e8600480360360208110156109bc57600080fd5b81019080803573ffffffffffffffffffffffffffffffffffffffff169060200190929190505050611861565b005b610ab760048036036060811015610a0057600080fd5b8101908080359060200190640100000000811115610a1d57600080fd5b820183602082011115610a2f57600080fd5b80359060200191846001830284011164010000000083111715610a5157600080fd5b91908080601f016020809104026020016040519081016040528093929190818152602001838380828437600081840152601f19601f820116905080830192505050505050509192919290803590602001909291908035906020019092919050505061187e565b005b610ac161148e565b610aca57600080fd5b8360006003600083815260200190815260200160002060030180546001816001161561010002031660029004905014610b0257600080fd5b6000600360008381526020019081526020016000206000015414610b2557600080fd5b824210610b3157600080fd5b828211610b3d57600080fd5b60008511610b4a57600080fd5b6040518060600160405280848152602001838152602001858152506003600087815260200190815260200160002060008201518160000155602082015181600101556040820151816003019080519060200190610ba8929190611e71565b509050507ff921e1476612bff3a21b96b63ae8a3ac03579129aad3ed13624285327365837c858585856040518085815260200180602001848152602001838152602001828103825285818151815260200191508051906020019080838360005b83811015610c23578082015181840152602081019050610c08565b50505050905090810190601f168015610c505780820380516001836020036101000a031916815260200191505b509550505050505060405180910390a15050505050565b610c8e60058281548110610c7757fe5b9060005260206000209060030201600001546111a9565b610c9781611a53565b600b600083815260200190815260200160002060006101000a81548173ffffffffffffffffffffffffffffffffffffffff021916908373ffffffffffffffffffffffffffffffffffffffff16021790555050565b60068181548110610cf857fe5b90600052602060002090600402016000915090508060010160009054906101000a900463ffffffff16908060020154908060030160009054906101000a900473ffffffffffffffffffffffffffffffffffffffff16905083565b610d5a61148e565b610d6357600080fd5b8280600460008381526020019081526020016000206001015414610d8657600080fd5b826000600360008381526020019081526020016000206000015411610daa57600080fd5b6000600360008381526020019081526020016000206001015411610dcd57600080fd5b60006003600083815260200190815260200160002060030180546001816001161561010002031660029004905011610e0457600080fd5b82600460008781526020019081526020016000206002016000868152602001908152602001600020819055505050505050565b60608180600460008381526020019081526020016000206001015414610e5c57600080fd5b600460008481526020019081526020016000206000018054600181600116156101000203166002900480601f016020809104026020016040519081016040528092919081815260200182805460018160011615610100020316600290048015610f065780601f10610edb57610100808354040283529160200191610f06565b820191906000526020600020905b815481529060010190602001808311610ee957829003601f168201915b5050505050915050919050565b60008180600460008381526020019081526020016000206001015414610f3857600080fd5b6004600084815260200190815260200160002060030154915050919050565b610f5f61148e565b610f6857600080fd5b8180600460008381526020019081526020016000206001015414610f8b57600080fd5b8160046000858152602001908152602001600020600301819055507fc93f30e5608cb7d10da279088d68019a15a03744a41741842cfcaf68ad4511b58383604051808381526020018281526020019250505060405180910390a1505050565b42600360008381526020019081526020016000206000018190555050565b61101061148e565b61101957600080fd5b600073ffffffffffffffffffffffffffffffffffffffff166000809054906101000a900473ffffffffffffffffffffffffffffffffffffffff1673ffffffffffffffffffffffffffffffffffffffff167f8be0079c531659141344cd1fd0a4f28419497f9722a3daafe3b4186f6b6457e060405160405180910390a360008060006101000a81548173ffffffffffffffffffffffffffffffffffffffff021916908373ffffffffffffffffffffffffffffffffffffffff160217905550565b6110e061148e565b6110e957600080fd5b81600060036000838152602001908152602001600020600001541161110d57600080fd5b600060036000838152602001908152602001600020600101541161113057600080fd5b6000600360008381526020019081526020016000206003018054600181600116156101000203166002900490501161116757600080fd5b6003600084815260200190815260200160002060000154821161118957600080fd5b816003600085815260200190815260200160002060000181905550505050565b60008090505b600680549050811015611461576111c4611ef1565b600682815481106111d157fe5b90600052602060002090600402016040518060800160405290816000820160068060200260405190810160405280929190826006801561124e576020028201916000905b82829054906101000a900461ffff1661ffff16815260200190600201906020826001010492830192600103820291508084116112155790505b505050505081526020016001820160009054906101000a900463ffffffff1663ffffffff1663ffffffff168152602001600282015481526020016003820160009054906101000a900473ffffffffffffffffffffffffffffffffffffffff1673ffffffffffffffffffffffffffffffffffffffff1673ffffffffffffffffffffffffffffffffffffffff168152505090506112e7611f3b565b6005826020015163ffffffff16815481106112fe57fe5b90600052602060002090600302016040518060600160405290816000820154815260200160018201548152602001600282018054600181600116156101000203166002900480601f0160208091040260200160405190810160405280929190818152602001828054600181600116156101000203166002900480156113c45780601f10611399576101008083540402835291602001916113c4565b820191906000526020600020905b8154815290600101906020018083116113a757829003601f168201915b5050505050815250509050600082604001519050848260000151141561142e5760008090505b836000015150600681101561142c5761141b8460000151826006811061140c57fe5b602002015161ffff16876114e5565b8201915080806001019150506113ea565b505b806006858154811061143c57fe5b90600052602060002090600402016002018190555050505080806001019150506111af565b5050565b60008060009054906101000a900473ffffffffffffffffffffffffffffffffffffffff16905090565b60008060009054906101000a900473ffffffffffffffffffffffffffffffffffffffff1673ffffffffffffffffffffffffffffffffffffffff163373ffffffffffffffffffffffffffffffffffffffff1614905090565b600060046000848152602001908152602001600020600201600083815260200190815260200160002054905092915050565b42600360008381526020019081526020016000206001018190555050565b6000600b600083815260200190815260200160002060009054906101000a900473ffffffffffffffffffffffffffffffffffffffff169050919050565b6005818154811061157f57fe5b9060005260206000209060030201600091509050806000015490806001015490806002018054600181600116156101000203166002900480601f0160208091040260200160405190810160405280929190818152602001828054600181600116156101000203166002900480156116375780601f1061160c57610100808354040283529160200191611637565b820191906000526020600020905b81548152906001019060200180831161161a57829003601f168201915b5050505050905083565b61164961148e565b61165257600080fd5b81600060036000838152602001908152602001600020600001541161167657600080fd5b600060036000838152602001908152602001600020600101541161169957600080fd5b600060036000838152602001908152602001600020600301805460018160011615610100020316600290049050116116d057600080fd5b816003600085815260200190815260200160002060010181905550505050565b6116f861148e565b61170157600080fd5b815183511461170f57600080fd5b805183511461171d57600080fd5b60008090505b83518110156117855761177861174b85838151811061173e57fe5b6020026020010151611be6565b84838151811061175757fe5b602002602001015184848151811061176b57fe5b602002602001015161187e565b8080600101915050611723565b50505050565b60606000600460008481526020019081526020016000206000016004600085815260200190815260200160002060030154818054600181600116156101000203166002900480601f0160208091040260200160405190810160405280929190818152602001828054600181600116156101000203166002900480156118515780601f1061182657610100808354040283529160200191611851565b820191906000526020600020905b81548152906001019060200180831161183457829003601f168201915b5050505050915091509150915091565b61186961148e565b61187257600080fd5b61187b81611d79565b50565b61188661148e565b61188f57600080fd5b8160006004600083815260200190815260200160002060030154146118b357600080fd5b60006004600083815260200190815260200160002060010154146118d657600080fd5b6000600460008381526020019081526020016000206000018054600181600116156101000203166002900490501461190d57600080fd5b600084511161191b57600080fd5b6000831161192857600080fd5b6000821161193557600080fd5b6040518060600160405280858152602001848152602001670de0b6b3a76400008402815250600460008581526020019081526020016000206000820151816000019080519060200190611989929190611e71565b5060208201518160010155604082015181600301559050507f316e331d8ddc20f2a441eb5d779933dabf9d87c1f3d2010f4f566d6b07e645ff8385846040518084815260200180602001838152602001828103825284818151815260200191508051906020019080838360005b83811015611a115780820151818401526020810190506119f6565b50505050905090810190601f168015611a3e5780820380516001836020036101000a031916815260200191505b5094505050505060405180910390a150505050565b60008060ff6001901b90506000819050600080905060008090505b600680549050811015611bda57611a83611ef1565b60068281548110611a9057fe5b906000526020600020906004020160405180608001604052908160008201600680602002604051908101604052809291908260068015611b0d576020028201916000905b82829054906101000a900461ffff1661ffff1681526020019060020190602082600101049283019260010382029150808411611ad45790505b505050505081526020016001820160009054906101000a900463ffffffff1663ffffffff1663ffffffff168152602001600282015481526020016003820160009054906101000a900473ffffffffffffffffffffffffffffffffffffffff1673ffffffffffffffffffffffffffffffffffffffff1673ffffffffffffffffffffffffffffffffffffffff1681525050905086816020015163ffffffff161415611bcc578381604001511315611bcb5780604001519350806060015192505b5b508080600101915050611a6e565b50809350505050919050565b60608060206040519080825280601f01601f191660200182016040528015611c1d5781602001600182028038833980820191505090505b509050600080905060008090505b6020811015611cc75760008160080260020a8660001c0260001b9050600060f81b817effffffffffffffffffffffffffffffffffffffffffffffffffffffffffffff191614611cb95780848481518110611c8157fe5b60200101907effffffffffffffffffffffffffffffffffffffffffffffffffffffffffffff1916908160001a90535082806001019350505b508080600101915050611c2b565b506060816040519080825280601f01601f191660200182016040528015611cfd5781602001600182028038833980820191505090505b50905060008090505b82811015611d6d57838181518110611d1a57fe5b602001015160f81c60f81b828281518110611d3157fe5b60200101907effffffffffffffffffffffffffffffffffffffffffffffffffffffffffffff1916908160001a9053508080600101915050611d06565b50809350505050919050565b600073ffffffffffffffffffffffffffffffffffffffff168173ffffffffffffffffffffffffffffffffffffffff161415611db357600080fd5b8073ffffffffffffffffffffffffffffffffffffffff166000809054906101000a900473ffffffffffffffffffffffffffffffffffffffff1673ffffffffffffffffffffffffffffffffffffffff167f8be0079c531659141344cd1fd0a4f28419497f9722a3daafe3b4186f6b6457e060405160405180910390a3806000806101000a81548173ffffffffffffffffffffffffffffffffffffffff021916908373ffffffffffffffffffffffffffffffffffffffff16021790555050565b828054600181600116156101000203166002900490600052602060002090601f016020900481019282601f10611eb257805160ff1916838001178555611ee0565b82800160010185558215611ee0579182015b82811115611edf578251825591602001919060010190611ec4565b5b509050611eed9190611f5c565b5090565b6040518060800160405280611f04611f81565b8152602001600063ffffffff16815260200160008152602001600073ffffffffffffffffffffffffffffffffffffffff1681525090565b60405180606001604052806000815260200160008152602001606081525090565b611f7e91905b80821115611f7a576000816000905550600101611f62565b5090565b90565b6040518060c0016040528060069060208202803883398082019150509050509056fea265627a7a72315820936b75d0415e0dfb0072ea5d1b52f72dd39d2ff7288480525e1d2a546f7dbd6964736f6c63430005100032",
  "source": "pragma solidity >=0.4.22 <0.6.0;\r\nimport \"./TournamentData.sol\";\r\nimport \"./GolferData.sol\";\r\n\r\ncontract LeagueData is TournamentData, GolferData {\r\n\r\n    struct League{\r\n        uint tournamentID;\r\n        uint moneyPot;\r\n        string leagueName;\r\n    }\r\n\r\n    struct Bet {\r\n        uint16[6] golferIDs;\r\n        uint32 leagueID;\r\n        int totalScore;\r\n        address user;\r\n    }\r\n\r\n\r\n    League[] public leagues;\r\n    Bet[] public bets;\r\n    mapping(address => uint) userToBet; //Implies that an address will only be able to have 1 active bet.\r\n    mapping(address => uint) ownerToLeagueID;\r\n    mapping(uint => address) leagueIDtoOwner;\r\n    mapping(uint => uint) leagueIDtoTournamentID;\r\n    mapping(uint => address) leagueIDtoLeagueLeader;\r\n\r\n\r\n\r\n\r\n    function updateUserScores(uint _tournamentID) public{\r\n        for (uint i = 0 ; i < bets.length; i++){\r\n            Bet memory bet = bets[i];\r\n            League memory league = leagues[bet.leagueID];\r\n            int score = bet.totalScore;\r\n            if(league.tournamentID == _tournamentID ){\r\n                for (uint j = 0; j < bet.golferIDs.length; j++ )\r\n                    score += GolferData.getGolferScore(bet.golferIDs[j], _tournamentID);\r\n            }\r\n\r\n            bets[i].totalScore = score;\r\n        }\r\n\r\n\r\n    }\r\n\r\n    function updateLeagueLeader(uint _leagueID) public {\r\n        updateUserScores(leagues[_leagueID].tournamentID);\r\n        leagueIDtoLeagueLeader[_leagueID] = findLeader(_leagueID);\r\n    }\r\n\r\n    function getLeagueLeader(uint _leagueID) public view returns(address){\r\n      return leagueIDtoLeagueLeader[_leagueID];\r\n    }\r\n\r\n    function findLeader(uint _leagueID) internal view returns(address){\r\n      int256 INT256_MIN = int256(uint256(1) << 255);\r\n      int maxScore = INT256_MIN;\r\n      address maxScoreUser = address(0);\r\n      for (uint i = 0 ; i < bets.length; i++){\r\n          Bet memory bet = bets[i];\r\n          if(bet.leagueID == _leagueID){\r\n            if(bet.totalScore > maxScore){\r\n              maxScore = bet.totalScore;\r\n              maxScoreUser = bet.user;\r\n            }\r\n          }\r\n        }\r\n\r\n        return maxScoreUser;\r\n    }\r\n\r\n    function updateGolferTournamentScore(uint _golferID, uint _tournamentID, int _score) public onlyOwner golferExists(_golferID) tournamentExists(_tournamentID){\r\n        golferIDtoGolfer[_golferID].tournamentIDtoScore[_tournamentID] = _score;\r\n    }\r\n\r\n  \r\n\r\n\r\n\r\n\r\n\r\n}\r\n",
  "sourcePath": "S:\\GitHub\\blockchain-fantasy-golf\\contracts\\LeagueData.sol",
  "compiler": {
    "name": "solc",
    "version": "0.5.16+commit.9c3226ce.Emscripten.clang"
  },
  "schemaVersion": "3.1.0",
  "updatedAt": "2020-05-02T21:37:59.507Z",
  "devdoc": {
    "methods": {
      "isOwner()": {
        "return": "true if `msg.sender` is the owner of the contract."
      },
      "owner()": {
        "return": "the address of the owner."
      },
      "renounceOwnership()": {
        "details": "Allows the current owner to relinquish control of the contract."
      },
      "transferOwnership(address)": {
        "details": "Allows the current owner to transfer control of the contract to a newOwner.",
        "params": {
          "newOwner": "The address to transfer ownership to."
        }
      }
    }
  },
  "userdoc": {
    "methods": {
      "renounceOwnership()": {
        "notice": "Renouncing to ownership will leave the contract without an owner. It will not be possible to call the functions with the `onlyOwner` modifier anymore."
      }
    }
  }
}