{
  "contractName": "LeagueMembership",
  "abi": [
    {
      "anonymous": false,
      "inputs": [
        {
          "indexed": false,
          "internalType": "uint256",
          "name": "betID",
          "type": "uint256"
        }
      ],
      "name": "NewBet",
      "type": "event"
    },
    {
      "constant": true,
      "inputs": [
        {
          "internalType": "uint256",
          "name": "",
          "type": "uint256"
        }
      ],
      "name": "bets",
      "outputs": [
        {
          "internalType": "uint32",
          "name": "leagueID",
          "type": "uint32"
        },
        {
          "internalType": "int256",
          "name": "totalScore",
          "type": "int256"
        }
      ],
      "payable": false,
      "stateMutability": "view",
      "type": "function"
    },
    {
      "constant": true,
      "inputs": [
        {
          "internalType": "uint256",
          "name": "",
          "type": "uint256"
        }
      ],
      "name": "leagues",
      "outputs": [
        {
          "internalType": "uint256",
          "name": "tournamentID",
          "type": "uint256"
        },
        {
          "internalType": "string",
          "name": "leagueName",
          "type": "string"
        }
      ],
      "payable": false,
      "stateMutability": "view",
      "type": "function"
    },
    {
      "constant": false,
      "inputs": [
        {
          "internalType": "uint256",
          "name": "_tournamentID",
          "type": "uint256"
        }
      ],
      "name": "updateUserScores",
      "outputs": [],
      "payable": false,
      "stateMutability": "nonpayable",
      "type": "function"
    },
    {
      "constant": false,
      "inputs": [
        {
          "internalType": "uint16[6]",
          "name": "_golferIDs",
          "type": "uint16[6]"
        },
        {
          "internalType": "uint32",
          "name": "_leagueID",
          "type": "uint32"
        }
      ],
      "name": "placeBet",
      "outputs": [],
      "payable": true,
      "stateMutability": "payable",
      "type": "function"
    },
    {
      "constant": false,
      "inputs": [
        {
          "internalType": "uint16",
          "name": "_golferID0",
          "type": "uint16"
        },
        {
          "internalType": "uint16",
          "name": "_golferID1",
          "type": "uint16"
        },
        {
          "internalType": "uint16",
          "name": "_golferID2",
          "type": "uint16"
        },
        {
          "internalType": "uint16",
          "name": "_golferID3",
          "type": "uint16"
        },
        {
          "internalType": "uint16",
          "name": "_golferID4",
          "type": "uint16"
        },
        {
          "internalType": "uint16",
          "name": "_golferID5",
          "type": "uint16"
        },
        {
          "internalType": "uint32",
          "name": "_leagueID",
          "type": "uint32"
        }
      ],
      "name": "placeBet",
      "outputs": [],
      "payable": true,
      "stateMutability": "payable",
      "type": "function"
    },
    {
      "constant": true,
      "inputs": [],
      "name": "getBet",
      "outputs": [
        {
          "internalType": "uint16[6]",
          "name": "",
          "type": "uint16[6]"
        },
        {
          "internalType": "uint32",
          "name": "",
          "type": "uint32"
        },
        {
          "internalType": "int256",
          "name": "",
          "type": "int256"
        }
      ],
      "payable": false,
      "stateMutability": "view",
      "type": "function"
    }
  ],
  "bytecode": "0x6080604052735b0c9dc0afe417858dcc8db5269e47abc572aa776000806101000a81548173ffffffffffffffffffffffffffffffffffffffff021916908373ffffffffffffffffffffffffffffffffffffffff1602179055506000809054906101000a900473ffffffffffffffffffffffffffffffffffffffff16600160006101000a81548173ffffffffffffffffffffffffffffffffffffffff021916908373ffffffffffffffffffffffffffffffffffffffff1602179055503480156100c657600080fd5b50610de6806100d66000396000f3fe6080604052600436106100555760003560e01c806320835e8c1461005a57806322af00fa146100c757806352dcdc0e1461012957806381bbb7051461019e5780638e4d6d08146101d9578063c648fefe14610261575b600080fd5b34801561006657600080fd5b5061006f61031c565b6040518084600660200280838360005b8381101561009a57808201518184015260208101905061007f565b505050509050018363ffffffff1663ffffffff168152602001828152602001935050505060405180910390f35b3480156100d357600080fd5b50610100600480360360208110156100ea57600080fd5b8101908080359060200190929190505050610451565b604051808363ffffffff1663ffffffff1681526020018281526020019250505060405180910390f35b61019c600480360360e081101561013f57600080fd5b810190808060c001906006806020026040519081016040528092919082600660200280828437600081840152601f19601f8201169050808301925050505050509192919290803563ffffffff169060200190929190505050610492565b005b3480156101aa57600080fd5b506101d7600480360360208110156101c157600080fd5b8101908080359060200190929190505050610651565b005b61025f600480360360e08110156101ef57600080fd5b81019080803561ffff169060200190929190803561ffff169060200190929190803561ffff169060200190929190803561ffff169060200190929190803561ffff169060200190929190803561ffff169060200190929190803563ffffffff169060200190929190505050610959565b005b34801561026d57600080fd5b5061029a6004803603602081101561028457600080fd5b8101908080359060200190929190505050610ad8565b6040518083815260200180602001828103825283818151815260200191508051906020019080838360005b838110156102e05780820151818401526020810190506102c5565b50505050905090810190601f16801561030d5780820380516001836020036101000a031916815260200191505b50935050505060405180910390f35b610324610c58565b60008061032f610c7a565b6003600460003373ffffffffffffffffffffffffffffffffffffffff1673ffffffffffffffffffffffffffffffffffffffff168152602001908152602001600020548154811061037b57fe5b9060005260206000209060030201604051806060016040529081600082016006806020026040519081016040528092919082600680156103f8576020028201916000905b82829054906101000a900461ffff1661ffff16815260200190600201906020826001010492830192600103820291508084116103bf5790505b505050505081526020016001820160009054906101000a900463ffffffff1663ffffffff1663ffffffff168152602001600282015481525050905080600001518160200151826040015182925093509350935050909192565b6003818154811061045e57fe5b90600052602060002090600302016000915090508060010160009054906101000a900463ffffffff16908060020154905082565b6000600460003373ffffffffffffffffffffffffffffffffffffffff1673ffffffffffffffffffffffffffffffffffffffff16815260200190815260200160002054146104de57600080fd5b81600080905060008090505b60068110156105215761051083826006811061050257fe5b602002015161ffff16610ba1565b8201915080806001019150506104ea565b5080341461052e57600080fd5b60006001600360405180606001604052808881526020018763ffffffff168152602001600081525090806001815401808255809150509060018203906000526020600020906003020160009091929091909150600082015181600001906006610598929190610ca7565b5060208201518160010160006101000a81548163ffffffff021916908363ffffffff16021790555060408201518160020155505003905080600460003373ffffffffffffffffffffffffffffffffffffffff1673ffffffffffffffffffffffffffffffffffffffff168152602001908152602001600020819055507fb4c55452b3a0fcd370281067a5378b1d6b0adb1584de15f43fbe8dd04021610b816040518082815260200191505060405180910390a15050505050565b60008090505b6003805490508110156109555761066c610c7a565b6003828154811061067957fe5b9060005260206000209060030201604051806060016040529081600082016006806020026040519081016040528092919082600680156106f6576020028201916000905b82829054906101000a900461ffff1661ffff16815260200190600201906020826001010492830192600103820291508084116106bd5790505b505050505081526020016001820160009054906101000a900463ffffffff1663ffffffff1663ffffffff1681526020016002820154815250509050610739610d44565b6002826020015163ffffffff168154811061075057fe5b906000526020600020906002020160405180604001604052908160008201548152602001600182018054600181600116156101000203166002900480601f01602080910402602001604051908101604052809291908181526020018280546001816001161561010002031660029004801561080c5780601f106107e15761010080835404028352916020019161080c565b820191906000526020600020905b8154815290600101906020018083116107ef57829003601f168201915b505050505081525050905060008260400151905084826000015114156109225760008090505b836000015150600681101561092057600160009054906101000a900473ffffffffffffffffffffffffffffffffffffffff1673ffffffffffffffffffffffffffffffffffffffff16638ff6e3498560000151836006811061088f57fe5b6020020151886040518363ffffffff1660e01b8152600401808361ffff1681526020018281526020019250505060206040518083038186803b1580156108d457600080fd5b505afa1580156108e8573d6000803e3d6000fd5b505050506040513d60208110156108fe57600080fd5b8101908080519060200190929190505050820191508080600101915050610832565b505b806003858154811061093057fe5b9060005260206000209060030201600201819055505050508080600101915050610657565b5050565b610961610c58565b878160006006811061096f57fe5b602002019061ffff16908161ffff1681525050868160016006811061099057fe5b602002019061ffff16908161ffff168152505085816002600681106109b157fe5b602002019061ffff16908161ffff168152505084816003600681106109d257fe5b602002019061ffff16908161ffff168152505083816004600681106109f357fe5b602002019061ffff16908161ffff16815250508281600560068110610a1457fe5b602002019061ffff16908161ffff16815250503073ffffffffffffffffffffffffffffffffffffffff166352dcdc0e82846040518363ffffffff1660e01b81526004018083600660200280838360005b83811015610a7f578082015181840152602081019050610a64565b505050509050018263ffffffff1663ffffffff16815260200192505050600060405180830381600087803b158015610ab657600080fd5b505af1158015610aca573d6000803e3d6000fd5b505050505050505050505050565b60028181548110610ae557fe5b9060005260206000209060020201600091509050806000015490806001018054600181600116156101000203166002900480601f016020809104026020016040519081016040528092919081815260200182805460018160011615610100020316600290048015610b975780601f10610b6c57610100808354040283529160200191610b97565b820191906000526020600020905b815481529060010190602001808311610b7a57829003601f168201915b5050505050905082565b6000600160009054906101000a900473ffffffffffffffffffffffffffffffffffffffff1673ffffffffffffffffffffffffffffffffffffffff16634850c3cc836040518263ffffffff1660e01b81526004018082815260200191505060206040518083038186803b158015610c1657600080fd5b505afa158015610c2a573d6000803e3d6000fd5b505050506040513d6020811015610c4057600080fd5b81019080805190602001909291905050509050919050565b6040518060c00160405280600690602082028038833980820191505090505090565b6040518060600160405280610c8d610d5e565b8152602001600063ffffffff168152602001600081525090565b826006600f01601090048101928215610d335791602002820160005b83821115610d0357835183826101000a81548161ffff021916908361ffff1602179055509260200192600201602081600101049283019260010302610cc3565b8015610d315782816101000a81549061ffff0219169055600201602081600101049283019260010302610d03565b505b509050610d409190610d80565b5090565b604051806040016040528060008152602001606081525090565b6040518060c00160405280600690602082028038833980820191505090505090565b610dae91905b80821115610daa57600081816101000a81549061ffff021916905550600101610d86565b5090565b9056fea265627a7a723158206ae72506f8e2adf9dbee8c406332e292f379ec2678cccc1de36a381ed0c64f1364736f6c63430005100032",
  "source": "pragma solidity >=0.4.22 <0.6.0;\r\nimport \"./LeagueData.sol\";\r\n\r\ncontract LeagueMembership is LeagueData {\r\n    event NewBet(uint betID);\r\n\r\n    mapping(address => uint) userToBet; //Implies that an address will only be able to have 1 active bet.\r\n\r\n\r\n\r\n    function placeBet(uint16[6] memory _golferIDs, uint32 _leagueID) public payable noActiveBets correctEthValue(_golferIDs){\r\n        uint id = bets.push(Bet(_golferIDs, _leagueID, 0 )) - 1;\r\n        userToBet[msg.sender] = id;\r\n        emit NewBet(id);\r\n    }\r\n\r\n    function placeBet(uint16 _golferID0, uint16 _golferID1, uint16 _golferID2, uint16 _golferID3, uint16 _golferID4, uint16 _golferID5, uint32 _leagueID ) public payable{\r\n      uint16[6] memory _golferIDs;\r\n      _golferIDs[0] = _golferID0;\r\n      _golferIDs[1] = _golferID1;\r\n      _golferIDs[2] = _golferID2;\r\n      _golferIDs[3] = _golferID3;\r\n      _golferIDs[4] = _golferID4;\r\n      _golferIDs[5] = _golferID5;\r\n      this.placeBet(_golferIDs, _leagueID);\r\n    }\r\n\r\n    function getBet() public view returns (uint16[6] memory, uint32, int){\r\n        Bet memory bet = bets[userToBet[msg.sender]];\r\n        return (bet.golferIDs, bet.leagueID, bet.totalScore);\r\n    }\r\n\r\n    modifier noActiveBets()  {\r\n        require(userToBet[msg.sender] == 0);\r\n        _;\r\n    }\r\n\r\n    modifier correctEthValue(uint16[6] memory _golferIDs){\r\n\r\n        uint totalCostInWei = 0;\r\n        for (uint i = 0; i < _golferIDs.length; i++){\r\n            totalCostInWei += LeagueData.getGolferCostWei(_golferIDs[i]);\r\n        }\r\n\r\n        require(msg.value == totalCostInWei);\r\n        _;\r\n    }\r\n\r\n\r\n}\r\n",
  "sourcePath": "S:\\GitHub\\blockchain-fantasy-golf\\contracts\\LeagueMembership.sol",
  "compiler": {
    "name": "solc",
    "version": "0.5.16+commit.9c3226ce.Emscripten.clang"
  },
  "schemaVersion": "3.0.23",
  "updatedAt": "2020-04-11T20:39:43.484Z",
  "devdoc": {
    "methods": {}
  },
  "userdoc": {
    "methods": {}
  }
}