{
  "contractName": "LeagueOwnership",
  "abi": [
    {
      "anonymous": false,
      "inputs": [
        {
          "indexed": false,
          "internalType": "uint256",
          "name": "golferID",
          "type": "uint256"
        },
        {
          "indexed": false,
          "internalType": "uint256",
          "name": "newCost",
          "type": "uint256"
        }
      ],
      "name": "GolferCostUpdated",
      "type": "event"
    },
    {
      "anonymous": false,
      "inputs": [
        {
          "indexed": false,
          "internalType": "uint256",
          "name": "golferID",
          "type": "uint256"
        },
        {
          "indexed": false,
          "internalType": "string",
          "name": "name",
          "type": "string"
        },
        {
          "indexed": false,
          "internalType": "uint256",
          "name": "cost",
          "type": "uint256"
        }
      ],
      "name": "NewGolfer",
      "type": "event"
    },
    {
      "anonymous": false,
      "inputs": [
        {
          "indexed": false,
          "internalType": "uint256",
          "name": "leagueID",
          "type": "uint256"
        },
        {
          "indexed": false,
          "internalType": "string",
          "name": "leagueName",
          "type": "string"
        },
        {
          "indexed": false,
          "internalType": "uint256",
          "name": "tournamentID",
          "type": "uint256"
        }
      ],
      "name": "NewLeague",
      "type": "event"
    },
    {
      "anonymous": false,
      "inputs": [
        {
          "indexed": true,
          "internalType": "address",
          "name": "previousOwner",
          "type": "address"
        },
        {
          "indexed": true,
          "internalType": "address",
          "name": "newOwner",
          "type": "address"
        }
      ],
      "name": "OwnershipTransferred",
      "type": "event"
    },
    {
      "anonymous": false,
      "inputs": [
        {
          "indexed": false,
          "internalType": "uint256",
          "name": "tournamentID",
          "type": "uint256"
        },
        {
          "indexed": false,
          "internalType": "string",
          "name": "name",
          "type": "string"
        },
        {
          "indexed": false,
          "internalType": "uint256",
          "name": "startTime",
          "type": "uint256"
        },
        {
          "indexed": false,
          "internalType": "uint256",
          "name": "endTime",
          "type": "uint256"
        }
      ],
      "name": "TournamentCreated",
      "type": "event"
    },
    {
      "constant": true,
      "inputs": [
        {
          "internalType": "uint256",
          "name": "",
          "type": "uint256"
        }
      ],
      "name": "bets",
      "outputs": [
        {
          "internalType": "uint32",
          "name": "leagueID",
          "type": "uint32"
        },
        {
          "internalType": "int256",
          "name": "totalScore",
          "type": "int256"
        },
        {
          "internalType": "address",
          "name": "user",
          "type": "address"
        }
      ],
      "payable": false,
      "stateMutability": "view",
      "type": "function"
    },
    {
      "constant": false,
      "inputs": [
        {
          "internalType": "string",
          "name": "_name",
          "type": "string"
        },
        {
          "internalType": "uint256",
          "name": "_id",
          "type": "uint256"
        },
        {
          "internalType": "uint256",
          "name": "_cost",
          "type": "uint256"
        }
      ],
      "name": "createGolfer",
      "outputs": [],
      "payable": false,
      "stateMutability": "nonpayable",
      "type": "function"
    },
    {
      "constant": false,
      "inputs": [
        {
          "internalType": "bytes32[]",
          "name": "_names",
          "type": "bytes32[]"
        },
        {
          "internalType": "uint256[]",
          "name": "_ids",
          "type": "uint256[]"
        },
        {
          "internalType": "uint256[]",
          "name": "_costs",
          "type": "uint256[]"
        }
      ],
      "name": "createGolfers",
      "outputs": [],
      "payable": false,
      "stateMutability": "nonpayable",
      "type": "function"
    },
    {
      "constant": false,
      "inputs": [
        {
          "internalType": "uint256",
          "name": "_tournamentID",
          "type": "uint256"
        },
        {
          "internalType": "string",
          "name": "_name",
          "type": "string"
        },
        {
          "internalType": "uint256",
          "name": "_startTime",
          "type": "uint256"
        },
        {
          "internalType": "uint256",
          "name": "_endTime",
          "type": "uint256"
        }
      ],
      "name": "createTournament",
      "outputs": [],
      "payable": false,
      "stateMutability": "nonpayable",
      "type": "function"
    },
    {
      "constant": false,
      "inputs": [
        {
          "internalType": "uint256",
          "name": "_tournamentID",
          "type": "uint256"
        }
      ],
      "name": "endTournament",
      "outputs": [],
      "payable": false,
      "stateMutability": "nonpayable",
      "type": "function"
    },
    {
      "constant": true,
      "inputs": [
        {
          "internalType": "uint256",
          "name": "_id",
          "type": "uint256"
        }
      ],
      "name": "getGolfer",
      "outputs": [
        {
          "internalType": "string",
          "name": "",
          "type": "string"
        },
        {
          "internalType": "uint256",
          "name": "",
          "type": "uint256"
        }
      ],
      "payable": false,
      "stateMutability": "view",
      "type": "function"
    },
    {
      "constant": true,
      "inputs": [
        {
          "internalType": "uint256",
          "name": "_golferID",
          "type": "uint256"
        }
      ],
      "name": "getGolferCost",
      "outputs": [
        {
          "internalType": "uint256",
          "name": "",
          "type": "uint256"
        }
      ],
      "payable": false,
      "stateMutability": "view",
      "type": "function"
    },
    {
      "constant": true,
      "inputs": [
        {
          "internalType": "uint256",
          "name": "_golferID",
          "type": "uint256"
        }
      ],
      "name": "getGolferName",
      "outputs": [
        {
          "internalType": "string",
          "name": "",
          "type": "string"
        }
      ],
      "payable": false,
      "stateMutability": "view",
      "type": "function"
    },
    {
      "constant": true,
      "inputs": [
        {
          "internalType": "uint256",
          "name": "_golferID",
          "type": "uint256"
        },
        {
          "internalType": "uint256",
          "name": "_tournamentID",
          "type": "uint256"
        }
      ],
      "name": "getGolferScore",
      "outputs": [
        {
          "internalType": "int256",
          "name": "",
          "type": "int256"
        }
      ],
      "payable": false,
      "stateMutability": "view",
      "type": "function"
    },
    {
      "constant": true,
      "inputs": [
        {
          "internalType": "uint256",
          "name": "_leagueID",
          "type": "uint256"
        }
      ],
      "name": "getLeagueLeader",
      "outputs": [
        {
          "internalType": "address",
          "name": "",
          "type": "address"
        }
      ],
      "payable": false,
      "stateMutability": "view",
      "type": "function"
    },
    {
      "constant": true,
      "inputs": [],
      "name": "isOwner",
      "outputs": [
        {
          "internalType": "bool",
          "name": "",
          "type": "bool"
        }
      ],
      "payable": false,
      "stateMutability": "view",
      "type": "function"
    },
    {
      "constant": true,
      "inputs": [
        {
          "internalType": "uint256",
          "name": "",
          "type": "uint256"
        }
      ],
      "name": "leagues",
      "outputs": [
        {
          "internalType": "uint256",
          "name": "tournamentID",
          "type": "uint256"
        },
        {
          "internalType": "uint256",
          "name": "moneyPot",
          "type": "uint256"
        },
        {
          "internalType": "string",
          "name": "leagueName",
          "type": "string"
        }
      ],
      "payable": false,
      "stateMutability": "view",
      "type": "function"
    },
    {
      "constant": false,
      "inputs": [
        {
          "internalType": "uint256",
          "name": "_golferID",
          "type": "uint256"
        },
        {
          "internalType": "uint256",
          "name": "_newCost",
          "type": "uint256"
        }
      ],
      "name": "modifyGolferCost",
      "outputs": [],
      "payable": false,
      "stateMutability": "nonpayable",
      "type": "function"
    },
    {
      "constant": true,
      "inputs": [],
      "name": "owner",
      "outputs": [
        {
          "internalType": "address",
          "name": "",
          "type": "address"
        }
      ],
      "payable": false,
      "stateMutability": "view",
      "type": "function"
    },
    {
      "constant": false,
      "inputs": [],
      "name": "renounceOwnership",
      "outputs": [],
      "payable": false,
      "stateMutability": "nonpayable",
      "type": "function"
    },
    {
      "constant": false,
      "inputs": [
        {
          "internalType": "uint256",
          "name": "_tournamentID",
          "type": "uint256"
        }
      ],
      "name": "startTournament",
      "outputs": [],
      "payable": false,
      "stateMutability": "nonpayable",
      "type": "function"
    },
    {
      "constant": false,
      "inputs": [
        {
          "internalType": "address",
          "name": "newOwner",
          "type": "address"
        }
      ],
      "name": "transferOwnership",
      "outputs": [],
      "payable": false,
      "stateMutability": "nonpayable",
      "type": "function"
    },
    {
      "constant": false,
      "inputs": [
        {
          "internalType": "uint256",
          "name": "_golferID",
          "type": "uint256"
        },
        {
          "internalType": "uint256",
          "name": "_tournamentID",
          "type": "uint256"
        },
        {
          "internalType": "int256",
          "name": "_score",
          "type": "int256"
        }
      ],
      "name": "updateGolferTournamentScore",
      "outputs": [],
      "payable": false,
      "stateMutability": "nonpayable",
      "type": "function"
    },
    {
      "constant": false,
      "inputs": [
        {
          "internalType": "uint256",
          "name": "_leagueID",
          "type": "uint256"
        }
      ],
      "name": "updateLeagueLeader",
      "outputs": [],
      "payable": false,
      "stateMutability": "nonpayable",
      "type": "function"
    },
    {
      "constant": false,
      "inputs": [
        {
          "internalType": "uint256",
          "name": "_tournamentID",
          "type": "uint256"
        },
        {
          "internalType": "uint256",
          "name": "_newEndTime",
          "type": "uint256"
        }
      ],
      "name": "updateTournamentEndTime",
      "outputs": [],
      "payable": false,
      "stateMutability": "nonpayable",
      "type": "function"
    },
    {
      "constant": false,
      "inputs": [
        {
          "internalType": "uint256",
          "name": "_tournamentID",
          "type": "uint256"
        },
        {
          "internalType": "uint256",
          "name": "_newStartTime",
          "type": "uint256"
        }
      ],
      "name": "updateTournamentStartTime",
      "outputs": [],
      "payable": false,
      "stateMutability": "nonpayable",
      "type": "function"
    },
    {
      "constant": false,
      "inputs": [
        {
          "internalType": "uint256",
          "name": "_tournamentID",
          "type": "uint256"
        }
      ],
      "name": "updateUserScores",
      "outputs": [],
      "payable": false,
      "stateMutability": "nonpayable",
      "type": "function"
    },
    {
      "constant": false,
      "inputs": [
        {
          "internalType": "uint256",
          "name": "_tournamentID",
          "type": "uint256"
        },
        {
          "internalType": "string",
          "name": "_leagueName",
          "type": "string"
        },
        {
          "internalType": "address[6]",
          "name": "userAddresses",
          "type": "address[6]"
        }
      ],
      "name": "createLeague",
      "outputs": [],
      "payable": false,
      "stateMutability": "nonpayable",
      "type": "function"
    },
    {
      "constant": false,
      "inputs": [
        {
          "internalType": "uint256",
          "name": "_tournamentID",
          "type": "uint256"
        },
        {
          "internalType": "string",
          "name": "_leagueName",
          "type": "string"
        },
        {
          "internalType": "address",
          "name": "_userAddress0",
          "type": "address"
        },
        {
          "internalType": "address",
          "name": "_userAddress1",
          "type": "address"
        },
        {
          "internalType": "address",
          "name": "_userAddress2",
          "type": "address"
        },
        {
          "internalType": "address",
          "name": "_userAddress3",
          "type": "address"
        },
        {
          "internalType": "address",
          "name": "_userAddress4",
          "type": "address"
        },
        {
          "internalType": "address",
          "name": "_userAddress5",
          "type": "address"
        }
      ],
      "name": "createLeagueNonArray",
      "outputs": [],
      "payable": false,
      "stateMutability": "nonpayable",
      "type": "function"
    },
    {
      "constant": true,
      "inputs": [],
      "name": "getLeagueID",
      "outputs": [
        {
          "internalType": "uint256",
          "name": "",
          "type": "uint256"
        }
      ],
      "payable": false,
      "stateMutability": "view",
      "type": "function"
    }
  ],
  "bytecode": "0x6080604052735b0c9dc0afe417858dcc8db5269e47abc572aa77600160006101000a81548173ffffffffffffffffffffffffffffffffffffffff021916908373ffffffffffffffffffffffffffffffffffffffff160217905550600160009054906101000a900473ffffffffffffffffffffffffffffffffffffffff16600260006101000a81548173ffffffffffffffffffffffffffffffffffffffff021916908373ffffffffffffffffffffffffffffffffffffffff160217905550336000806101000a81548173ffffffffffffffffffffffffffffffffffffffff021916908373ffffffffffffffffffffffffffffffffffffffff1602179055506000809054906101000a900473ffffffffffffffffffffffffffffffffffffffff1673ffffffffffffffffffffffffffffffffffffffff16600073ffffffffffffffffffffffffffffffffffffffff167f8be0079c531659141344cd1fd0a4f28419497f9722a3daafe3b4186f6b6457e060405160405180910390a3612929806101876000396000f3fe608060405234801561001057600080fd5b50600436106101735760003560e01c8063751f3539116100de578063b399042b11610097578063d5f21b8f11610071578063d5f21b8f146109f4578063e7650c8f14610bd4578063f2fde38b14610c82578063fddb0aaa14610cc657610173565b8063b399042b14610899578063c648fefe14610907578063cf1982e7146109bc57610173565b8063751f35391461074d57806381bbb705146107855780638da5cb5b146107b35780638f32d59b146107fd5780638ff6e3491461081f578063aa3b47c01461086b57610173565b80634850c3cc116101305780634850c3cc146105765780634a0b4967146105b85780634e959408146106bf5780635abde835146106dd578063651ea94314610715578063715018a61461074357610173565b806304fc76951461017857806311d24a79146102515780631d34f0c41461027f57806322af00fa146104055780633c5ed33a1461048d57806347212e6f146104cf575b600080fd5b61024f6004803603608081101561018e57600080fd5b8101908080359060200190929190803590602001906401000000008111156101b557600080fd5b8201836020820111156101c757600080fd5b803590602001918460018302840111640100000000831117156101e957600080fd5b91908080601f016020809104026020016040519081016040528093929190818152602001838380828437600081840152601f19601f8201169050808301925050505050505091929192908035906020019092919080359060200190929190505050610d95565b005b61027d6004803603602081101561026757600080fd5b8101908080359060200190929190505050610f43565b005b610403600480360361010081101561029657600080fd5b8101908080359060200190929190803590602001906401000000008111156102bd57600080fd5b8201836020820111156102cf57600080fd5b803590602001918460018302840111640100000000831117156102f157600080fd5b91908080601f016020809104026020016040519081016040528093929190818152602001838380828437600081840152601f19601f820116905080830192505050505050509192919290803573ffffffffffffffffffffffffffffffffffffffff169060200190929190803573ffffffffffffffffffffffffffffffffffffffff169060200190929190803573ffffffffffffffffffffffffffffffffffffffff169060200190929190803573ffffffffffffffffffffffffffffffffffffffff169060200190929190803573ffffffffffffffffffffffffffffffffffffffff169060200190929190803573ffffffffffffffffffffffffffffffffffffffff169060200190929190505050610fc7565b005b6104316004803603602081101561041b57600080fd5b8101908080359060200190929190505050611183565b604051808463ffffffff1663ffffffff1681526020018381526020018273ffffffffffffffffffffffffffffffffffffffff1673ffffffffffffffffffffffffffffffffffffffff168152602001935050505060405180910390f35b6104cd600480360360608110156104a357600080fd5b810190808035906020019092919080359060200190929190803590602001909291905050506111ea565b005b6104fb600480360360208110156104e557600080fd5b81019080803590602001909291905050506112cf565b6040518080602001828103825283818151815260200191508051906020019080838360005b8381101561053b578082015181840152602081019050610520565b50505050905090810190601f1680156105685780820380516001836020036101000a031916815260200191505b509250505060405180910390f35b6105a26004803603602081101561058c57600080fd5b81019080803590602001909291905050506113ab565b6040518082815260200191505060405180910390f35b6106bd60048036036101008110156105cf57600080fd5b8101908080359060200190929190803590602001906401000000008111156105f657600080fd5b82018360208201111561060857600080fd5b8035906020019184600183028401116401000000008311171561062a57600080fd5b91908080601f016020809104026020016040519081016040528093929190818152602001838380828437600081840152601f19601f8201169050808301925050505050505091929192908060c001906006806020026040519081016040528092919082600660200280828437600081840152601f19601f82011690508083019250505050505091929192905050506113ef565b005b6106c761177f565b6040518082815260200191505060405180910390f35b610713600480360360408110156106f357600080fd5b8101908080359060200190929190803590602001909291905050506117c6565b005b6107416004803603602081101561072b57600080fd5b8101908080359060200190929190505050611859565b005b61074b611877565b005b6107836004803603604081101561076357600080fd5b810190808035906020019092919080359060200190929190505050611947565b005b6107b16004803603602081101561079b57600080fd5b8101908080359060200190929190505050611a18565b005b6107bb611cd4565b604051808273ffffffffffffffffffffffffffffffffffffffff1673ffffffffffffffffffffffffffffffffffffffff16815260200191505060405180910390f35b610805611cfd565b604051808215151515815260200191505060405180910390f35b6108556004803603604081101561083557600080fd5b810190808035906020019092919080359060200190929190505050611d54565b6040518082815260200191505060405180910390f35b6108976004803603602081101561088157600080fd5b8101908080359060200190929190505050611d86565b005b6108c5600480360360208110156108af57600080fd5b8101908080359060200190929190505050611da4565b604051808273ffffffffffffffffffffffffffffffffffffffff1673ffffffffffffffffffffffffffffffffffffffff16815260200191505060405180910390f35b6109336004803603602081101561091d57600080fd5b8101908080359060200190929190505050611de1565b6040518084815260200183815260200180602001828103825283818151815260200191508051906020019080838360005b8381101561097f578082015181840152602081019050610964565b50505050905090810190601f1680156109ac5780820380516001836020036101000a031916815260200191505b5094505050505060405180910390f35b6109f2600480360360408110156109d257600080fd5b810190808035906020019092919080359060200190929190505050611eb0565b005b610bd260048036036060811015610a0a57600080fd5b8101908080359060200190640100000000811115610a2757600080fd5b820183602082011115610a3957600080fd5b80359060200191846020830284011164010000000083111715610a5b57600080fd5b919080806020026020016040519081016040528093929190818152602001838360200280828437600081840152601f19601f82011690508083019250505050505050919291929080359060200190640100000000811115610abb57600080fd5b820183602082011115610acd57600080fd5b80359060200191846020830284011164010000000083111715610aef57600080fd5b919080806020026020016040519081016040528093929190818152602001838360200280828437600081840152601f19601f82011690508083019250505050505050919291929080359060200190640100000000811115610b4f57600080fd5b820183602082011115610b6157600080fd5b80359060200191846020830284011164010000000083111715610b8357600080fd5b919080806020026020016040519081016040528093929190818152602001838360200280828437600081840152601f19601f820116905080830192505050505050509192919290505050611f5f565b005b610c0060048036036020811015610bea57600080fd5b8101908080359060200190929190505050611ffa565b6040518080602001838152602001828103825284818151815260200191508051906020019080838360005b83811015610c46578082015181840152602081019050610c2b565b50505050905090810190601f168015610c735780820380516001836020036101000a031916815260200191505b50935050505060405180910390f35b610cc460048036036020811015610c9857600080fd5b81019080803573ffffffffffffffffffffffffffffffffffffffff1690602001909291905050506120d0565b005b610d9360048036036060811015610cdc57600080fd5b8101908080359060200190640100000000811115610cf957600080fd5b820183602082011115610d0b57600080fd5b80359060200191846001830284011164010000000083111715610d2d57600080fd5b91908080601f016020809104026020016040519081016040528093929190818152602001838380828437600081840152601f19601f82011690508083019250505050505050919291929080359060200190929190803590602001909291905050506120ed565b005b610d9d611cfd565b610da657600080fd5b8360006003600083815260200190815260200160002060030180546001816001161561010002031660029004905014610dde57600080fd5b6000600360008381526020019081526020016000206000015414610e0157600080fd5b824210610e0d57600080fd5b828211610e1957600080fd5b60008511610e2657600080fd5b6040518060600160405280848152602001838152602001858152506003600087815260200190815260200160002060008201518160000155602082015181600101556040820151816003019080519060200190610e849291906126e0565b509050507ff921e1476612bff3a21b96b63ae8a3ac03579129aad3ed13624285327365837c858585856040518085815260200180602001848152602001838152602001828103825285818151815260200191508051906020019080838360005b83811015610eff578082015181840152602081019050610ee4565b50505050905090810190601f168015610f2c5780820380516001836020036101000a031916815260200191505b509550505050505060405180910390a15050505050565b610f6a60058281548110610f5357fe5b906000526020600020906003020160000154611a18565b610f73816122c2565b600b600083815260200190815260200160002060006101000a81548173ffffffffffffffffffffffffffffffffffffffff021916908373ffffffffffffffffffffffffffffffffffffffff16021790555050565b610fcf612760565b8681600060068110610fdd57fe5b602002019073ffffffffffffffffffffffffffffffffffffffff16908173ffffffffffffffffffffffffffffffffffffffff1681525050858160016006811061102257fe5b602002019073ffffffffffffffffffffffffffffffffffffffff16908173ffffffffffffffffffffffffffffffffffffffff1681525050848160026006811061106757fe5b602002019073ffffffffffffffffffffffffffffffffffffffff16908173ffffffffffffffffffffffffffffffffffffffff168152505083816003600681106110ac57fe5b602002019073ffffffffffffffffffffffffffffffffffffffff16908173ffffffffffffffffffffffffffffffffffffffff168152505082816004600681106110f157fe5b602002019073ffffffffffffffffffffffffffffffffffffffff16908173ffffffffffffffffffffffffffffffffffffffff1681525050818160056006811061113657fe5b602002019073ffffffffffffffffffffffffffffffffffffffff16908173ffffffffffffffffffffffffffffffffffffffff16815250506111788989836113ef565b505050505050505050565b6006818154811061119057fe5b90600052602060002090600402016000915090508060010160009054906101000a900463ffffffff16908060020154908060030160009054906101000a900473ffffffffffffffffffffffffffffffffffffffff16905083565b6111f2611cfd565b6111fb57600080fd5b828060046000838152602001908152602001600020600101541461121e57600080fd5b82600060036000838152602001908152602001600020600001541161124257600080fd5b600060036000838152602001908152602001600020600101541161126557600080fd5b6000600360008381526020019081526020016000206003018054600181600116156101000203166002900490501161129c57600080fd5b82600460008781526020019081526020016000206002016000868152602001908152602001600020819055505050505050565b606081806004600083815260200190815260200160002060010154146112f457600080fd5b600460008481526020019081526020016000206000018054600181600116156101000203166002900480601f01602080910402602001604051908101604052809291908181526020018280546001816001161561010002031660029004801561139e5780601f106113735761010080835404028352916020019161139e565b820191906000526020600020905b81548152906001019060200180831161138157829003601f168201915b5050505050915050919050565b600081806004600083815260200190815260200160002060010154146113d057600080fd5b6004600084815260200190815260200160002060030154915050919050565b6000600c60003373ffffffffffffffffffffffffffffffffffffffff1673ffffffffffffffffffffffffffffffffffffffff168152602001908152602001600020541461143b57600080fd5b82600060036000838152602001908152602001600020600001541161145f57600080fd5b600060036000838152602001908152602001600020600101541161148257600080fd5b600060036000838152602001908152602001600020600301805460018160011615610100020316600290049050116114b957600080fd5b6000600160056040518060600160405280888152602001600081526020018781525090806001815401808255809150509060018203906000526020600020906003020160009091929091909150600082015181600001556020820151816001015560408201518160020190805190602001906115369291906126e0565b50505003905080600860003373ffffffffffffffffffffffffffffffffffffffff1673ffffffffffffffffffffffffffffffffffffffff168152602001908152602001600020819055506001600c60003373ffffffffffffffffffffffffffffffffffffffff1673ffffffffffffffffffffffffffffffffffffffff16815260200190815260200160002060008282540192505081905550336009600083815260200190815260200160002060006101000a81548173ffffffffffffffffffffffffffffffffffffffff021916908373ffffffffffffffffffffffffffffffffffffffff16021790555084600a60008381526020019081526020016000208190555060008090505b60068110156116a85781600d600086846006811061165857fe5b602002015173ffffffffffffffffffffffffffffffffffffffff1673ffffffffffffffffffffffffffffffffffffffff16815260200190815260200160002081905550808060010191505061163e565b5082600e60008381526020019081526020016000209060066116cb929190612782565b507fe7b7bffb910588abb6e9a5c1a8c4b9a1544cd5050d71d14b57f3b468ca0245e28185876040518084815260200180602001838152602001828103825284818151815260200191508051906020019080838360005b8381101561173c578082015181840152602081019050611721565b50505050905090810190601f1680156117695780820380516001836020036101000a031916815260200191505b5094505050505060405180910390a15050505050565b6000600d60003373ffffffffffffffffffffffffffffffffffffffff1673ffffffffffffffffffffffffffffffffffffffff16815260200190815260200160002054905090565b6117ce611cfd565b6117d757600080fd5b81806004600083815260200190815260200160002060010154146117fa57600080fd5b8160046000858152602001908152602001600020600301819055507fc93f30e5608cb7d10da279088d68019a15a03744a41741842cfcaf68ad4511b58383604051808381526020018281526020019250505060405180910390a1505050565b42600360008381526020019081526020016000206000018190555050565b61187f611cfd565b61188857600080fd5b600073ffffffffffffffffffffffffffffffffffffffff166000809054906101000a900473ffffffffffffffffffffffffffffffffffffffff1673ffffffffffffffffffffffffffffffffffffffff167f8be0079c531659141344cd1fd0a4f28419497f9722a3daafe3b4186f6b6457e060405160405180910390a360008060006101000a81548173ffffffffffffffffffffffffffffffffffffffff021916908373ffffffffffffffffffffffffffffffffffffffff160217905550565b61194f611cfd565b61195857600080fd5b81600060036000838152602001908152602001600020600001541161197c57600080fd5b600060036000838152602001908152602001600020600101541161199f57600080fd5b600060036000838152602001908152602001600020600301805460018160011615610100020316600290049050116119d657600080fd5b600360008481526020019081526020016000206000015482116119f857600080fd5b816003600085815260200190815260200160002060000181905550505050565b60008090505b600680549050811015611cd057611a336127ff565b60068281548110611a4057fe5b906000526020600020906004020160405180608001604052908160008201600680602002604051908101604052809291908260068015611abd576020028201916000905b82829054906101000a900461ffff1661ffff1681526020019060020190602082600101049283019260010382029150808411611a845790505b505050505081526020016001820160009054906101000a900463ffffffff1663ffffffff1663ffffffff168152602001600282015481526020016003820160009054906101000a900473ffffffffffffffffffffffffffffffffffffffff1673ffffffffffffffffffffffffffffffffffffffff1673ffffffffffffffffffffffffffffffffffffffff16815250509050611b56612849565b6005826020015163ffffffff1681548110611b6d57fe5b90600052602060002090600302016040518060600160405290816000820154815260200160018201548152602001600282018054600181600116156101000203166002900480601f016020809104026020016040519081016040528092919081815260200182805460018160011615610100020316600290048015611c335780601f10611c0857610100808354040283529160200191611c33565b820191906000526020600020905b815481529060010190602001808311611c1657829003601f168201915b50505050508152505090506000826040015190508482600001511415611c9d5760008090505b8360000151506006811015611c9b57611c8a84600001518260068110611c7b57fe5b602002015161ffff1687611d54565b820191508080600101915050611c59565b505b8060068581548110611cab57fe5b9060005260206000209060040201600201819055505050508080600101915050611a1e565b5050565b60008060009054906101000a900473ffffffffffffffffffffffffffffffffffffffff16905090565b60008060009054906101000a900473ffffffffffffffffffffffffffffffffffffffff1673ffffffffffffffffffffffffffffffffffffffff163373ffffffffffffffffffffffffffffffffffffffff1614905090565b600060046000848152602001908152602001600020600201600083815260200190815260200160002054905092915050565b42600360008381526020019081526020016000206001018190555050565b6000600b600083815260200190815260200160002060009054906101000a900473ffffffffffffffffffffffffffffffffffffffff169050919050565b60058181548110611dee57fe5b9060005260206000209060030201600091509050806000015490806001015490806002018054600181600116156101000203166002900480601f016020809104026020016040519081016040528092919081815260200182805460018160011615610100020316600290048015611ea65780601f10611e7b57610100808354040283529160200191611ea6565b820191906000526020600020905b815481529060010190602001808311611e8957829003601f168201915b5050505050905083565b611eb8611cfd565b611ec157600080fd5b816000600360008381526020019081526020016000206000015411611ee557600080fd5b6000600360008381526020019081526020016000206001015411611f0857600080fd5b60006003600083815260200190815260200160002060030180546001816001161561010002031660029004905011611f3f57600080fd5b816003600085815260200190815260200160002060010181905550505050565b611f67611cfd565b611f7057600080fd5b8151835114611f7e57600080fd5b8051835114611f8c57600080fd5b60008090505b8351811015611ff457611fe7611fba858381518110611fad57fe5b6020026020010151612455565b848381518110611fc657fe5b6020026020010151848481518110611fda57fe5b60200260200101516120ed565b8080600101915050611f92565b50505050565b60606000600460008481526020019081526020016000206000016004600085815260200190815260200160002060030154818054600181600116156101000203166002900480601f0160208091040260200160405190810160405280929190818152602001828054600181600116156101000203166002900480156120c05780601f10612095576101008083540402835291602001916120c0565b820191906000526020600020905b8154815290600101906020018083116120a357829003601f168201915b5050505050915091509150915091565b6120d8611cfd565b6120e157600080fd5b6120ea816125e8565b50565b6120f5611cfd565b6120fe57600080fd5b81600060046000838152602001908152602001600020600301541461212257600080fd5b600060046000838152602001908152602001600020600101541461214557600080fd5b6000600460008381526020019081526020016000206000018054600181600116156101000203166002900490501461217c57600080fd5b600084511161218a57600080fd5b6000831161219757600080fd5b600082116121a457600080fd5b6040518060600160405280858152602001848152602001670de0b6b3a764000084028152506004600085815260200190815260200160002060008201518160000190805190602001906121f89291906126e0565b5060208201518160010155604082015181600301559050507f316e331d8ddc20f2a441eb5d779933dabf9d87c1f3d2010f4f566d6b07e645ff8385846040518084815260200180602001838152602001828103825284818151815260200191508051906020019080838360005b83811015612280578082015181840152602081019050612265565b50505050905090810190601f1680156122ad5780820380516001836020036101000a031916815260200191505b5094505050505060405180910390a150505050565b60008060ff6001901b90506000819050600080905060008090505b600680549050811015612449576122f26127ff565b600682815481106122ff57fe5b90600052602060002090600402016040518060800160405290816000820160068060200260405190810160405280929190826006801561237c576020028201916000905b82829054906101000a900461ffff1661ffff16815260200190600201906020826001010492830192600103820291508084116123435790505b505050505081526020016001820160009054906101000a900463ffffffff1663ffffffff1663ffffffff168152602001600282015481526020016003820160009054906101000a900473ffffffffffffffffffffffffffffffffffffffff1673ffffffffffffffffffffffffffffffffffffffff1673ffffffffffffffffffffffffffffffffffffffff1681525050905086816020015163ffffffff16141561243b57838160400151131561243a5780604001519350806060015192505b5b5080806001019150506122dd565b50809350505050919050565b60608060206040519080825280601f01601f19166020018201604052801561248c5781602001600182028038833980820191505090505b509050600080905060008090505b60208110156125365760008160080260020a8660001c0260001b9050600060f81b817effffffffffffffffffffffffffffffffffffffffffffffffffffffffffffff19161461252857808484815181106124f057fe5b60200101907effffffffffffffffffffffffffffffffffffffffffffffffffffffffffffff1916908160001a90535082806001019350505b50808060010191505061249a565b506060816040519080825280601f01601f19166020018201604052801561256c5781602001600182028038833980820191505090505b50905060008090505b828110156125dc5783818151811061258957fe5b602001015160f81c60f81b8282815181106125a057fe5b60200101907effffffffffffffffffffffffffffffffffffffffffffffffffffffffffffff1916908160001a9053508080600101915050612575565b50809350505050919050565b600073ffffffffffffffffffffffffffffffffffffffff168173ffffffffffffffffffffffffffffffffffffffff16141561262257600080fd5b8073ffffffffffffffffffffffffffffffffffffffff166000809054906101000a900473ffffffffffffffffffffffffffffffffffffffff1673ffffffffffffffffffffffffffffffffffffffff167f8be0079c531659141344cd1fd0a4f28419497f9722a3daafe3b4186f6b6457e060405160405180910390a3806000806101000a81548173ffffffffffffffffffffffffffffffffffffffff021916908373ffffffffffffffffffffffffffffffffffffffff16021790555050565b828054600181600116156101000203166002900490600052602060002090601f016020900481019282601f1061272157805160ff191683800117855561274f565b8280016001018555821561274f579182015b8281111561274e578251825591602001919060010190612733565b5b50905061275c919061286a565b5090565b6040518060c00160405280600690602082028038833980820191505090505090565b82600681019282156127ee579160200282015b828111156127ed5782518260006101000a81548173ffffffffffffffffffffffffffffffffffffffff021916908373ffffffffffffffffffffffffffffffffffffffff16021790555091602001919060010190612795565b5b5090506127fb919061288f565b5090565b60405180608001604052806128126128d2565b8152602001600063ffffffff16815260200160008152602001600073ffffffffffffffffffffffffffffffffffffffff1681525090565b60405180606001604052806000815260200160008152602001606081525090565b61288c91905b80821115612888576000816000905550600101612870565b5090565b90565b6128cf91905b808211156128cb57600081816101000a81549073ffffffffffffffffffffffffffffffffffffffff021916905550600101612895565b5090565b90565b6040518060c0016040528060069060208202803883398082019150509050509056fea265627a7a72315820be7658b0359610b6e9a6773b829d2b34ad1ddc40f93214a723fe3bce37aa64ef64736f6c63430005100032",
  "source": "pragma solidity >=0.4.22 <0.6.0;\r\nimport \"./LeagueData.sol\";\r\n\r\n\r\ncontract LeagueOwnership is LeagueData {\r\n  event NewLeague(uint leagueID, string leagueName, uint tournamentID);\r\n\r\n    mapping(address => uint) userToLeagueOwnershipCount;\r\n    mapping(address => uint) userToLeagueID;\r\n    mapping(uint => address[6]) leagueIDtoUsers;\r\n\r\n    function createLeague(uint _tournamentID, string memory _leagueName, address[6] memory userAddresses) public noDuplicateLeagueOwner tournamentExists(_tournamentID) {\r\n        uint id = leagues.push(League(_tournamentID,0, _leagueName)) - 1;\r\n        ownerToLeagueID[msg.sender] = id;\r\n        userToLeagueOwnershipCount[msg.sender] += 1;\r\n        leagueIDtoOwner[id] = msg.sender;\r\n        leagueIDtoTournamentID[id] = _tournamentID;\r\n        for (uint i = 0; i < 6; i++){\r\n          userToLeagueID[userAddresses[i]] = id;\r\n        }\r\n        leagueIDtoUsers[id] = userAddresses;\r\n        emit NewLeague(id, _leagueName, _tournamentID);\r\n\r\n\r\n    }\r\n\r\n    function createLeagueNonArray(uint _tournamentID, string memory _leagueName, address _userAddress0, address _userAddress1, address _userAddress2, address _userAddress3, address _userAddress4, address _userAddress5) public{\r\n      address[6] memory _userAddresses;\r\n      _userAddresses[0] = _userAddress0;\r\n      _userAddresses[1] = _userAddress1;\r\n      _userAddresses[2] = _userAddress2;\r\n      _userAddresses[3] = _userAddress3;\r\n      _userAddresses[4] = _userAddress4;\r\n      _userAddresses[5] = _userAddress5;\r\n      createLeague(_tournamentID, _leagueName, _userAddresses);\r\n    }\r\n\r\n    modifier noDuplicateLeagueOwner(){\r\n        require(userToLeagueOwnershipCount[msg.sender] == 0);\r\n        _;\r\n    }\r\n\r\n    function getLeagueID() public view returns(uint){\r\n      return userToLeagueID[msg.sender];\r\n    }\r\n\r\n\r\n\r\n\r\n\r\n\r\n}\r\n",
  "sourcePath": "S:\\GitHub\\blockchain-fantasy-golf\\contracts\\LeagueOwnership.sol",
  "compiler": {
    "name": "solc",
    "version": "0.5.16+commit.9c3226ce.Emscripten.clang"
  },
  "schemaVersion": "3.1.0",
  "updatedAt": "2020-05-02T21:37:59.512Z",
  "devdoc": {
    "methods": {
      "isOwner()": {
        "return": "true if `msg.sender` is the owner of the contract."
      },
      "owner()": {
        "return": "the address of the owner."
      },
      "renounceOwnership()": {
        "details": "Allows the current owner to relinquish control of the contract."
      },
      "transferOwnership(address)": {
        "details": "Allows the current owner to transfer control of the contract to a newOwner.",
        "params": {
          "newOwner": "The address to transfer ownership to."
        }
      }
    }
  },
  "userdoc": {
    "methods": {
      "renounceOwnership()": {
        "notice": "Renouncing to ownership will leave the contract without an owner. It will not be possible to call the functions with the `onlyOwner` modifier anymore."
      }
    }
  }
}