{
  "contractName": "LeagueOwnership",
  "abi": [
    {
      "constant": true,
      "inputs": [
        {
          "internalType": "uint256",
          "name": "",
          "type": "uint256"
        }
      ],
      "name": "bets",
      "outputs": [
        {
          "internalType": "uint32",
          "name": "leagueID",
          "type": "uint32"
        },
        {
          "internalType": "int256",
          "name": "totalScore",
          "type": "int256"
        }
      ],
      "payable": false,
      "stateMutability": "view",
      "type": "function"
    },
    {
      "constant": true,
      "inputs": [
        {
          "internalType": "uint256",
          "name": "",
          "type": "uint256"
        }
      ],
      "name": "leagues",
      "outputs": [
        {
          "internalType": "uint256",
          "name": "tournamentID",
          "type": "uint256"
        },
        {
          "internalType": "string",
          "name": "leagueName",
          "type": "string"
        }
      ],
      "payable": false,
      "stateMutability": "view",
      "type": "function"
    },
    {
      "constant": false,
      "inputs": [
        {
          "internalType": "uint256",
          "name": "_tournamentID",
          "type": "uint256"
        }
      ],
      "name": "updateUserScores",
      "outputs": [],
      "payable": false,
      "stateMutability": "nonpayable",
      "type": "function"
    },
    {
      "constant": false,
      "inputs": [
        {
          "internalType": "uint256",
          "name": "_tournamentID",
          "type": "uint256"
        },
        {
          "internalType": "string",
          "name": "_leagueName",
          "type": "string"
        }
      ],
      "name": "createLeague",
      "outputs": [],
      "payable": false,
      "stateMutability": "nonpayable",
      "type": "function"
    }
  ],
  "bytecode": "0x6080604052735b0c9dc0afe417858dcc8db5269e47abc572aa776000806101000a81548173ffffffffffffffffffffffffffffffffffffffff021916908373ffffffffffffffffffffffffffffffffffffffff1602179055506000809054906101000a900473ffffffffffffffffffffffffffffffffffffffff16600160006101000a81548173ffffffffffffffffffffffffffffffffffffffff021916908373ffffffffffffffffffffffffffffffffffffffff1602179055503480156100c657600080fd5b5061090a806100d66000396000f3fe608060405234801561001057600080fd5b506004361061004c5760003560e01c8063107ab3e71461005157806322af00fa1461011657806381bbb7051461016b578063c648fefe14610199575b600080fd5b6101146004803603604081101561006757600080fd5b81019080803590602001909291908035906020019064010000000081111561008e57600080fd5b8201836020820111156100a057600080fd5b803590602001918460018302840111640100000000831117156100c257600080fd5b91908080601f016020809104026020016040519081016040528093929190818152602001838380828437600081840152601f19601f820116905080830192505050505050509192919290505050610247565b005b6101426004803603602081101561012c57600080fd5b81019080803590602001909291905050506103b5565b604051808363ffffffff1663ffffffff1681526020018281526020019250505060405180910390f35b6101976004803603602081101561018157600080fd5b81019080803590602001909291905050506103f6565b005b6101c5600480360360208110156101af57600080fd5b81019080803590602001909291905050506106fe565b6040518083815260200180602001828103825283818151815260200191508051906020019080838360005b8381101561020b5780820151818401526020810190506101f0565b50505050905090810190601f1680156102385780820380516001836020036101000a031916815260200191505b50935050505060405180910390f35b6000600460003373ffffffffffffffffffffffffffffffffffffffff1673ffffffffffffffffffffffffffffffffffffffff168152602001908152602001600020541461029357600080fd5b60006002604051806040016040528085815260200184815250908060018154018082558091505090600182039060005260206000209060020201600090919290919091506000820151816000015560208201518160010190805190602001906102fd9291906107c7565b505050905080600460003373ffffffffffffffffffffffffffffffffffffffff1673ffffffffffffffffffffffffffffffffffffffff16815260200190815260200160002081905550336005600083815260200190815260200160002060006101000a81548173ffffffffffffffffffffffffffffffffffffffff021916908373ffffffffffffffffffffffffffffffffffffffff160217905550826006600083815260200190815260200160002081905550505050565b600381815481106103c257fe5b90600052602060002090600302016000915090508060010160009054906101000a900463ffffffff16908060020154905082565b60008090505b6003805490508110156106fa57610411610847565b6003828154811061041e57fe5b90600052602060002090600302016040518060600160405290816000820160068060200260405190810160405280929190826006801561049b576020028201916000905b82829054906101000a900461ffff1661ffff16815260200190600201906020826001010492830192600103820291508084116104625790505b505050505081526020016001820160009054906101000a900463ffffffff1663ffffffff1663ffffffff16815260200160028201548152505090506104de610874565b6002826020015163ffffffff16815481106104f557fe5b906000526020600020906002020160405180604001604052908160008201548152602001600182018054600181600116156101000203166002900480601f0160208091040260200160405190810160405280929190818152602001828054600181600116156101000203166002900480156105b15780601f10610586576101008083540402835291602001916105b1565b820191906000526020600020905b81548152906001019060200180831161059457829003601f168201915b505050505081525050905060008260400151905084826000015114156106c75760008090505b83600001515060068110156106c557600160009054906101000a900473ffffffffffffffffffffffffffffffffffffffff1673ffffffffffffffffffffffffffffffffffffffff16638ff6e3498560000151836006811061063457fe5b6020020151886040518363ffffffff1660e01b8152600401808361ffff1681526020018281526020019250505060206040518083038186803b15801561067957600080fd5b505afa15801561068d573d6000803e3d6000fd5b505050506040513d60208110156106a357600080fd5b81019080805190602001909291905050508201915080806001019150506105d7565b505b80600385815481106106d557fe5b90600052602060002090600302016002018190555050505080806001019150506103fc565b5050565b6002818154811061070b57fe5b9060005260206000209060020201600091509050806000015490806001018054600181600116156101000203166002900480601f0160208091040260200160405190810160405280929190818152602001828054600181600116156101000203166002900480156107bd5780601f10610792576101008083540402835291602001916107bd565b820191906000526020600020905b8154815290600101906020018083116107a057829003601f168201915b5050505050905082565b828054600181600116156101000203166002900490600052602060002090601f016020900481019282601f1061080857805160ff1916838001178555610836565b82800160010185558215610836579182015b8281111561083557825182559160200191906001019061081a565b5b509050610843919061088e565b5090565b604051806060016040528061085a6108b3565b8152602001600063ffffffff168152602001600081525090565b604051806040016040528060008152602001606081525090565b6108b091905b808211156108ac576000816000905550600101610894565b5090565b90565b6040518060c0016040528060069060208202803883398082019150509050509056fea265627a7a723158201df01e2d5da9e7438d296fe4588bd31491a6017ee9a7c1f4b1ac380a7846804364736f6c63430005100032",
  "source": "pragma solidity >=0.4.22 <0.6.0;\r\nimport \"./LeagueData.sol\";\r\n\r\n\r\ncontract LeagueOwnership is LeagueData {\r\n    mapping(address => uint) ownerToLeagueID;\r\n    mapping(uint => address) leagueIDtoOwner;\r\n    mapping(uint => uint) leagueIDtoTournamentID;\r\n\r\n\r\n    function createLeague(uint _tournamentID, string memory _leagueName) public noDuplicateLeageOwner{\r\n        uint id = leagues.push(League(_tournamentID, _leagueName));\r\n        ownerToLeagueID[msg.sender] = id;\r\n        leagueIDtoOwner[id] = msg.sender;\r\n        leagueIDtoTournamentID[id] = _tournamentID;\r\n\r\n    }\r\n\r\n    modifier noDuplicateLeageOwner(){\r\n        require(ownerToLeagueID[msg.sender] == 0);\r\n        _;\r\n    }\r\n\r\n\r\n}\r\n",
  "sourcePath": "S:\\GitHub\\blockchain-fantasy-golf\\contracts\\LeagueOwnership.sol",
  "compiler": {
    "name": "solc",
    "version": "0.5.16+commit.9c3226ce.Emscripten.clang"
  },
  "schemaVersion": "3.0.23",
  "updatedAt": "2020-04-11T20:39:43.486Z",
  "devdoc": {
    "methods": {}
  },
  "userdoc": {
    "methods": {}
  }
}